:020000040000FA
:1000000080318A01032821006830990021001A1CE0
:10001000072822009D0120008C0122008C01230072
:100020008C0121000F308C0020008D0122008D01F9
:1000300023008D0121008D0120008E0122008E0100
:100040002100BF308E008031D12087310E278731CB
:100050001127873139272C00A00039272C00A10057
:1000600039272C00A20039272C00A30039272C00A7
:10007000B00039272C00B10039272C00B2003927F5
:100080002C00B30039272C00B40039272C00B50010
:1000900039272C00B60039272C00B7002C0000307F
:1000A000AF004630A831CB202C000030AF004E30DE
:1000B000A831CB20AD311E25AC31B524B73189270D
:1000C00087314027873156272C00FF30A5002C00B0
:1000D000B801863105268631122686311F268631E3
:1000E0002C26A8315020A8315F208031A831732000
:1000F00087316C277F279127A327A9310521A931B3
:100100004E2187314027873156278031E5208031C5
:100110002C00381B912880312C00B81BB12880316D
:1001200075288031A8317320A9312221A9313821C5
:10013000A9310521AA313A222C00AA3138180C2203
:10014000AA31B8180C22AA3138190C22AA31B819D0
:100150000C228031E5202C008031381F7528803139
:1001600091288031A8317320A9316C21A9318221D5
:10017000A9314E21AA313A222C00AA313818232263
:10018000AA31B8182322AA3138192322AA31B81962
:1001900023228031E5202C008031B81F7528803162
:1001A000B12821000E138E1723009F15230019304C
:1001B0009B0023009E161E121E1123009D171D1367
:1001C0001D162C00A801AA01B9012000911E0800EB
:1001D000230085319D183A2D230085311D193E2DB0
:1001E000230019082C00A6002C0082312A18702A3E
:1001F0008231AA189A2A2A19C42AAA19EE2A823107
:100200002A1A282A8231AA1A402A82312A1B582AFD
:100210002C0083313918182B8331B918332B8331D3
:1002200039194E2B8331B919692B8331391A842B33
:100230008331B91A9F2B8331391BBA2B8331B91BF8
:10024000D52B813103112C002608733A0319992903
:100250002608533A03199C2926084F3A03199F2967
:100260002608493A0319A2292608633A0319B12935
:100270002608313A0319A5292608323A0319A82974
:100280002608333A0319AB292608343A0319AE2954
:100290002608253A0319B4292608353A0319B7293F
:1002A00026085E3A0319BA292608363A0319BD29E9
:1002B0002608263A0319C0292608373A0319C32904
:1002C00026082A3A0319C6292608383A0319C929E3
:1002D0002608283A0319CC292608393A0319CF29C8
:1002E0002608293A0319D2292608303A0319D529B4
:1002F00026085F3A0319D82926082D3A0319DB2965
:1003000026082B3A0319DE2926083D3A0319E1296C
:100310002608473A0319E4292608463A0319E7292B
:100320002608583A0319EA2926085A3A0319ED29EA
:100330000800853144250800853160250800853195
:100340008325080085319E2508008531D5250800C4
:100350008531E12508008531ED2508008531F92535
:1003600008002C002A160800AA31DF220800AB3151
:100370001B230800AA31EE220800AB312A23080013
:10038000AA31FD220800AB3139230800AB310C2320
:100390000800AB3148230800AB31A7230800AB317C
:1003A000E3230800AB31B6230800AB31F223080089
:1003B000AB31C5230800AC3101240800AB31D42394
:1003C0000800AC3110240800AC316F240800AC31B7
:1003D000922408002C00AA1608002C002A170800F6
:1003E0002C002A142A1208002C00AA142A12080031
:1003F0002C002A152A1208002C00AA152A1208001F
:100400002C0039142C00AA1208002C00B9142C005E
:10041000AA1208002C0039152C00AA1208002C0082
:10042000B9152C00AA1208002C0039162C002A132A
:1004300008002C00B9162C002A1308002C003917CC
:100440002C002A1308002C00B9172C002A130800CE
:10045000BC319F24BD31FF2581312C0003112608BA
:100460006C3A0319F0292608723A0319F429260870
:10047000613A0319F8292608623A0319FC29080091
:10048000BC319F24BD31FF2582312C000311260889
:10049000313A0319002A2608323A0319052A260898
:1004A000333A03190A2A2608343A03190F2A080096
:1004B000BC319F24BD31FF2582312C000311260859
:1004C000313A0319142A2608323A0319192A260840
:1004D000333A03191E2A2608343A0319232A08003E
:1004E000BE312826BC31A62483312C0003112608F6
:1004F000303A0319F72B2608313A0319002C260845
:10050000323A0319092C2608333A0319122C26080B
:10051000343A03191B2C2608353A0319242C2608D3
:10052000363A03192D2C2608373A0319362C833115
:10053000F0230800BE312826BC31B32484312C00BE
:1005400003112608303A0319452C2608313A0319BD
:100550004E2C2608323A0319572C2608333A031931
:10056000602C2608343A0319692C2608353A0319F9
:10057000722C2608363A03197B2C2608373A0319C1
:10058000842C8331F0230800BE312826BC31C024DE
:1005900084312C0003112608303A0319932C2608C5
:1005A000313A03199C2C2608323A0319A52C260847
:1005B000333A0319AE2C2608343A0319B72C26080F
:1005C000353A0319C02C2608363A0319C92C2608D7
:1005D000373A0319D22C8331F0230800BE31282684
:1005E000BC31CD2484312C0003112608303A031984
:1005F000E12C2608313A0319EA2C2608323A03196D
:10060000F32C2608333A0319FC2C2608343A031934
:10061000052D2608353A03190E2D2608363A0319FA
:10062000172D2608373A0319202D8331F0230800AF
:10063000B731DF27BC31A624BC31DA242C002608D0
:100640002C00B000B003AA31DF222030BC31992445
:100650002C003008BC319924BC319F242C00A812F6
:100660002C0039100800B731DF27BC31B324BC316E
:10067000DA242C0026082C00B100B103AA31EE22A6
:100680002030BC3199242C003108BC319924BC3174
:100690009F242C00A8122C00B9100800B731DF27C6
:1006A000BC31C024BC31DA242C0026082C00B20056
:1006B000B203AA31FD222030BC3199242C0032082B
:1006C000BC319924BC319F242C00A8122C00391174
:1006D0000800B731DF27BC31CD24BC31DA242C002F
:1006E00026082C00B300B303AB310C232030BC31FF
:1006F00099242C003308BC319924BC319F242C0050
:10070000A8122C00B91108008731B727BC31A624E4
:10071000BC31DA242C0026082C00B400B403AB3121
:10072000A7232030BC3199242C003408BC319924F3
:10073000BC319F242C0028132C003912080087316B
:10074000B727BC31B324BC31DA242C0026082C0096
:10075000B500B503AB31B6232030BC3199242C0051
:100760003508BC319924BC319F242C0028132C005F
:10077000B91208008731B727BC31C024BC31DA2454
:100780002C0026082C00B600B603AB31C523203060
:10079000BC3199242C003608BC319924BC319F24EB
:1007A0002C0028132C00391308008731B727BC31DF
:1007B000CD24BC31DA242C0026082C00B700B70366
:1007C000AB31D4232030BC3199242C003708BC3104
:1007D0009924BC319F242C0028132C00B913080045
:1007E0002C00AA01BE317326BC319F2408000030C2
:1007F00085312F252C000730A00084313F240800CC
:10080000013085312F252C000030A00084313F2499
:100810000800023085312F252C000130A0008431E2
:100820003F240800033085312F252C000230A00022
:1008300084313F240800043085312F252C000330FB
:10084000A00084313F240800053085312F252C007D
:100850000430A00084313F240800063085312F2564
:100860002C000530A00084313F240800073085317A
:100870002F252C000630A00084313F24080085314C
:10088000D5252C0028122A100800003085312F258C
:100890002C000730A10084318D24080001308531FF
:1008A0002F252C000030A10084318D240800023057
:1008B00085312F252C000130A10084318D240800C2
:1008C000033085312F252C000230A10084318D2486
:1008D0000800043085312F252C000330A10084311D
:1008E0008D240800053085312F252C000430A1000F
:1008F00084318D240800063085312F252C000530E9
:10090000A10084318D240800073085312F252C006B
:100910000630A10084318D2408008531E1252C00AA
:100920002812AA100800003085312F252C0007302E
:10093000A2008431DB240800013085312F252C00F2
:100940000030A2008431DB240800023085312F25DD
:100950002C000130A2008431DB24080003308531F3
:100960002F252C000230A2008431DB240800043043
:1009700085312F252C000330A2008431DB240800B0
:10098000053085312F252C000430A2008431DB2472
:100990000800063085312F252C000530A200843157
:1009A000DB240800073085312F252C000630A200FB
:1009B0008431DB2408008531ED252C0028122A1112
:1009C0000800003085312F252C000730A300853129
:1009D00029250800013085312F252C000030A30087
:1009E000853129250800023085312F252C00013062
:1009F000A300853129250800033085312F252C00DF
:100A00000230A300853129250800043085312F25C7
:100A10002C000330A30085312925080005308531DD
:100A20002F252C000430A30085312925080006302D
:100A300085312F252C000530A3008531292508009C
:100A4000073085312F252C000630A300853129255C
:100A500008008531F9252C002812AA1108002C0065
:100A6000BA00BE314A262C003A08BC31E924BC3118
:100A70009F24080023001D121D16080023001908DA
:100A800023009D139D170800BC319F24A624DA245F
:100A90002C002008E924DE24B324DA242C002108C9
:100AA000E9249F24C024DA242C002208E924DE242F
:100AB000CD24DA242C002308E9249F249F24080055
:100AC000BC319F2453309924E42400307425DA2467
:100AD0002C002008E924E42401307425DA242C00B9
:100AE0002108E924E42402307425DA242C002208A9
:100AF000E924E42403307425DA242C002308E924B3
:100B0000E4249F240800BC319F244F309924E4241E
:100B100000307425DA24A624E42401307425DA2474
:100B2000B324E42402307425DA24C024E4240330FE
:100B30007425DA24CD24E4249F240800BC319F24AA
:100B400049309924E42400307425DA240030E92463
:100B5000E42401307425DA240130E924E42402304D
:100B60007425DA240230E924E42403307425DA24DD
:100B70000330E924E42404307425DA240430E92421
:100B8000E42405307425DA240530E924E424063011
:100B90007425DA240630E924E42407307425DA24A5
:100BA0000730E924E4249F2408002C00A00A031144
:100BB0002008083A0319A00186310526A831002033
:100BC00008002C00A10A03112108083A0319A10109
:100BD00086311226A831142008002C00A20A031125
:100BE0002208083A0319A20186311F26A8312820BD
:100BF00008002C00A30A03112308083A0319A301D3
:100C000086312C26A8313C200800F8308631392660
:100C1000003086315426F93086313926003086314D
:100C2000AD260800F8308631392601308631542649
:100C3000FA308631392601308631AD260800FB3086
:100C400086313926023086315426FC3086313926E9
:100C500002308631AD260800FB308631392603305C
:100C6000863154260D308631392603308631AD2643
:100C700008002C00BA0087311F2787312B272C0052
:100C80003A080000863147268731262708002400CD
:100C900091001419492E2400161F4E2E2400160808
:100CA0001F39031D4F2E08002C00BD0087311F2760
:100CB0002C00BD0886319F2686312400910014192E
:100CC0005F2E2400161F642E240016081F39031DF2
:100CD000652E2C003D08031186313D08003A0319AA
:100CE000812E86313D08013A0319842E86313D0854
:100CF000023A0319872E86313D08033A03198A2EDA
:100D000008002C0020088D2E2C0021088D2E2C0090
:100D100022088D2E2C0023088D2E8631A4268631A4
:100D2000240091001419922E2400161F972E2400DF
:100D300016081F39031D982E8731262708000B003F
:100D40006A346E346A346E340B0001340134013479
:100D5000013402340234023402342C00BD00031189
:100D600086313D08003A0319C52E86313D08013A07
:100D70000319C92E86313D08023A0319CD2E86315A
:100D80003D08033A0319D12E08002C002008BD00AD
:100D9000D52E2C002108BD00D52E2C002208BD0028
:100DA000D52E2C002308BD00D52E87311F272C00FF
:100DB000BD088631FC268631240091001419DE2EF0
:100DC0002400161FE32E240016081F39031DE42EED
:100DD0002C003D0887310527863124009100141925
:100DE000EF2E2400161FF42E240016081F39031DB1
:100DF000F52E8731262708000B006A346A346A34DE
:100E00006A346E346E346E346E340B000134023446
:100E100004340834013402340434083420000C163D
:100E2000080024002830950024008030940024001D
:100E30000130FF30920021008E150E1608002400AC
:100E400016141618212F20009111080024001615E1
:100E50001619282F08002400E030910014192E2FB5
:100E60002400161F332F240016081F39031D342FAA
:100E7000080023001513951315141308910A080090
:100E80000030B731C427BC316524BC318D242C001F
:100E90002008BB31EC23BC319224BC316F24BC311F
:100EA0008D242C002108BB31EC2308004030B731E1
:100EB000C427BC317924BC318D242C002208BB31DD
:100EC000EC23BC319224BC318324BC318D242C0012
:100ED0002308BB31EC23080020000C082C00A400E0
:100EE000251C762F2418080025100800241C080053
:100EF0002514A831C4208531D5258731080020006C
:100F00000C082C00A400A51C892FA4180800A5100B
:100F10000800A41C0800A514A831C4208531E125CF
:100F2000080020000C082C00A400251D9B2F24196C
:100F3000080025110800241D08002515A831C4202B
:100F40008531ED25080020000C082C00A400A51D0B
:100F5000AD2FA4190800A5110800A41D0800A515AF
:0A0F6000A831C4208531F9250800EE
:040F6A00003400341B
:020F6E002C0055
:100F7000C50103118731C427003A03190800BC31A9
:100F800099242C00C50AB72F45088731D027003A8D
:100F900003190800BC3199242C00C50A8731C42FDD
:100FA0000B004C346F347734203450346134733454
:100FB00073342034463469346C3474346534723498
:040FC00020340034A5
:0C0FC4000F3930382C00C200420EB7314B
:100FD0009D272C004208B7319D27B731B427080060
:101000000B002034323437342E34353400340B00A6
:101010002034323437342E34303400340B00203452
:10102000323436342E34353400340B00203432342C
:1010300036342E34303400340B002034323435341E
:101040002E34353400340B002034323435342E3411
:10105000303400340B002034323434342E34353400
:1010600000340B002034323434342E343034003425
:101070000B002034323433342E34353400340B003A
:101080002034323433342E34303400340B002034E6
:10109000323432342E34353400340B0020343234C0
:1010A00032342E34303400340B00203432343134B6
:1010B0002E34353400340B002034323431342E34A5
:1010C000303400340B002034323430342E34353494
:1010D00000340B002034323430342E3430340034B9
:1010E0000B002034313439342E34353400340B00C5
:1010F0002034313439342E34303400340B00203471
:10110000313438342E34353400340B00203431344B
:1011100038342E34303400340B002034313437343A
:101120002E34353400340B002034313437342E342F
:10113000303400340B002034313436342E3435341E
:1011400000340B002034313436342E343034003443
:101150000B002034313435342E34353400340B0058
:101160002034313435342E34303400340B00203404
:10117000313434342E34353400340B0020343134DF
:1011800034342E34303400340B00203431343334D2
:101190002E34353400340B002034313433342E34C3
:1011A000303400340B002034313432342E343534B2
:1011B00000340B002034313432342E3430340034D7
:1011C0000B002034313431342E34353400340B00EC
:1011D0002034313431342E34303400340B00203498
:1011E000313430342E34353400340B002034313473
:1011F00030342E34303400340B0020342034393471
:101200002E34353400340B002034203439342E345D
:10121000303400340B002034203438342E3435344C
:1012200000340B002034203438342E343034003471
:101230000B002034203437342E34353400340B0086
:101240002034203437342E34303400340B00203432
:10125000203436342E34353400340B00203420341E
:1012600036342E34303400340B00203420343534FE
:101270002E34353400340B002034203435342E34F1
:10128000303400340B002034203434342E343534E0
:1012900000340B002034203434342E343034003405
:1012A0000B002034203433342E34353400340B001A
:1012B0002034203433342E34303400340B002034C6
:1012C000203432342E34353400340B0020342034B2
:1012D00032342E34303400340B0020342034313496
:1012E0002E34353400340B002034203431342E3485
:1012F000303400340B002034203430342E34353474
:1013000000340B002034203430342E343034003498
:101310000B0020342D3430342E34353400340B009F
:1013200020342D3431342E34303400340B0020344A
:101330002D3431342E34353400340B0020342D3428
:1013400032342E34303400340B0020342D34323417
:101350002E34353400340B0020342D3433342E3405
:10136000303400340B0020342D3433342E343534F3
:1013700000340B0020342D3434342E343034003417
:101380000B0020342D3434342E34353400340B002B
:1013900020342D3435342E34303400340B002034D6
:1013A0002D3435342E34353400340B0020342D34B4
:1013B00036342E34303400340B0020342D3436349F
:1013C0002E34353400340B0020342D3437342E3491
:1013D000303400340B0020342D3437342E3435347F
:1013E00000340B0020342D3438342E3430340034A3
:1013F0000B0020342D3438342E34353400340B00B7
:1014000020342D3439342E34303400340B00203461
:101410002D3439342E34353400340B002D3431342E
:1014200030342E34303400340B002D343134303429
:101430002E34353400340B002D34313431342E3415
:10144000303400340B002D34313431342E34353403
:1014500000340B002D34313432342E343034003427
:101460000B002D34313432342E34353400340B003B
:101470002D34313433342E34303400340B002D34D9
:10148000313433342E34353400340B002D343134C0
:1014900034342E34303400340B002D3431343434B1
:1014A0002E34353400340B002D34313435342E34A1
:1014B000303400340B002D34313435342E3435348F
:1014C00000340B002D34313436342E3430340034B3
:1014D0000B002D34313436342E34353400340B00C7
:1014E0002D34313437342E34303400340B002D3465
:1014F000313437342E34353400340B002D3431344C
:1015000038342E34303400340B002D343134383438
:101510002E34353400340B002D34313439342E342C
:10152000303400340B002D34313439342E3435341A
:1015300000340B002D34323430342E343034003447
:101540000B002D34323430342E34353400340B005B
:101550002D34323431342E34303400340B002D34F9
:10156000323431342E34353400340B002D343234DF
:1015700032342E34303400340B002D3432343234D3
:101580002E34353400340B002D34323433342E34C1
:10159000303400340B002D34323433342E343534AF
:1015A00000340B002D34323434342E3430340034D3
:1015B0000B002D34323434342E34353400340B00E7
:1015C0002D34323435342E34303400340B002D3485
:1015D000323435342E34353400340B002D3432346B
:1015E00036342E34303400340B002D34323436345B
:1015F0002E34353400340B002D34323437342E344D
:10160000303400340B002D34323437342E3435343A
:1016100000340B002D34323438342E34303400345E
:101620000B002D34323438342E34353400340B0072
:101630002D34323439342E34303400340B002D3410
:10164000323439342E34353400340B002D343334F5
:1016500030342E34303400340B002D3433343034F5
:101660002E34353400340B002D34333431342E34E1
:10167000303400340B002D34333431342E343534CF
:1016800000340B002D34333432342E3430340034F3
:101690000B002D34333432342E34353400340B0007
:1016A0002D34333433342E34303400340B002D34A5
:1016B000333433342E34353400340B002D3433348A
:1016C00034342E34303400340B002D34333434347D
:1016D0002E34353400340B002D34333435342E346D
:1016E000303400340B002D34333435342E3435345B
:1016F00000340B002D34333436342E34303400347F
:101700000B002D34333436342E34353400340B0092
:101710002D34333437342E34303400340B002D3430
:10172000333437342E34353400340B002D34333415
:1017300038342E34303400340B002D343334383404
:101740002E34353400340B002D34333439342E34F8
:10175000303400340B002D34333439342E343534E6
:1017600000340B002D34343430342E343034003413
:101770000B002D34343430342E34353400340B0027
:101780002D34343431342E34303400340B002D34C5
:10179000343431342E34353400340B002D343434A9
:1017A00032342E34303400340B002D34343432349F
:1017B0002E34353400340B002D34343433342E348D
:1017C000303400340B002D34343433342E3435347B
:1017D00000340B002D34343434342E34303400349F
:1017E0000B002D34343434342E34353400340B00B3
:1017F0002D34343435342E34303400340B002D3451
:10180000343435342E34353400340B002D34343434
:1018100036342E34303400340B002D343434363426
:101820002E34353400340B002D34343437342E3418
:10183000303400340B002D34343437342E34353406
:1018400000340B002D34343438342E34303400342A
:101850000B002D34343438342E34353400340B003E
:101860002D34343439342E34303400340B002D34DC
:10187000343439342E34353400340B002D343534BF
:1018800030342E34303400340B002D3435343034C1
:101890002E34353400340B002D34353431342E34AD
:1018A000303400340B002D34353431342E3435349B
:1018B00000340B002D34353432342E3430340034BF
:1018C0000B002D34353432342E34353400340B00D3
:1018D0002D34353433342E34303400340B002D3471
:1018E000353433342E34353400340B002D34353454
:1018F00034342E34303400340B002D343534343449
:101900002E34353400340B002D34353435342E3438
:10191000303400340B002D34353435342E34353426
:1019200000340B002D34353436342E34303400344A
:101930000B002D34353436342E34353400340B005E
:101940002D34353437342E34303400340B002D34FC
:10195000353437342E34353400340B002D343534DF
:1019600038342E34303400340B002D3435343834D0
:101970002E34353400340B002D34353439342E34C4
:10198000303400340B002D34353439342E343534B2
:1019900000340B002D34363430342E3430340034DF
:1019A0000B002D34363430342E34353400340B00F3
:1019B0002D34363431342E34303400340B002D3491
:1019C000363431342E34353400340B002D34363473
:1019D00032342E34303400340B002D34363432346B
:1019E0002E34353400340B002D34363433342E3459
:1019F000303400340B002D34363433342E34353447
:101A000000340B002D34363434342E34303400346A
:101A10000B002D34363434342E34353400340B007E
:101A20002D34363435342E34303400340B002D341C
:101A3000363435342E34353400340B002D343634FE
:101A400036342E34303400340B002D3436343634F2
:101A50002E34353400340B002D34363437342E34E4
:101A6000303400340B002D34363437342E343534D2
:101A700000340B002D34363438342E3430340034F6
:101A80000B002D34363438342E34353400340B000A
:101A90002D34363439342E34303400340B002D34A8
:101AA000363439342E34353400340B002D34373489
:101AB00030342E34303400340B002D34373430348D
:101AC0002E34353400340B002D34373431342E3479
:101AD000303400340B002D34373431342E34353467
:101AE00000340B002D34373432342E34303400348B
:101AF0000B002D34373432342E34353400340B009F
:101B00002D34373433342E34303400340B002D343C
:101B1000373433342E34353400340B002D3437341D
:101B200034342E34303400340B002D343734343414
:101B30002E34353400340B002D34373435342E3404
:101B4000303400340B002D34373435342E343534F2
:101B500000340B002D34373436342E343034003416
:101B60000B002D34373436342E34353400340B002A
:101B70002D34373437342E34303400340B002D34C8
:101B8000373437342E34353400340B002D343734A9
:101B900038342E34303400340B002D34373438349C
:101BA0002E34353400340B002D34373439342E3490
:101BB000303400340B002D34373439342E3435347E
:101BC00000340B002D34383430342E3430340034AB
:101BD0000B002D34383430342E34353400340B00BF
:101BE0002D34383431342E34303400340B002D345D
:101BF000383431342E34353400340B002D3438343D
:101C000032342E34303400340B002D343834323436
:101C10002E34353400340B002D34383433342E3424
:101C2000303400340B002D34383433342E34353412
:101C300000340B002D34383434342E343034003436
:101C40000B002D34383434342E34353400340B004A
:101C50002D34383435342E34303400340B002D34E8
:101C6000383435342E34353400340B002D343834C8
:101C700036342E34303400340B002D3438343634BE
:101C80002E34353400340B002D34383437342E34B0
:101C9000303400340B002D34383437342E3435349E
:101CA00000340B002D34383438342E3430340034C2
:101CB0000B002D34383438342E34353400340B00D6
:101CC0002D34383439342E34303400340B002D3474
:101CD000383439342E34353400340B002D34393453
:101CE00030342E34303400340B002D343934303459
:101CF0002E34353400340B002D34393431342E3445
:101D0000303400340B002D34393431342E34353432
:101D100000340B002D34393432342E343034003456
:101D20000B002D34393432342E34353400340B006A
:101D30002D34393433342E34303400340B002D3408
:101D4000393433342E34353400340B002D343934E7
:101D500034342E34303400340B002D3439343434E0
:101D60002E34353400340B002D34393435342E34D0
:101D7000303400340B002D34393435342E343534BE
:101D800000340B002D34393436342E3430340034E2
:101D90000B002D34393436342E34353400340B00F6
:101DA0002D34393437342E34303400340B002D3494
:101DB000393437342E34353400340B002D34393473
:101DC00038342E34303400340B002D343934383468
:101DD0002E34353400340B002D34393439342E345C
:101DE000303400340B002D34393439342E3435344A
:101DF00000340B0020342D3431343034303400348E
:102000002C0043088B317223003A031908008731F2
:10201000E4272C00C30A9031002843088B31792330
:10202000003A031908008731E4272C00C30A9031D5
:102030000D2843088B318023003A031908008731AB
:10204000E4272C00C30A9031192843088B318723D9
:10205000003A031908008731E4272C00C30A9031A5
:10206000252843088B318E23003A03190800873155
:10207000E4272C00C30A9031312843088B31952383
:10208000003A031908008731E4272C00C30A903175
:102090003D2843088B319C23003A031908008731FF
:1020A000E4272C00C30A9031492843088B31A3232D
:1020B000003A031908008731E4272C00C30A903145
:1020C000552843088B31AA23003A031908008731A9
:1020D000E4272C00C30A9031612843088B31B123D7
:1020E000003A031908008731E4272C00C30A903115
:1020F0006D2843088B31B823003A03190800873153
:10210000E4272C00C30A9031792843088B31BF2380
:10211000003A031908008731E4272C00C30A9031E4
:10212000852843088B31C623003A031908008731FC
:10213000E4272C00C30A9031912843088B31CD232A
:10214000003A031908008731E4272C00C30A9031B4
:102150009D2843088B31D423003A031908008731A6
:10216000E4272C00C30A9031A92843088B31DB23D4
:10217000003A031908008731E4272C00C30A903184
:10218000B52843088B31E223003A03190800873150
:10219000E4272C00C30A9031C12843088B31E9237E
:1021A000003A031908008731E4272C00C30A903154
:1021B000CD2843088B31F023003A031908008731FA
:1021C000E4272C00C30A9031D92843088B31F72328
:1021D000003A031908008731E4272C00C30A903124
:1021E000E52843088B31FE23003A031908008731A4
:1021F000E4272C00C30A9031F12843088C310524D0
:10220000003A031908008731E4272C00C30A9031F3
:10221000FD2843088C310C24003A0319080087314B
:10222000E4272C00C30A9131092943088C31132477
:10223000003A031908008731E4272C00C30A9131C2
:10224000152943088C311A24003A031908008731F4
:10225000E4272C00C30A9131212943088C31212421
:10226000003A031908008731E4272C00C30A913192
:102270002D2943088C312824003A0319080087319E
:10228000E4272C00C30A9131392943088C312F24CB
:10229000003A031908008731E4272C00C30A913162
:1022A000452943088C313624003A03190800873148
:1022B000E4272C00C30A9131512943088C313D2475
:1022C000003A031908008731E4272C00C30A913132
:1022D0005D2943088C314424003A031908008731F2
:1022E000E4272C00C30A9131692943088C314B241F
:1022F000003A031908008731E4272C00C30A913102
:10230000752943088C315224003A0319080087319B
:10231000E4272C00C30A9131812943088C315924C8
:10232000003A031908008731E4272C00C30A9131D1
:102330008D2943088C316024003A03190800873145
:10234000E4272C00C30A9131992943088C31672472
:10235000003A031908008731E4272C00C30A9131A1
:10236000A52943088C316E24003A031908008731EF
:10237000E4272C00C30A9131B12943088C3175241C
:10238000003A031908008731E4272C00C30A913171
:10239000BD2943088C317C24003A03190800873199
:1023A000E4272C00C30A9131C92943088C318324C6
:1023B000003A031908008731E4272C00C30A913141
:1023C000D52943088C318A24003A03190800873143
:1023D000E4272C00C30A9131E12943088C31912470
:1023E000003A031908008731E4272C00C30A913111
:1023F000ED2943088C319824003A031908008731ED
:10240000E4272C00C30A9131F92943088C319F2419
:10241000003A031908008731E4272C00C30A9231DF
:10242000052A43088C31A624003A03190800873195
:10243000E4272C00C30A9231112A43088C31AD24C1
:10244000003A031908008731E4272C00C30A9231AF
:102450001D2A43088C31B424003A0319080087313F
:10246000E4272C00C30A9231292A43088C31BB246B
:10247000003A031908008731E4272C00C30A92317F
:10248000352A43088C31C224003A031908008731E9
:10249000E4272C00C30A9231412A43088C31C92415
:1024A000003A031908008731E4272C00C30A92314F
:1024B0004D2A43088C31D024003A03190800873193
:1024C000E4272C00C30A9231592A43088C31D724BF
:1024D000003A031908008731E4272C00C30A92311F
:1024E000652A43088C31DE24003A0319080087313D
:1024F000E4272C00C30A9231712A43088C31E52469
:10250000003A031908008731E4272C00C30A9231EE
:102510007D2A43088C31EC24003A031908008731E6
:10252000E4272C00C30A9231892A43088C31F32412
:10253000003A031908008731E4272C00C30A9231BE
:10254000952A43088C31FA24003A03190800873190
:10255000E4272C00C30A9231A12A43088D310125BA
:10256000003A031908008731E4272C00C30A92318E
:10257000AD2A43088D310825003A03190800873138
:10258000E4272C00C30A9231B92A43088D310F2564
:10259000003A031908008731E4272C00C30A92315E
:1025A000C52A43088D311625003A031908008731E2
:1025B000E4272C00C30A9231D12A43088D311D250E
:1025C000003A031908008731E4272C00C30A92312E
:1025D000DD2A43088D312425003A0319080087318C
:1025E000E4272C00C30A9231E92A43088D312B25B8
:1025F000003A031908008731E4272C00C30A9231FE
:10260000F52A43088D313225003A03190800873135
:10261000E4272C00C30A9331012B43088D3139255F
:10262000003A031908008731E4272C00C30A9331CC
:102630000D2B43088D314025003A031908008731DE
:10264000E4272C00C30A9331192B43088D31472509
:10265000003A031908008731E4272C00C30A93319C
:10266000252B43088D314E25003A03190800873188
:10267000E4272C00C30A9331312B43088D315525B3
:10268000003A031908008731E4272C00C30A93316C
:102690003D2B43088D315C25003A03190800873132
:1026A000E4272C00C30A9331492B43088D3163255D
:1026B000003A031908008731E4272C00C30A93313C
:1026C000552B43088D316A25003A031908008731DC
:1026D000E4272C00C30A9331612B43088D31712507
:1026E000003A031908008731E4272C00C30A93310C
:1026F0006D2B43088D317825003A03190800873186
:10270000E4272C00C30A9331792B43088D317F25B0
:10271000003A031908008731E4272C00C30A9331DB
:10272000852B43088D318625003A0319080087312F
:10273000E4272C00C30A9331912B43088D318D255A
:10274000003A031908008731E4272C00C30A9331AB
:102750009D2B43088D319425003A031908008731D9
:10276000E4272C00C30A9331A92B43088D319B2504
:10277000003A031908008731E4272C00C30A93317B
:10278000B52B43088D31A225003A03190800873183
:10279000E4272C00C30A9331C12B43088D31A925AE
:1027A000003A031908008731E4272C00C30A93314B
:1027B000CD2B43088D31B025003A0319080087312D
:1027C000E4272C00C30A9331D92B43088D31B72558
:1027D000003A031908008731E4272C00C30A93311B
:1027E000E52B43088D31BE25003A031908008731D7
:1027F000E4272C00C30A9331F12B43088D31C52502
:10280000003A031908008731E4272C00C30A9331EA
:10281000FD2B43088D31CC25003A03190800873180
:10282000E4272C00C30A9431092C43088D31D325A9
:10283000003A031908008731E4272C00C30A9431B9
:10284000152C43088D31DA25003A03190800873129
:10285000E4272C00C30A9431212C43088D31E12553
:10286000003A031908008731E4272C00C30A943189
:102870002D2C43088D31E825003A031908008731D3
:10288000E4272C00C30A9431392C43088D31EF25FD
:10289000003A031908008731E4272C00C30A943159
:1028A000452C43088D31F625003A0319080087317D
:1028B000E4272C00C30A9431512C43088D31FD25A7
:1028C000003A031908008731E4272C00C30A943129
:1028D0005D2C43088E310426003A03190800873125
:1028E000E4272C00C30A9431692C43088E310B264F
:1028F000003A031908008731E4272C00C30A9431F9
:10290000752C43088E311226003A031908008731CE
:10291000E4272C00C30A9431812C43088E311926F8
:10292000003A031908008731E4272C00C30A9431C8
:102930008D2C43088E312026003A03190800873178
:10294000E4272C00C30A9431992C43088E312726A2
:10295000003A031908008731E4272C00C30A943198
:10296000A52C43088E312E26003A03190800873122
:10297000E4272C00C30A9431B12C43088E3135264C
:10298000003A031908008731E4272C00C30A943168
:10299000BD2C43088E313C26003A031908008731CC
:1029A000E4272C00C30A9431C92C43088E314326F6
:1029B000003A031908008731E4272C00C30A943138
:1029C000D52C43088E314A26003A03190800873176
:1029D000E4272C00C30A9431E12C43088E315126A0
:1029E000003A031908008731E4272C00C30A943108
:1029F000ED2C43088E315826003A03190800873120
:102A0000E4272C00C30A9431F92C43088E315F2649
:102A1000003A031908008731E4272C00C30A9531D6
:102A2000052D43088E316626003A031908008731C8
:102A3000E4272C00C30A9531112D43088E316D26F1
:102A4000003A031908008731E4272C00C30A9531A6
:102A50001D2D43088E317426003A03190800873172
:102A6000E4272C00C30A9531292D43088E317B269B
:102A7000003A031908008731E4272C00C30A953176
:102A8000352D43088E318226003A0319080087311C
:102A9000E4272C00C30A9531412D43088E31892645
:102AA000003A031908008731E4272C00C30A953146
:102AB0004D2D43088E319026003A031908008731C6
:102AC000E4272C00C30A9531592D43088E319726EF
:102AD000003A031908008731E4272C00C30A953116
:102AE000652D43088E319E26003A03190800873170
:102AF000E4272C00C30A9531712D43088E31A52699
:102B0000003A031908008731E4272C00C30A9531E5
:102B10007D2D43088E31AC26003A03190800873119
:102B2000E4272C00C30A9531892D43088E31B32642
:102B3000003A031908008731E4272C00C30A9531B5
:102B4000952D43088E31BA26003A031908008731C3
:102B5000E4272C00C30A9531A12D43088E31C126EC
:102B6000003A031908008731E4272C00C30A953185
:102B7000AD2D43088E31C826003A0319080087316D
:102B8000E4272C00C30A9531B92D43088E31CF2696
:102B9000003A031908008731E4272C00C30A953155
:102BA000C52D43088E31D626003A03190800873117
:102BB000E4272C00C30A9531D12D43088E31DD2640
:102BC000003A031908008731E4272C00C30A953125
:102BD000DD2D43088E31E426003A031908008731C1
:102BE000E4272C00C30A9531E92D43088E31EB26EA
:102BF000003A031908008731E4272C00C30A9531F5
:102C0000F52D43088E31F226003A0319080087316A
:102C1000E4272C00C30A9631012E43088E31F92691
:102C2000003A031908008731E4272C00C30A9631C3
:022C30000D2E67
:10300000C50103114508B8310020003A0319080032
:103010008731E4272C00C50A983102284508B831C9
:103020000720003A031908008731E4272C00C50A5D
:1030300098310E284508B8310E20003A03190800CF
:103040008731E4272C00C50A98311A284508B83181
:103050001520003A031908008731E4272C00C50A1F
:10306000983126284508B8311C20003A0319080079
:103070008731E4272C00C50A983132284508B83139
:103080002320003A031908008731E4272C00C50AE1
:1030900098313E284508B8312A20003A0319080023
:1030A0008731E4272C00C50A98314A284508B831F1
:1030B0003120003A031908008731E4272C00C50AA3
:1030C000983156284508B8313820003A03190800CD
:1030D0008731E4272C00C50A983162284508B831A9
:1030E0003F20003A031908008731E4272C00C50A65
:1030F00098316E284508B8314620003A0319080077
:103100008731E4272C00C50A98317A284508B83160
:103110004D20003A031908008731E4272C00C50A26
:10312000983186284508B8315420003A0319080020
:103130008731E4272C00C50A983192284508B83118
:103140005B20003A031908008731E4272C00C50AE8
:1031500098319E284508B8316220003A03190800CA
:103160008731E4272C00C50A9831AA284508B831D0
:103170006920003A031908008731E4272C00C50AAA
:103180009831B6284508B8317020003A0319080074
:103190008731E4272C00C50A9831C2284508B83188
:1031A0007720003A031908008731E4272C00C50A6C
:1031B0009831CE284508B8317E20003A031908001E
:1031C0008731E4272C00C50A9831DA284508B83140
:1031D0008520003A031908008731E4272C00C50A2E
:1031E0009831E6284508B8318C20003A03190800C8
:1031F0008731E4272C00C50A9831F2284508B831F8
:103200009320003A031908008731E4272C00C50AEF
:103210009831FE284508B8319A20003A0319080071
:103220008731E4272C00C50A99310A294508B831AD
:10323000A120003A031908008731E4272C00C50AB1
:10324000993116294508B831A820003A0319080019
:103250008731E4272C00C50A993122294508B83165
:10326000AF20003A031908008731E4272C00C50A73
:1032700099312E294508B831B620003A03190800C3
:103280008731E4272C00C50A99313A294508B8311D
:10329000BD20003A031908008731E4272C00C50A35
:1032A000993146294508B831C420003A031908006D
:1032B0008731E4272C00C50A993152294508B831D5
:1032C000CB20003A031908008731E4272C00C50AF7
:1032D00099315E294508B831D220003A0319080017
:1032E0008731E4272C00C50A99316A294508B8318D
:1032F000D920003A031908008731E4272C00C50AB9
:10330000993176294508B831E020003A03190800C0
:103310008731E4272C00C50A993182294508B83144
:10332000E720003A031908008731E4272C00C50A7A
:1033300099318E294508B831EE20003A031908006A
:103340008731E4272C00C50A99319A294508B831FC
:10335000F520003A031908008731E4272C00C50A3C
:103360009931A6294508B831FC20003A0319080014
:103370008731E4272C00C50A9931B2294508B931B3
:103380000321003A031908008731E4272C00C50AFD
:103390009931BE294508B9310A21003A03190800BC
:1033A0008731E4272C00C50A9931CA294508B9316B
:1033B0001121003A031908008731E4272C00C50ABF
:1033C0009931D6294508B9311821003A0319080066
:1033D0008731E4272C00C50A9931E2294508B93123
:1033E0001F21003A031908008731E4272C00C50A81
:1033F0009931EE294508B9312621003A0319080010
:103400008731E4272C00C50A9931FA294508B931DA
:103410002D21003A031908008731E4272C00C50A42
:103420009A31062A4508B9313421003A03190800B7
:103430008731E4272C00C50A9A31122A4508B93190
:103440003B21003A031908008731E4272C00C50A04
:103450009A311E2A4508B9314221003A0319080061
:103460008731E4272C00C50A9A312A2A4508B93148
:103470004921003A031908008731E4272C00C50AC6
:103480009A31362A4508B9315021003A031908000B
:103490008731E4272C00C50A9A31422A4508B93100
:1034A0005721003A031908008731E4272C00C50A88
:1034B0009A314E2A4508B9315E21003A03190800B5
:1034C0008731E4272C00C50A9A315A2A4508B931B8
:1034D0006521003A031908008731E4272C00C50A4A
:1034E0009A31662A4508B9316C21003A031908005F
:1034F0008731E4272C00C50A9A31722A4508B93170
:103500007321003A031908008731E4272C00C50A0B
:103510009A317E2A4508B9317A21003A0319080008
:103520008731E4272C00C50A9A318A2A4508B93127
:103530008121003A031908008731E4272C00C50ACD
:103540009A31962A4508B9318821003A03190800B2
:103550008731E4272C00C50A9A31A22A4508B931DF
:103560008F21003A031908008731E4272C00C50A8F
:103570009A31AE2A4508B9319621003A031908005C
:103580008731E4272C00C50A9A31BA2A4508B93197
:103590009D21003A031908008731E4272C00C50A51
:1035A0009A31C62A4508B931A421003A0319080006
:1035B0008731E4272C00C50A9A31D22A4508B9314F
:1035C000AB21003A031908008731E4272C00C50A13
:1035D0009A31DE2A4508B931B221003A03190800B0
:1035E0008731E4272C00C50A9A31EA2A4508B93107
:1035F000B921003A031908008731E4272C00C50AD5
:103600009A31F62A4508B931C021003A0319080059
:103610008731E4272C00C50A9B31022B4508B931BC
:10362000C721003A031908008731E4272C00C50A96
:103630009B310E2B4508B931CE21003A0319080001
:103640008731E4272C00C50A9B311A2B4508B93174
:10365000D521003A031908008731E4272C00C50A58
:103660009B31262B4508B931DC21003A03190800AB
:103670008731E4272C00C50A9B31322B4508B9312C
:10368000E321003A031908008731E4272C00C50A1A
:103690009B313E2B4508B931EA21003A0319080055
:1036A0008731E4272C00C50A9B314A2B4508B931E4
:1036B000F121003A031908008731E4272C00C50ADC
:1036C0009B31562B4508B931F821003A03190800FF
:1036D0008731E4272C00C50A9B31622B4508B9319C
:1036E000FF21003A031908008731E4272C00C50A9E
:1036F0009B316E2B4508BA310622003A03190800A7
:103700008731E4272C00C50A9B317A2B4508BA3152
:103710000D22003A031908008731E4272C00C50A5E
:103720009B31862B4508BA311422003A0319080050
:103730008731E4272C00C50A9B31922B4508BA310A
:103740001B22003A031908008731E4272C00C50A20
:103750009B319E2B4508BA312222003A03190800FA
:103760008731E4272C00C50A9B31AA2B4508BA31C2
:103770002922003A031908008731E4272C00C50AE2
:103780009B31B62B4508BA313022003A03190800A4
:103790008731E4272C00C50A9B31C22B4508BA317A
:1037A0003722003A031908008731E4272C00C50AA4
:1037B0009B31CE2B4508BA313E22003A031908004E
:1037C0008731E4272C00C50A9B31DA2B4508BA3132
:1037D0004522003A031908008731E4272C00C50A66
:1037E0009B31E62B4508BA314C22003A03190800F8
:1037F0008731E4272C00C50A9B31F22B4508BA31EA
:103800005322003A031908008731E4272C00C50A27
:103810009B31FE2B4508BA315A22003A03190800A1
:103820008731E4272C00C50A9C310A2C4508BA319F
:103830006122003A031908008731E4272C00C50AE9
:103840009C31162C4508BA316822003A0319080049
:103850008731E4272C00C50A9C31222C4508BA3157
:103860006F22003A031908008731E4272C00C50AAB
:103870009C312E2C4508BA317622003A03190800F3
:103880008731E4272C00C50A9C313A2C4508BA310F
:103890007D22003A031908008731E4272C00C50A6D
:1038A0009C31462C4508BA318422003A031908009D
:1038B0008731E4272C00C50A9C31522C4508BA31C7
:1038C0008B22003A031908008731E4272C00C50A2F
:1038D0009C315E2C4508BA319222003A0319080047
:1038E0008731E4272C00C50A9C316A2C4508BA317F
:1038F0009922003A031908008731E4272C00C50AF1
:103900009C31762C4508BA31A022003A03190800F0
:103910008731E4272C00C50A9C31822C4508BA3136
:10392000A722003A031908008731E4272C00C50AB2
:103930009C318E2C4508BA31AE22003A031908009A
:103940008731E4272C00C50A9C319A2C4508BA31EE
:10395000B522003A031908008731E4272C00C50A74
:103960009C31A62C4508BA31BC22003A0319080044
:103970008731E4272C00C50A9C31B22C4508BA31A6
:10398000C322003A031908008731E4272C00C50A36
:103990009C31BE2C4508BA31CA22003A03190800EE
:1039A0008731E4272C00C50A9C31CA2C4508BA315E
:1039B000D122003A031908008731E4272C00C50AF8
:1039C0009C31D62C4508BA31D822003A0319080098
:1039D0008731E4272C00C50A9C31E22C4508BA3116
:1039E000DF22003A031908008731E4272C00C50ABA
:1039F0009C31EE2C4508BA31E622003A0319080042
:103A00008731E4272C00C50A9C31FA2C4508BA31CD
:103A1000ED22003A031908008731E4272C00C50A7B
:103A20009D31062D4508BA31F422003A03190800E9
:103A30008731E4272C00C50A9D31122D4508BA3183
:103A4000FB22003A031908008731E4272C00C50A3D
:103A50009D311E2D4508BB310223003A0319080091
:103A60008731E4272C00C50A9D312A2D4508BB313A
:103A70000923003A031908008731E4272C00C50AFE
:103A80009D31362D4508BB311023003A031908003B
:103A90008731E4272C00C50A9D31422D4508BB31F2
:103AA0001723003A031908008731E4272C00C50AC0
:103AB0009D314E2D4508BB311E23003A03190800E5
:103AC0008731E4272C00C50A9D315A2D4508BB31AA
:103AD0002523003A031908008731E4272C00C50A82
:103AE0009D31662D4508BB312C23003A031908008F
:103AF0008731E4272C00C50A9D31722D4508BB3162
:103B00003323003A031908008731E4272C00C50A43
:103B10009D317E2D4508BB313A23003A0319080038
:103B20008731E4272C00C50A9D318A2D4508BB3119
:103B30004123003A031908008731E4272C00C50A05
:103B40009D31962D4508BB314823003A03190800E2
:103B50008731E4272C00C50A9D31A22D4508BB31D1
:103B60004F23003A031908008731E4272C00C50AC7
:103B70009D31AE2D4508BB315623003A031908008C
:103B80008731E4272C00C50A9D31BA2D4508BB3189
:103B90005D23003A031908008731E4272C00C50A89
:103BA0009D31C62D4508BB316423003A0319080036
:103BB0008731E4272C00C50A9D31D22D4508BB3141
:103BC0006B23003A031908008731E4272C00C50A4B
:103BD0009D31DE2D4508BB317223003A03190800E0
:103BE0008731E4272C00C50A9D31EA2D4508BB31F9
:103BF0007923003A031908008731E4272C00C50A0D
:043C00009D31F62DCF
:10400000C3010311430888310020003A0319080056
:104010008731E4272C00C30AA031022843088831E5
:104020000720003A031908008731E4272C00C30A4F
:10403000A0310E28430888310E20003A03190800E9
:104040008731E4272C00C30AA0311A28430888319D
:104050001520003A031908008731E4272C00C30A11
:10406000A0312628430888311C20003A0319080093
:104070008731E4272C00C30AA03132284308883155
:104080002320003A031908008731E4272C00C30AD3
:10409000A0313E28430888312A20003A031908003D
:1040A0008731E4272C00C30AA0314A28430888310D
:1040B0003120003A031908008731E4272C00C30A95
:1040C000A0315628430888313820003A03190800E7
:1040D0008731E4272C00C30AA031622843088831C5
:1040E0003F20003A031908008731E4272C00C30A57
:1040F000A0316E28430888314620003A0319080091
:104100008731E4272C00C30AA0317A28430888317C
:104110004D20003A031908008731E4272C00C30A18
:10412000A0318628430888315420003A031908003A
:104130008731E4272C00C30AA03192284308883134
:104140005B20003A031908008731E4272C00C30ADA
:10415000A0319E28430888316220003A03190800E4
:104160008731E4272C00C30AA031AA2843088831EC
:104170006920003A031908008731E4272C00C30A9C
:10418000A031B628430888317020003A031908008E
:104190008731E4272C00C30AA031C22843088831A4
:1041A0007720003A031908008731E4272C00C30A5E
:1041B000A031CE28430888317E20003A0319080038
:1041C0008731E4272C00C30AA031DA28430888315C
:1041D0008520003A031908008731E4272C00C30A20
:1041E000A031E628430888318C20003A03190800E2
:1041F0008731E4272C00C30AA031F2284308883114
:104200009320003A031908008731E4272C00C30AE1
:10421000A031FE28430888319A20003A031908008B
:104220008731E4272C00C30AA1310A2943088831C9
:10423000A120003A031908008731E4272C00C30AA3
:10424000A131162943088831A820003A0319080033
:104250008731E4272C00C30AA13122294308883181
:10426000AF20003A031908008731E4272C00C30A65
:10427000A1312E2943088831B620003A03190800DD
:104280008731E4272C00C30AA1313A294308883139
:10429000BD20003A031908008731E4272C00C30A27
:1042A000A131462943088831C420003A0319080087
:1042B0008731E4272C00C30AA131522943088831F1
:1042C000CB20003A031908008731E4272C00C30AE9
:1042D000A1315E2943088831D220003A0319080031
:1042E0008731E4272C00C30AA1316A2943088831A9
:1042F000D920003A031908008731E4272C00C30AAB
:10430000A131762943088831E020003A03190800DA
:104310008731E4272C00C30AA13182294308883160
:10432000E720003A031908008731E4272C00C30A6C
:10433000A1318E2943088831EE20003A0319080084
:104340008731E4272C00C30AA1319A294308883118
:10435000F520003A031908008731E4272C00C30A2E
:10436000A131A62943088831FC20003A031908002E
:104370008731E4272C00C30AA131B22943088931CF
:104380000321003A031908008731E4272C00C30AEF
:10439000A131BE29430889310A21003A03190800D6
:1043A0008731E4272C00C30AA131CA294308893187
:1043B0001121003A031908008731E4272C00C30AB1
:1043C000A131D629430889311821003A0319080080
:1043D0008731E4272C00C30AA131E229430889313F
:1043E0001F21003A031908008731E4272C00C30A73
:1043F000A131EE29430889312621003A031908002A
:104400008731E4272C00C30AA131FA2943088931F6
:104410002D21003A031908008731E4272C00C30A34
:10442000A231062A430889313421003A03190800D1
:104430008731E4272C00C30AA231122A43088931AC
:104440003B21003A031908008731E4272C00C30AF6
:10445000A2311E2A430889314221003A031908007B
:104460008731E4272C00C30AA2312A2A4308893164
:104470004921003A031908008731E4272C00C30AB8
:10448000A231362A430889315021003A0319080025
:104490008731E4272C00C30AA231422A430889311C
:1044A0005721003A031908008731E4272C00C30A7A
:1044B000A2314E2A430889315E21003A03190800CF
:1044C0008731E4272C00C30AA2315A2A43088931D4
:1044D0006521003A031908008731E4272C00C30A3C
:1044E000A231662A430889316C21003A0319080079
:1044F0008731E4272C00C30AA231722A430889318C
:104500007321003A031908008731E4272C00C30AFD
:10451000A2317E2A430889317A21003A0319080022
:104520008731E4272C00C30AA2318A2A4308893143
:104530008121003A031908008731E4272C00C30ABF
:10454000A231962A430889318821003A03190800CC
:104550008731E4272C00C30AA231A22A43088931FB
:104560008F21003A031908008731E4272C00C30A81
:10457000A231AE2A430889319621003A0319080076
:104580008731E4272C00C30AA231BA2A43088931B3
:104590009D21003A031908008731E4272C00C30A43
:1045A000A231C62A43088931A421003A0319080020
:1045B0008731E4272C00C30AA231D22A430889316B
:1045C000AB21003A031908008731E4272C00C30A05
:1045D000A231DE2A43088931B221003A03190800CA
:1045E0008731E4272C00C30AA231EA2A4308893123
:1045F000B921003A031908008731E4272C00C30AC7
:10460000A231F62A43088931C021003A0319080073
:104610008731E4272C00C30AA331022B43088931D8
:10462000C721003A031908008731E4272C00C30A88
:10463000A3310E2B43088931CE21003A031908001B
:104640008731E4272C00C30AA3311A2B4308893190
:10465000D521003A031908008731E4272C00C30A4A
:10466000A331262B43088931DC21003A03190800C5
:104670008731E4272C00C30AA331322B4308893148
:10468000E321003A031908008731E4272C00C30A0C
:10469000A3313E2B43088931EA21003A031908006F
:1046A0008731E4272C00C30AA3314A2B4308893100
:1046B000F121003A031908008731E4272C00C30ACE
:1046C000A331562B43088931F821003A0319080019
:1046D0008731E4272C00C30AA331622B43088931B8
:1046E000FF21003A031908008731E4272C00C30A90
:1046F000A3316E2B43088A310622003A03190800C1
:104700008731E4272C00C30AA3317A2B43088A316E
:104710000D22003A031908008731E4272C00C30A50
:10472000A331862B43088A311422003A031908006A
:104730008731E4272C00C30AA331922B43088A3126
:104740001B22003A031908008731E4272C00C30A12
:10475000A3319E2B43088A312222003A0319080014
:104760008731E4272C00C30AA331AA2B43088A31DE
:104770002922003A031908008731E4272C00C30AD4
:10478000A331B62B43088A313022003A03190800BE
:104790008731E4272C00C30AA331C22B43088A3196
:1047A0003722003A031908008731E4272C00C30A96
:1047B000A331CE2B43088A313E22003A0319080068
:1047C0008731E4272C00C30AA331DA2B43088A314E
:1047D0004522003A031908008731E4272C00C30A58
:1047E000A331E62B43088A314C22003A0319080012
:1047F0008731E4272C00C30AA331F22B43088A3106
:104800005322003A031908008731E4272C00C30A19
:10481000A331FE2B43088A315A22003A03190800BB
:104820008731E4272C00C30AA4310A2C43088A31BB
:104830006122003A031908008731E4272C00C30ADB
:10484000A431162C43088A316822003A0319080063
:104850008731E4272C00C30AA431222C43088A3173
:104860006F22003A031908008731E4272C00C30A9D
:10487000A4312E2C43088A317622003A031908000D
:104880008731E4272C00C30AA4313A2C43088A312B
:104890007D22003A031908008731E4272C00C30A5F
:1048A000A431462C43088A318422003A03190800B7
:1048B0008731E4272C00C30AA431522C43088A31E3
:1048C0008B22003A031908008731E4272C00C30A21
:1048D000A4315E2C43088A319222003A0319080061
:1048E0008731E4272C00C30AA4316A2C43088A319B
:1048F0009922003A031908008731E4272C00C30AE3
:10490000A431762C43088A31A022003A031908000A
:104910008731E4272C00C30AA431822C43088A3152
:10492000A722003A031908008731E4272C00C30AA4
:10493000A4318E2C43088A31AE22003A03190800B4
:104940008731E4272C00C30AA4319A2C43088A310A
:10495000B522003A031908008731E4272C00C30A66
:10496000A431A62C43088A31BC22003A031908005E
:104970008731E4272C00C30AA431B22C43088A31C2
:10498000C322003A031908008731E4272C00C30A28
:10499000A431BE2C43088A31CA22003A0319080008
:1049A0008731E4272C00C30AA431CA2C43088A317A
:1049B000D122003A031908008731E4272C00C30AEA
:1049C000A431D62C43088A31D822003A03190800B2
:1049D0008731E4272C00C30AA431E22C43088A3132
:1049E000DF22003A031908008731E4272C00C30AAC
:1049F000A431EE2C43088A31E622003A031908005C
:104A00008731E4272C00C30AA431FA2C43088A31E9
:104A1000ED22003A031908008731E4272C00C30A6D
:104A2000A531062D43088A31F422003A0319080003
:104A30008731E4272C00C30AA531122D43088A319F
:104A4000FB22003A031908008731E4272C00C30A2F
:104A5000A5311E2D43088B310223003A03190800AB
:104A60008731E4272C00C30AA5312A2D43088B3156
:104A70000923003A031908008731E4272C00C30AF0
:104A8000A531362D43088B311023003A0319080055
:104A90008731E4272C00C30AA531422D43088B310E
:104AA0001723003A031908008731E4272C00C30AB2
:104AB000A5314E2D43088B311E23003A03190800FF
:104AC0008731E4272C00C30AA5315A2D43088B31C6
:104AD0002523003A031908008731E4272C00C30A74
:104AE000A531662D43088B312C23003A03190800A9
:104AF0008731E4272C00C30AA531722D43088B317E
:104B00003323003A031908008731E4272C00C30A35
:104B1000A5317E2D43088B313A23003A0319080052
:104B20008731E4272C00C30AA5318A2D43088B3135
:104B30004123003A031908008731E4272C00C30AF7
:104B4000A531962D43088B314823003A03190800FC
:104B50008731E4272C00C30AA531A22D43088B31ED
:104B60004F23003A031908008731E4272C00C30AB9
:104B7000A531AE2D43088B315623003A03190800A6
:104B80008731E4272C00C30AA531BA2D43088B31A5
:104B90005D23003A031908008731E4272C00C30A7B
:104BA000A531C62D43088B316423003A0319080050
:104BB0008731E4272C00C30AA531D22D43088B315D
:104BC0006B23003A031908008731E4272C00C30A3D
:044BD000A531DE2D00
:105000002C00200823009300003091001513951305
:1050100015158B1355309600AA30960095148B17F2
:1050200015119518102808002C0021082300930062
:10503000013091001513951315158B1355309600FB
:10504000AA30960095148B1715119518242808007E
:105050002C002208230093000230910015139513B1
:1050600015158B1355309600AA30960095148B17A2
:1050700015119518382808002C00230823009300E8
:10508000033091001513951315158B1355309600A9
:10509000AA30960095148B17151195184C28080006
:1050A0002000FE309B00200007309C00250080304F
:1050B000910025003C30930021000E1108002000D3
:1050C0001E10210095129511151495141515250023
:1050D000FF309100200095012C00A801AB01AC012C
:1050E000AD01AE010800A8317A202C00291BA8319F
:1050F0009E20080020000B1D7E280B112C00AB0AFF
:105100002C0003112B08FF3A031D8828AC0AAB01C1
:1051100003112C08013A031D8F28AD0AAC010311BD
:105120002D083C3A031D9628AE0AAD012C00031150
:105130002E08013A03192C002917080003112C002E
:105140002E08023A031DA828803025009100C328AC
:105150002C002E08033A031DB12840302500910091
:10516000C3282C002E08043A031DBA28203025003D
:105170009100C3282C002E08053A031DC3281030C7
:1051800025009100C32808002C002913AE0125003A
:10519000DF30910008002C00BB000030863139263A
:1051A000A831D520A831E620080087311F272C0020
:1051B0003B08240091001419DB282400161FE02866
:1051C000240016081F39031DE12808002C002F08B1
:1051D000240091001419EA282400161FEF28240047
:1051E00016081F39031DF0282C002F0824009100F9
:1051F0001419F8282400161FFD28240016081F394A
:10520000031DFE2887312627080020000E082C00E9
:10521000A4002C00251E12292C00241808002C00A4
:10522000251208002C00241C08002C002516A8318B
:10523000C4202C00381F1E29381B202938170800CD
:1052400038130800B7310030C427BC316524BC31A5
:105250008D242C003008B0310020AA314322BC310B
:105260006F24BC318D242C003108B031002008009F
:10527000B7314030C427BC317924BC318D242C0097
:105280003208B0310020AA315222BC318324BC3113
:105290008D242C003308B0310020080020000E08B7
:1052A0002C00A4002C00A51E5B292C00A4180800CB
:1052B0002C00A51208002C00A41C08002C00A51628
:1052C000A831C4202C00B81F6729B81B6929B8175A
:1052D0000800B81308000800B7310030C427BC31FB
:1052E0006524BC318D242C003408B5310525AA3144
:1052F0004322BC316F24BC318D242C003508B531DC
:1053000005250800B7314030C427BC317924BC31B1
:105310008D242C003608B5310525AA315222BC3126
:105320008324BC318D242C003708B53105250800B5
:1053300020000C082C00A4002C00251CA5292C0002
:10534000241808002C00251008002C00241C08003C
:105350002C002514A831C4202C00381CB129381881
:10536000B329381408003810080020000C082C005D
:10537000A4002C00A51CC2292C00A41808002C0095
:10538000A51008002C00A41C08002C00A514A831AE
:10539000C4202C00B81CCE29B818D029B814080095
:1053A000B810080020000C082C00A4002C00251DBB
:1053B000DF292C00241908002C00251108002C00DE
:1053C000241D08002C002515A831C4202C00381DF0
:1053D000EB293819ED29381508003811080020008C
:1053E0000C082C00A4002C00A51DFC292C00A419DD
:1053F00008002C00A51108002C00A41D08002C009A
:10540000A515A831C4202C00B81D082AB8190A2AED
:10541000B8150800B8110800A8317320A93122215D
:10542000A9313821AA313A22AA316122AA31A02217
:105430008031E5202C0038080F390311003A031998
:105440000800AA310C2AA8317320A9316C21A93196
:105450008221AA313A22AA316122AA31A0228031C6
:10546000E5202C0038080F390311003A0319080011
:10547000AA31232AA9319821A931B521A931D221F4
:10548000A931EF2108002C00381C7C3038182A3054
:105490008731E4272C00B81C7C30B8182A308731BB
:1054A000E42708002C00381D7C3038192A30873159
:1054B000E4272C00B81D7C30B8192A308731E42746
:1054C000080020000E082C00A4002C00251F6E2AC6
:1054D0002C00241808002C00251308002C00241C84
:1054E00008002C002517A831C420AA312C00381B35
:1054F0007E22AA312C00B81B8F220800AA312C0072
:105500003818DF22AA312C00B818EE22AA312C005C
:105510003819FD22AB312C00B8190C230800AB312F
:105520002C003818A723AB312C00B818B623AB31A8
:105530002C003819C523AB312C00B819D42308002E
:1055400020000E082C00A4002C00A51FAD2A2C0062
:10555000A41808002C00A51308002C00A41C0800A7
:105560002C00A517A831C420AA312C00381BBD225D
:10557000AA312C00B81BCE220800AB312C00381801
:105580001B23AB312C00B8182A23AB312C0038195F
:105590003923AB312C00B81948230800AB312C005B
:1055A0003818E323AB312C00B818F223AC312C00AF
:1055B00038190124AC312C00B81910240800A83186
:1055C000C4202C0003113008003A03190800B0036E
:1055D0000030AD313B25AB3157230800A831C42042
:1055E0002C0003113108003A03190800B1030130FF
:1055F000AD313B25AB316B230800A831C4202C0012
:1056000003113208003A03190800B2030230AD3129
:105610003B25AB317F230800A831C4202C000311A7
:105620003308003A03190800B3030330AD313B25BA
:10563000AB3193230800A831C4202C00031130089B
:10564000FF3A03190800B00A0030AD313B25AB31F9
:1056500057230800A831C4202C0003113108FF3A59
:1056600003190800B10A0130AD313B25AB316B2382
:105670000800A831C4202C0003113208FF3A031996
:105680000800B20A0230AD313B25AB317F23080060
:10569000A831C4202C0003113308FF3A0319080075
:1056A000B30A0330AD313B25AB31932308002C0006
:1056B000300823009300043091001513951315153D
:1056C0008B1355309600AA30960095148B17151140
:1056D0009518672B08002C00310823009300053033
:1056E00091001513951315158B1355309600AA309C
:1056F000960095148B17151195187B2B08002C001C
:1057000032082300930006309100151395131515E8
:105710008B1355309600AA30960095148B171511EF
:1057200095188F2B08002C003308230093000730B6
:1057300091001513951315158B1355309600AA304B
:10574000960095148B1715119518A32B0800A831F6
:10575000C4202C00031134087F3A03190800B40A4E
:105760000030AC31C224AC311F240800A831C42061
:105770002C00031135087F3A03190800B50A0130DF
:10578000AC31C224AC3133240800A831C4202C0031
:10579000031136087F3A03190800B60A0230AC310B
:1057A000C224AC3147240800A831C4202C000311C6
:1057B00037087F3A03190800B70A0330AC31C22416
:1057C000AC315B240800A831C4202C00031134083C
:1057D000003A03190800B4030030AC31C224AC31E4
:1057E0001F240800A831C4202C0003113508003AFA
:1057F00003190800B5030130AC31C224AC313324A5
:105800000800A831C4202C0003113608003A0319FF
:105810000800B6030230AC31C224AC314724080082
:10582000A831C4202C0003113708003A03190800DE
:10583000B7030330AC31C224AC315B2408002C0028
:1058400034082300930008309100151395131515A3
:105850008B1355309600AA30960095148B171511AE
:1058600095182F2C08002C003508230093000930D0
:1058700091001513951315158B1355309600AA300A
:10588000960095148B1715119518432C08002C00C1
:105890003608230093000A3091001513951315154F
:1058A0008B1355309600AA30960095148B1715115E
:1058B0009518572C08002C003708230093000B3054
:1058C00091001513951315158B1355309600AA30BA
:1058D000960095148B17151195186B2C0800BC3188
:1058E0009F2447309924E42400307425DA242C00C6
:1058F00030089924E42401307425DA242C0031087E
:105900009924E42402307425DA242C0032089924E6
:10591000E42403307425DA242C0033089924E42489
:105920009F240800BC319F2446309924E424003091
:105930007425DA242C0034089924E42401307425D9
:10594000DA242C0035089924E42402307425DA2462
:105950002C0036089924E42403307425DA242C0022
:1059600037089924E4249F2408000030AC31C22475
:105970000130AC31C2240230AC31C2240330AC312E
:10598000C22408002C00BD00AD3114252C00BC0041
:105990002C00AF004E30A831CB20AC312C003D089C
:1059A0000311AC313D08003A0319E62CAC313D0837
:1059B000013A0319E92CAC313D08023A0319EC2CE9
:1059C000AC313D08033A0319EF2C08002C003408D1
:1059D000F22C2C003508F22C2C003608F22C2C006E
:1059E0003708F22C2C00AF004630A831CB20AC3168
:1059F0002C003C082C00AF001030AF064E30A83110
:105A0000CB20AC312C001030AF064E30A831CB206B
:105A1000AC312C003D08AD3119252C00AF004E30C3
:105A2000A831CB20AC3108000B003E341E343D348D
:105A30001D340B003F341F343F341F34000000007E
:105A40000030AD313B2500000000000000000130B7
:105A5000AD313B2500000000000000000230AD31F8
:105A60003B2500000000000000000330AD313B2565
:105A70000000000008002C00BD000311AD313D08FE
:105A8000003A0319532DAD313D08013A0319562D43
:105A9000AD313D08023A0319592DAD313D08033AA5
:105AA00003195C2D08002C0030085F2D2C003108F4
:105AB0005F2D2C0032085F2D2C0033085F2D2C0049
:105AC000BF002C00BC00BC36BC36BC36BC363C0823
:105AD0002C00C0002030C0072C003F082C00BC0068
:105AE000BC35BC35BC35BC353C082C00C100003091
:105AF0008631392687311F272C003D08AD31BB2563
:105B0000240091001419822D2400161F872D2400D3
:105B100016081F39031D882D2C003D08AD31C02506
:105B2000240091001419922D2400161F972D240093
:105B300016081F39031D982D2C00400824009100E1
:105B40001419A02D2400161FA52D240016081F3996
:105B5000031DA62D2C004108240091001419AE2D20
:105B60002400161FB32D240016081F39031DB42D61
:105B70008731262708000B001A341A3418341834D9
:0A5B80000B0001340234013402343A
:106000002C00C400C3010311A0314408003A031955
:106010000028A0314408013A03190E28A031440891
:10602000023A03191A28A0314408033A0319262812
:10603000A0314408043A03193228A0314408053A33
:1060400003193E28A0314408063A03194A28A03112
:106050004408073A03195628A0314408083A03199E
:106060006228A0314408093A03196E28A031440877
:106070000A3A03197A28A03144080B3A03198628F2
:10608000A03144080C3A03199228A03144080D3A73
:1060900003199E28A03144080E3A0319AA28A031FA
:1060A00044080F3A0319B628A0314408103A0319DE
:1060B000C228A0314408113A0319CE28A03144085F
:1060C000123A0319DA28A0314408133A0319E628D2
:1060D000A0314408143A0319F228A0314408153AB3
:1060E0000319FE28A1314408163A03190A29A131DF
:1060F0004408173A03191629A1314408183A03191C
:106100002229A1314408193A03192E29A131440842
:106110001A3A03193A29A13144081B3A03194629AE
:10612000A13144081C3A03195229A13144081D3AEF
:1061300003195E29A13144081E3A03196A29A131C5
:1061400044081F3A03197629A1314408203A03195B
:106150008229A1314408213A03198E29A13144082A
:10616000223A03199A29A1314408233A0319A6298E
:10617000A1314408243A0319B229A1314408253A2F
:106180000319BE29A1314408263A0319CA29A131AD
:106190004408273A0319D629A1314408283A03199B
:1061A000E229A1314408293A0319EE29A131440812
:1061B0002A3A0319FA29A23144082B3A0319062A6C
:1061C000A23144082C3A0319122AA23144082D3A6C
:1061D00003191E2AA23144082E3A03192A2AA23191
:1061E00044082F3A0319362AA2314408303A0319D9
:1061F000422AA2314408313A03194E2AA2314408F6
:10620000323A03195A2AA2314408333A0319662A4A
:10621000A2314408343A0319722AA2314408353AAB
:1062200003197E2AA2314408363A03198A2AA23178
:106230004408373A0319962AA2314408383A031918
:10624000A22AA2314408393A0319AE2AA2314408DD
:106250003A3A0319BA2AA23144083B3A0319C62A2A
:10626000A23144083C3A0319D22AA23144083D3AEB
:106270000319DE2AA23144083E3A0319EA2AA23160
:1062800044083F3A0319F62AA3314408403A031957
:10629000022BA3314408413A03190E2BA3314408C1
:1062A000423A03191A2BA3314408433A0319262B07
:1062B000A3314408443A0319322BA3314408453A28
:1062C00003193E2BA3314408463A03194A2BA33144
:1062D0004408473A0319562BA3314408483A031996
:1062E000622BA3314408493A03196E2BA3314408A9
:1062F0004A3A03197A2BA33144084B3A0319862BE7
:10630000A33144084C3A0319922BA33144084D3A67
:1063100003199E2BA33144084E3A0319AA2BA3312B
:1063200044084F3A0319B62BA3314408503A0319D5
:10633000C22BA3314408513A0319CE2BA331440890
:10634000523A0319DA2BA3314408533A0319E62BC6
:10635000A3314408543A0319F22BA3314408553AA7
:106360000319FE2BA4314408563A03190A2CA43110
:106370004408573A0319162CA4314408583A031913
:10638000222CA4314408593A03192E2CA431440874
:106390005A3A03193A2CA43144085B3A0319462CA3
:1063A000A43144085C3A0319522CA43144085D3AE4
:1063B00003195E2CA43144085E3A03196A2CA431F7
:1063C00044085F3A0319762CA4314408603A031953
:1063D000822CA4314408613A03198E2CA43144085C
:1063E000623A03199A2CA4314408633A0319A62C83
:1063F000A4314408643A0319B22CA4314408653A24
:106400000319BE2CA4314408663A0319CA2CA431DE
:106410004408673A0319D62CA4314408683A031992
:10642000E22CA4314408693A0319EE2CA431440843
:106430006A3A0319FA2CA53144086B3A0319062D60
:10644000A53144086C3A0319122DA53144086D3A60
:1064500003191E2DA53144086E3A03192A2DA531C2
:1064600044086F3A0319362DA5314408703A0319D0
:10647000422DA5314408713A03194E2DA531440827
:10648000723A03195A2DA5314408733A0319662D3F
:10649000A5314408743A0319722DA5314408753AA0
:1064A00003197E2DA5314408763A03198A2DA531AA
:1064B0004408773A0319962DA5314408783A031910
:1064C000A22DA5314408793A0319AE2DA53144080F
:1064D0007A3A0319BA2DA53144087B3A0319C62D1F
:1064E000A53144087C3A0319D22DA53144087D3AE0
:1064F0000319DE2D903144087E3A031900289031AB
:1065000044087F3A03190D2890314408803A031952
:10651000192890314408813A0319252890314408FC
:10652000823A0319312890314408833A03193D28EF
:1065300090314408843A0319492890314408853A37
:106540000319552890314408863A0319612890317F
:106550004408873A03196D2890314408883A031992
:10656000792890314408893A0319852890314408E4
:106570008A3A03199128903144088B3A03199D28CF
:10658000903144088C3A0319A928903144088D3A77
:106590000319B528903144088E3A0319C128903167
:1065A00044088F3A0319CD2890314408903A0319D2
:1065B000D92890314408913A0319E52890314408CC
:1065C000923A0319F12890314408933A0319FD28AF
:1065D00091314408943A0319092991314408953AB4
:1065E0000319152991314408963A0319212991314B
:1065F0004408973A03192D2991314408983A031910
:10660000392991314408993A0319452991314408AF
:106610009A3A03195129913144089B3A03195D298B
:10662000913144089C3A03196929913144089D3AF3
:1066300003197529913144089E3A03198129913132
:1066400044089F3A03198D2991314408A03A03194F
:10665000992991314408A13A0319A5299131440897
:10666000A23A0319B12991314408A33A0319BD296B
:1066700091314408A43A0319C92991314408A53A33
:106680000319D52991314408A63A0319E12991311A
:106690004408A73A0319ED2991314408A83A03198F
:1066A000F92992314408A93A0319052A923144087C
:1066B000AA3A0319112A92314408AB3A03191D2A48
:1066C00092314408AC3A0319292A92314408AD3A70
:1066D0000319352A92314408AE3A0319412A9231FE
:1066E0004408AF3A03194D2A92314408B03A0319CD
:1066F000592A92314408B13A0319652A9231440863
:10670000B23A0319712A92314408B33A03197D2A27
:1067100092314408B43A0319892A92314408B53AAF
:106720000319952A92314408B63A0319A12A9231E5
:106730004408B73A0319AD2A92314408B83A03190C
:10674000B92A92314408B93A0319C52A923144084A
:10675000BA3A0319D12A92314408BB3A0319DD2A07
:1067600092314408BC3A0319E92A92314408BD3AEF
:106770000319F52A93314408BE3A0319012B9331CA
:106780004408BF3A03190D2B93314408C03A03194A
:10679000192B93314408C13A0319252B933144082E
:1067A000C23A0319312B93314408C33A03193D2BE4
:1067B00093314408C43A0319492B93314408C53A2C
:1067C0000319552B93314408C63A0319612B9331B1
:1067D0004408C73A03196D2B93314408C83A03198A
:1067E000792B93314408C93A0319852B9331440816
:1067F000CA3A0319912B93314408CB3A03199D2BC4
:1068000093314408CC3A0319A92B93314408CD3A6B
:106810000319B52B93314408CE3A0319C12B933198
:106820004408CF3A0319CD2B93314408D03A0319C9
:10683000D92B93314408D13A0319E52B93314408FD
:10684000D23A0319F12B93314408D33A0319FD2BA3
:1068500094314408D43A0319092C94314408D53AA8
:106860000319152C94314408D63A0319212C94317C
:106870004408D73A03192D2C94314408D83A031907
:10688000392C94314408D93A0319452C94314408E1
:10689000DA3A0319512C94314408DB3A03195D2C80
:1068A00094314408DC3A0319692C94314408DD3AE8
:1068B0000319752C94314408DE3A0319812C943164
:1068C0004408DF3A03198D2C94314408E03A031947
:1068D000992C94314408E13A0319A52C94314408C9
:1068E000E23A0319B12C94314408E33A0319BD2C60
:1068F00094314408E43A0319C92C94314408E53A28
:106900000319D52C94314408E63A0319E12C94314B
:106910004408E73A0319ED2C94314408E83A031986
:10692000F92C95314408E93A0319052D95314408AD
:10693000EA3A0319112D95314408EB3A03191D2D3C
:1069400095314408EC3A0319292D95314408ED3A64
:106950000319352D95314408EE3A0319412D95312F
:106960004408EF3A03194D2D95314408F03A0319C4
:10697000592D95314408F13A0319652D9531440894
:10698000F23A0319712D95314408F33A03197D2D1C
:1069900095314408F43A0319892D95314408F53AA4
:1069A0000319952D95314408F63A0319A12D953117
:1069B0004408F73A0319AD2D95314408F83A031904
:1069C000B92D95314408F93A0319C52D953144087C
:1069D000FA3A0319D12D95314408FB3A0319DD2DFC
:1069E00095314408FC3A0319E92D95314408FD3AE4
:1069F0000319F52D96314408FE3A0319012E9631FC
:0A6A00004408FF3A03190D2E0800A8
:066A0A002C00C600C501CE
:106A1000031198314608003A0319022898314608B4
:106A2000013A03190E2898314608023A03191A2828
:106A300098314608033A0319262898314608043A43
:106A40000319322898314608053A03193E2898312F
:106A50004608063A03194A2898314608073A0319A6
:106A6000562898314608083A031962289831460892
:106A7000093A03196E28983146080A3A03197A2808
:106A8000983146080B3A03198628983146080C3A83
:106A900003199228983146080D3A03199E28983117
:106AA00046080E3A0319AA28983146080F3A0319E6
:106AB000B62898314608103A0319C228983146087A
:106AC000113A0319CE2898314608123A0319DA28E8
:106AD00098314608133A0319E62898314608143AC3
:106AE0000319F22898314608153A0319FE289931FE
:106AF0004608163A03190A2999314608173A031924
:106B0000162999314608183A03192229993146085D
:106B1000193A03192E29993146081A3A03193A29C4
:106B2000993146081B3A03194629993146081C3AFF
:106B300003195229993146081D3A03195E299931E2
:106B400046081E3A03196A29993146081F3A031963
:106B5000762999314608203A031982299931460845
:106B6000213A03198E2999314608223A03199A29A4
:106B700099314608233A0319A62999314608243A3F
:106B80000319B22999314608253A0319BE299931CA
:106B90004608263A0319CA2999314608273A0319A3
:106BA000D62999314608283A0319E229993146082D
:106BB000293A0319EE29993146082A3A0319FA2984
:106BC0009A3146082B3A0319062A9A3146082C3A7C
:106BD0000319122A9A3146082D3A03191E2A9A31AE
:106BE00046082E3A03192A2A9A3146082F3A0319E1
:106BF000362A9A314608303A0319422A9A31460811
:106C0000313A03194E2A9A314608323A03195A2A60
:106C10009A314608333A0319662A9A314608343ABB
:106C20000319722A9A314608353A03197E2A9A3195
:106C30004608363A03198A2A9A314608373A031920
:106C4000962A9A314608383A0319A22A9A314608F8
:106C5000393A0319AE2A9A3146083A3A0319BA2A40
:106C60009A3146083B3A0319C62A9A3146083C3AFB
:106C70000319D22A9A3146083D3A0319DE2A9A317D
:106C800046083E3A0319EA2A9A3146083F3A031960
:106C9000F62A9B314608403A0319022B9B314608DD
:106CA000413A03190E2B9B314608423A03191A2B1D
:106CB0009B314608433A0319262B9B314608443A38
:106CC0000319322B9B314608453A03193E2B9B3161
:106CD0004608463A03194A2B9B314608473A03199E
:106CE000562B9B314608483A0319622B9B314608C4
:106CF000493A03196E2B9B3146084A3A03197A2BFD
:106D00009B3146084B3A0319862B9B3146084C3A77
:106D10000319922B9B3146084D3A03199E2B9B3148
:106D200046084E3A0319AA2B9B3146084F3A0319DD
:106D3000B62B9B314608503A0319C22B9B314608AB
:106D4000513A0319CE2B9B314608523A0319DA2BDC
