:020000040000FA
:1000000080318A01032821006830990021001A1CE0
:10001000072822009D0120008C0122008C01230072
:100020008C0121000F308C0020008D0122008D01F9
:1000300023008D0121008D0120008E0122008D0101
:100040002100BF308E004820C220C8203021A000EF
:100050003021A1003021A2003021A300CD2238217F
:1000600044210F30A500BD205021642177218A2131
:10007000200038214421A8015920A8188C202819D3
:100080009420A8199F20281AA920A81AB320342840
:1000900021000E138E1723009F15230019309B009B
:1000A00023009E161E121E1123009D171D131D16E0
:1000B000A8012000911E080023009D188528230018
:1000C0001D19892823001908A60003112608643A7F
:1000D00003197B2826086C3A03197D282608723AF2
:1000E00003197F282608313A031981282608323A55
:1000F000031983280800A814080028150800A8156B
:10010000080028160800A816080023001D121D1656
:1001100008002300190808002000111E8D28443013
:1001200023009A00A81008002000A00A031120084C
:10013000083A0319A001BD209D21281108002000C4
:10014000A10A03112108083A0319A101B121A8113C
:1001500008002000A20A03112208083A0319A2018C
:10016000C521281208002000A30A03112308083A19
:100170000319A301D921A8120800D620DD20EB2005
:10018000F820080020000C168C160C178C1708009D
:100190002400283095002400803094002400013091
:1001A000FF30920021008E150E1608002400161450
:1001B0001618D828200091110800240098309100CA
:1001C0001419E0282400161FE528240016081F39FA
:1001D000031DE628080020002008FD2024009100CF
:1001E0001419F028240016081F39031DF3280800ED
:1001F000240016151619FA280800A700031127086D
:10020000003A031920292708013A0319222927084F
:10021000023A031924292708033A03192629270833
:10022000043A031928292708053A03192A29270817
:10023000063A03192C292708073A03192E29080022
:1002400001300800023008000430080008300800BF
:1002500010300800203008004030080080300800CE
:1002600023001513951315141308910A2000080094
:1002700000300823A422C42220083B22C822AC223A
:10028000C42221083B22080040300823B422C422A3
:1002900022083B22C822BC22C42223083B22080099
:1002A0000C08A400251C5829241808002510080053
:1002B000241C08002514A00A03112008083A031979
:1002C000A001BD209D2108000C08A400A51C6C29DC
:1002D000A4180800A5100800A41C0800A514A10A71
:1002E00003112108083A0319A101B12108000C08E3
:1002F000A400251D7F292419080025110800241DAC
:1003000008002515A20A03112208083A0319A201C0
:10031000C52108000C08A400A51D9229A4190800F5
:10032000A5110800A41D0800A515A30A03112308A0
:10033000083A0319A301D92108002000200823004E
:100340009300003091001513951315158B1355303C
:100350009600AA30960095148B1715119518AD29A3
:10036000080020002108230093000130910015139C
:10037000951315158B1355309600AA3096009514D9
:100380008B1715119518C129080020002208230099
:100390009300023091001513951315158B135530EA
:1003A0009600AA30960095148B1715119518D5292B
:1003B0000800200023082300930003309100151348
:1003C000951315158B1355309600AA309600951489
:0A03D0008B1715119518E929080094
:0403DA0000340034B7
:0203DE0081306C
:1003E0008A0029080B004C342034203400340800E3
:1003F00081308A0029080B00523420342034003424
:10040000080082308A0029080B004F344E344534EE
:100410000034080082308A0029080B005434573415
:100420004F34003408000B004F346E346534003410
:100430000B00543477346F3400340B005434683478
:10044000653400340B0046346F34723400340B00D2
:1004500046346934763400340B00533469347834CC
:1004600000340B0053346534763400340B004534CB
:10047000693467340034AA00A90103112A08003A3C
:100480000319622A2A08013A03196C2A2A08023A37
:100490000319742A2A08033A03197C2A2A08043A01
:1004A0000319842A2A08053A03198C2A2A08063ACD
:1004B0000319942A2A08073A03199C2A083A0319AF
:1004C00008000800A901031129081322003A0319A2
:1004D00008001B23A90A642A29081822003A0319D4
:1004E00008001B23A90A6C2A29081D22003A0319B7
:1004F00008001B23A90A742A29082222003A03199A
:1005000008001B23A90A7C2A29082722003A03197C
:1005100008001B23A90A842A29082C22003A03195F
:1005200008001B23A90A8C2A29083122003A031942
:1005300008001B23A90A942A29083622003A031925
:1005400008001B23A90A9C2AA901EF21003A0319DC
:1005500008001B23A90AA52AA901F821003A0319BA
:1005600008001B23A90AAD2AA9010122003A031998
:1005700008001B23A90AB52AA9010A22003A031977
:1005800008001B23A90ABD2A03113A301B230800C7
:0A0590007C301B237C301B23080085
:06059A00803021008D05F8
:1005A00020002030B100F122B10BD32A33301123C7
:1005B000323011232C301123083011230130112344
:1005C000063011230C30112308000F394038E92A76
:1005D0000F398D000D16042300000D1204230000B6
:1005E00008001830AD00AE00AE0BF42AAD0BF32AB4
:1005F00008000330AF00B000B00BFC2AAF0BFB2AA1
:1006000000000000000008000000000000000800DA
:10061000B100310E0838E822F9223108E822F1222F
:100620000800B100310EE822F9223108E822F12257
:020630000800C0
:0E0632000F393038AC002C0EE5222C08E522E2
:04064000F922080093
:020000040001F9
:02000E00E4C943
:02001000FFDC13
:08E0000005000400030002000A
:00000001FF
