:020000040000FA
:1000000080318A01032821006830990021001A1CE0
:1000100022009D0120008C0122008C0123008C0114
:1000200021000F308C0020008D0122008D01230063
:100030008D0121008D0120008E0122008D01210003
:10004000BF308E0055203D234323FC23A000FC231A
:10005000A100FC23A200FC23A3007E27042410247B
:100060000F30A50029232E2333233823C424D3247F
:10007000E724291B0A251C24322448245E2420005E
:1000800004241024A8016820A8186022281B7C22C0
:100090002A189F22AA1BBA222819FD22A819082370
:1000A000281A1323A81A1E23382821000E138E178E
:1000B00023009F15230019309B0023009E161E125B
:1000C0001E1123009D171D131D16A801AA01AB01C7
:1000D0002000911E080023009D18592A23001D1995
:1000E0005D2A23001908A6002B19B928AB19DF28AF
:1000F0002B1A0529AB1A2B29A81BA42803112608A3
:10010000733A031951292608533A0319532926082B
:10011000503A031955292608493A03195729260840
:100120006C3A031959292608723A03195B292608E3
:10013000613A03195D292608623A03195F292608E6
:10014000693A031961290800031126086C3A03195A
:1001500063292608723A031965292608613A0319AA
:1001600067292608623A031969292608653A03199E
:100170006B2903112608303A03196D292608313AF4
:10018000031974292608323A03197B292608333AC1
:10019000031982292608343A031989292608353A91
:1001A000031990292608363A031997292608373A61
:1001B00003199E292608653A0319A5290800031189
:1001C0002608303A0319A8292608313A0319AF291D
:1001D0002608323A0319B6292608333A0319BD29ED
:1001E0002608343A0319C4292608353A0319CB29BD
:1001F0002608363A0319D2292608373A0319D9298D
:100200002608653A0319E029080003112608303A48
:100210000319E3292608313A0319EA292608323A54
:100220000319F1292608333A0319F8292608343A24
:100230000319FF292608353A0319062A2608363AF3
:1002400003190D2A2608373A0319142A2608653A95
:1002500003191B2A080003112608303A03191E2A25
:100260002608313A0319252A2608323A03192C2A7E
:100270002608333A0319332A2608343A03193A2A4E
:100280002608353A0319412A2608363A0319482A1E
:100290002608373A03194F2A2608653A0319562AC1
:1002A0000800A8140800281708002A140800AA1734
:1002B000080028150800A815080028160800A81628
:1002C0000800A81708002B150800AB1508002B160E
:1002D0000800AB160800A813080020000730A00093
:1002E000FD22A8132B11080020000030A000FD22E1
:1002F000A8132B11080020000130A000FD22A81334
:100300002B11080020000230A000FD22A8132B11A1
:10031000080020000330A000FD22A8132B110800C4
:1003200020000430A000FD22A8132B11080020009B
:100330000530A000FD22A8132B1108002000063074
:10034000A000FD22A8132B110800A8132B110800F0
:1003500020000730A1000823A813AB1108002000DB
:100360000030A1000823A813AB11080020000130C1
:10037000A1000823A813AB11080020000230A1003F
:100380000823A813AB11080020000330A1000823A4
:10039000A813AB11080020000430A1000823A81303
:1003A000AB11080020000530A1000823A813AB11F1
:1003B000080020000630A1000823A813AB11080094
:1003C000A813AB11080020000730A2001323A813C4
:1003D0002B12080020000030A2001323A8132B12B8
:1003E000080020000130A2001323A8132B120800DC
:1003F00020000230A2001323A8132B1208002000B3
:100400000330A2001323A8132B120800200004308D
:10041000A2001323A8132B12080020000530A2000D
:100420001323A8132B12080020000630A200132368
:10043000A8132B120800A8132B1208002000073065
:10044000A3001E23A813AB12080020000030A30055
:100450001E23A813AB12080020000130A3001E23A6
:10046000A813AB12080020000230A3001E23A8131B
:10047000AB12080020000330A3001E23A813AB1208
:10048000080020000430A3001E23A813AB120800AC
:1004900020000530A3001E23A813AB120800200083
:1004A0000630A3001E23A813AB120800A813AB123A
:1004B000080023001D121D1608002300190808005B
:1004C0003D264426702620002008802674264F26CC
:1004D00070262000210880263D265A2670262000FE
:1004E0002208802674266526702620002308802690
:1004F0003D263D26A81008003D2620000030F126AC
:1005000070262000200880267B2620000130F1265E
:1005100070262000210880267B2620000230F1264C
:1005200070262000220880267B2620000330F1263A
:1005300070262000230880263D26281308003D262B
:1005400020000030F126702644267B262000013052
:10055000F12670264F267B2620000230F1267026D9
:100560005A267B2620000330F126702665263D267C
:100570002A1008003D2620000030F12670262000B9
:10058000003080267B2620000130F12670262000D6
:10059000013080267B2620000230F12670262000C4
:1005A000023080267B2620000330F12670262000B2
:1005B000033080267B2620000430F12670262000A0
:1005C000043080267B2620000530F126702620008E
:1005D000053080267B2620000630F126702620007C
:1005E000063080267B2620000730F126702620006A
:1005F000073080263D26AA1308002000A00A031118
:100600002008083A0319A00129237424281108009E
:100610002000A10A03112108083A0319A1012E2381
:100620008824A81108002000A20A03112208083A11
:100630000319A20133239C24281208002000A30AD6
:1006400003112308083A0319A3013823B024A81280
:100650000800512358236623C42308005123732321
:100660008123C423080051238E239C23C423080024
:100670005123A923B723C423080020000C168C168D
:100680000C178C17080024002830950024008030B7
:10069000940024000130FF30920021008E150E16C8
:1006A0000800240016141618532B2000911108007E
:1006B00024009830910014195B2B2400161F602B26
:1006C000240016081F39031D612B08002000200894
:1006D000C9232400910014196B2B240016081F391C
:1006E000031D6E2B080024009C3091001419762BFA
:1006F0002400161F7B2B240016081F39031D7C2B9A
:10070000080020002108C923240091001419862B19
:10071000240016081F39031D892B080024009A3075
:1007200091001419912B2400161F962B24001608F3
:100730001F39031D972B080020002208C92324001D
:1007400091001419A12B240016081F39031DA42B96
:10075000080024009E3091001419AC2B2400161FB1
:10076000B12B240016081F39031DB22B08002000EE
:100770002308C923240091001419BC2B2400160857
:100780001F39031DBF2B0800240016151619C62B90
:100790000800A70003112708003A0319EC2B2708CB
:1007A000013A0319EE2B2708023A0319F02B270808
:1007B000033A0319F22B2708043A0319F42B2708EC
:1007C000053A0319F62B2708063A0319F82B2708D0
:1007D000073A0319FA2B080001300800023008001C
:1007E00004300800083008001030080020300800ED
:1007F00040300800803008002300151395131514AD
:100800001308910A20000800003062270E262E26C9
:100810002008A525322616262E262108A525080003
:10082000403062271E262E262208A525322626269F
:100830002E262308A525080020000C08A400251C4E
:10084000252C2418080025100800241C0800251455
:10085000A00A03112008083A0319A0012923302512
:100860007424080020000C08A400A51C3B2CA4182C
:100870000800A5100800A41C0800A514A10A031173
:100880002108083A0319A1012E23302588240800E5
:1008900020000C08A400251D512C24190800251146
:1008A0000800241D08002515A20A03112208083A91
:1008B0000319A201332330259C24080020000C08D2
:1008C000A400A51D672CA4190800A5110800A41DEB
:1008D0000800A515A30A03112308083A0319A30168
:1008E00038233025B024080020002008230093007E
:1008F000003091001513951315158B135530960084
:10090000AA30960095148B1715119518842C0800A1
:100910002000210823009300013091001513951346
:1009200015158B1355309600AA30960095148B1729
:1009300015119518982C0800200022082300930018
:10094000023091001513951315158B135530960031
:10095000AA30960095148B1715119518AC2C080029
:1009600020002308230093000330910015139513F2
:1009700015158B1355309600AA30960095148B17D9
:1009800015119518C02C08002000FE309B00200097
:1009900007309C0025008030910025003C309300FA
:1009A00021000E11080020001E1021009512951143
:1009B0001514951415152500FF30910020009501A0
:1009C0002000A801AC01AD01AE01AF01080020007C
:1009D0000B1DEC2C0B112000AC0A200003112C087D
:1009E000FF3A031DF52CAD0AAC0103112D08013AA5
:1009F000031DFC2CAE0AAD0103112E083C3A031D69
:100A0000032DAF0AAE01200003112F08013A03198C
:100A100029170800031120002F08023A031D142D86
:100A20008030250091002F2D20002F08033A031D50
:100A30001D2D4030250091002F2D20002F08043A55
:100A4000031D262D2030250091002F2D20002F087A
:100A5000053A031D2F2D1030250091002F2D080081
:0E0A600020002913AF012500DF3091000800AF
:020A6E00003452
:020A7000003450
:0E0A720085308A0030080B004C340034080038
:100A800085308A0030080B0052340034080085306D
:100A90008A0030080B0041340034080085308A0099
:100AA00030080B004234003408000B0039344D3458
:100AB000413449344E3400340B003934313453342A
:100AC0005534423400340B004B343234203420345B
:100AD000203400340B00373434343634203420349E
:100AE00000340B0073344D34413449344E340034F7
:100AF0000B007334643453345534423400340B00E7
:100B00005034433420344C34203400340B005034FF
:100B1000433420345234203400340B003034003459
:100B20000B00313400340B00323400340B0033340A
:100B300000340B00343400340B00353400340B0027
:100B4000363400340B0037340034B100B0010311E7
:100B50003108003A0319CC2D3108013A0319D62D7A
:100B60003108023A0319DE2D3108033A0319E62D44
:100B70003108043A0319EE2D3108053A0319F62D10
:100B80003108063A0319FE2D3108073A0319062EDB
:100B9000083A031908000800B00103113008552570
:100BA000003A031908009827B00ACE2D30085C25BA
:100BB000003A031908009827B00AD62D300863259B
:100BC000003A031908009827B00ADE2D30086A257C
:100BD000003A031908009827B00AE62D300871255D
:100BE000003A031908009827B00AEE2D300878253E
:100BF000003A031908009827B00AF62D30087F251F
:100C0000003A031908009827B00AFE2D30088625FF
:100C1000003A031908009827B00A062EB0013925BA
:100C2000003A031908009827B00A0F2EB00140259A
:100C3000003A031908009827B00A172EB00147257B
:100C4000003A031908009827B00A1F2EB0014E255C
:100C5000003A031908009827B00A272E03113A30EA
:100C6000982708007C3098277C30982708002000BF
:100C7000111E382E23009A00080020000A30372663
:100C800020000D30372608002000B001031139255F
:100C9000003A0319080037262000B00A462E20002B
:100CA000B00103114025003A03190800372620003F
:100CB000B00A512E2000B00103114725003A031954
:100CC000080037262000B00A5C2E2000B001031176
:100CD0004E25003A0319080037262000B00A672E77
:100CE00020003A303726080020007C3037262000CC
:100CF0007C303726080020002C30372608000800FA
:100D0000B100B00103113108003A0319A72E3108D0
:100D1000013A0319B22E3108023A0319BB2E3108E9
:100D2000033A0319C42E3108043A0319CD2E3108B1
:100D3000053A0319D62E3108063A0319DF2E310879
:100D4000073A0319E82E083A031908000800B00111
:100D5000031130085525003A0319080037262000F2
:100D6000B00AA92E30085C25003A0319080037267E
:100D70002000B00AB22E30086325003A031908009B
:100D800037262000B00ABB2E30086A25003A031926
:100D9000080037262000B00AC42E30087125003A1A
:100DA0000319080037262000B00ACD2E3008782518
:100DB000003A0319080037262000B00AD62E300862
:100DC0007F25003A0319080037262000B00ADF2EDD
:100DD00030088625003A0319080037262000B00A9B
:100DE000E82EB100B00103113108003A0319182FA1
:100DF0003108013A0319232F3108023A03192C2F25
:100E00003108033A0319352F3108043A03193E2FEC
:100E10003108053A0319472F3108063A0319502FB4
:100E20003108073A0319592F083A03190800080036
:100E3000B001031130088D25003A03190800372648
:100E40002000B00A1A2F30089025003A0319080034
:100E500037262000B00A232F30089325003A0319C3
:100E6000080037262000B00A2C2F30089625003ABB
:100E70000319080037262000B00A352F30089925BD
:100E8000003A0319080037262000B00A3E2F300828
:100E90009C25003A0319080037262000B00A472F86
:100EA00030089F25003A0319080037262000B00AB1
:100EB000502F3008A225003A0319080037262000D9
:040EC000B00A592FEC
:0C0EC400B700370E0838AA27732737083C
:100ED000AA276B2708001830B300B400B40B6E2F9C
:100EE000B30B6D2F08000330B500B600B60B762F9C
:100EF000B50B752F000000000000080080302100B5
:100F00008D0520002030B7006B27B70B842F3330BE
:100F10009F2732309F272C309F2708309F27013092
:100F20009F2706309F270F309F2708000F39303842
:100F3000B700370EA7273708A72773270800B70081
:100F4000370EAA2773273708AA276B2708000F39FF
:100F50004038AB2F0F398D000D1600000D12000028
:020F6000080087
:020000040001F9
:02000E00E4C943
:02001000FFDC13
:08E00000000001000200030012
:00000001FF
