:020000040000FA
:1000000080318A01032821006830990021001A1CE0
:10001000072822009D0120008C0122008C01230072
:100020008C0121000F308C0020008D0122008D01F9
:1000300023008D0121008D0120008E0122008D0101
:100040002100BF308E005820B423B723F423A00032
:10005000F423A100F423A200F423A3007627FC23B9
:1000600008240F30A5003023512372239323BC248E
:10007000CB24DF24291B022514242A2440245624BF
:100080002000FC2308242000A8016C20A818652269
:10009000281B81222A18A422AA1BC022200028196A
:1000A0000423A8190F23281A1A23A81A252339284C
:1000B00021000E138E1723009F15230019309B007B
:1000C00023009E161E121E1123009D171D131D16C0
:1000D0002000A801AA01AB012000911E0800230006
:1000E0009D185E2A23001D19622A2300190820008A
:1000F000A6002B19BE28AB19E4282B1A0A29AB1A23
:100100003029AB1BA92803112608733A0319562975
:100110002608533A031958292608503A03195A2930
:100120002608493A03195C2926086C3A03195E2906
:100130002608723A031960292608613A03196229D0
:100140002608623A031964292608693A03196629C0
:100150000800031126086C3A031968292608723A28
:1001600003196A292608613A03196C292608623A9C
:1001700003196E292608653A031970290311260808
:10018000303A031972292608313A031979292608C9
:10019000323A031980292608333A03198729260899
:1001A000343A03198E292608353A03199529260869
:1001B000363A03199C292608373A0319A329260839
:1001C000653A0319AA29080003112608303A0319D1
:1001D000AD292608313A0319B4292608323A031901
:1001E000BB292608333A0319C2292608343A0319D1
:1001F000C9292608353A0319D0292608363A0319A1
:10020000D7292608373A0319DE292608653A031943
:10021000E529080003112608303A0319E8292608C1
:10022000313A0319EF292608323A0319F62926082C
:10023000333A0319FD292608343A0319042A2608FB
:10024000353A03190B2A2608363A0319122A2608CA
:10025000373A0319192A2608653A0319202A080093
:1002600003112608303A0319232A2608313A0319C4
:100270002A2A2608323A0319312A2608333A031962
:10028000382A2608343A03193F2A2608353A031932
:10029000462A2608363A03194D2A2608373A031902
:1002A000542A2608653A03195B2A0800A814080096
:1002B000281708002A140800AA17080028150800A3
:1002C000A815080028160800A8160800AB17080093
:1002D0002B150800AB1508002B160800AB160800FC
:1002E000AB13080020000730A0000423A8132B1133
:1002F000080020000030A0000423A8132B110800E0
:1003000020000130A0000423A8132B1108002000B6
:100310000230A0000423A8132B1108002000033092
:10032000A0000423A8132B11080020000430A00013
:100330000423A8132B11080020000530A00004237B
:10034000A8132B11080020000630A0000423A813D6
:100350002B110800A8132B11080020000730A10062
:100360000F23A813AB11080020000030A1000F23B9
:10037000A813AB11080020000130A1000F23A8131F
:10038000AB11080020000230A1000F23A813AB110D
:10039000080020000330A1000F23A813AB110800B0
:1003A00020000430A1000F23A813AB110800200087
:1003B0000530A1000F23A813AB1108002000063060
:1003C000A1000F23A813AB110800A813AB1108005C
:1003D00020000730A2001A23A8132B1208002000C7
:1003E0000030A2001A23A8132B12080020000130AD
:1003F000A2001A23A8132B12080020000230A2002A
:100400001A23A8132B12080020000330A2001A237D
:10041000A8132B12080020000430A2001A23A813EE
:100420002B12080020000530A2001A23A8132B125B
:10043000080020000630A2001A23A8132B1208007F
:10044000A8132B12080020000730A3002523A813AF
:10045000AB12080020000030A3002523A813AB1224
:10046000080020000130A3002523A813AB120800C8
:1004700020000230A3002523A813AB12080020009F
:100480000330A3002523A813AB120800200004307A
:10049000A3002523A813AB12080020000530A300F9
:1004A0002523A813AB12080020000630A300252343
:1004B000A813AB120800A813AB12080023001D12EA
:1004C0001D16080023001908080035263C2668265A
:1004D0002000200878266C26472668262000210860
:1004E00078263526522668262000220878266C2693
:1004F0005D26682620002308782635263526A81094
:100500000800352620000030E92668262000200853
:100510007826732620000130E9266826200021086D
:100520007826732620000230E9266826200022085B
:100530007826732620000330E92668262000230849
:100540007826352628130800352620000030E926B5
:1005500068263C26732620000130E92668264726B7
:10056000732620000230E9266826522673262000D2
:100570000330E92668265D26352620002A1008006B
:10058000352620000030E926682620000030782635
:10059000732620000130E9266826200001307826E5
:1005A000732620000230E9266826200002307826D3
:1005B000732620000330E9266826200003307826C1
:1005C000732620000430E9266826200004307826AF
:1005D000732620000530E92668262000053078269D
:1005E000732620000630E92668262000063078268B
:1005F000732620000730E926682620000730782679
:1006000035262000AA1308002000A00A03112008A4
:10061000083A0319A00130236C2428110800200097
:10062000A10A03112108083A0319A10151238024CA
:10063000A81108002000A20A03112208083A031991
:10064000A20172239424281208002000A30A031197
:100650002308083A0319A3019323A824A812080029
:10066000883100208331CA23883107208331C52394
:10067000883100208331D82388315B208331C52322
:10068000883100208331CA23883115208331C52366
:100690008831002088316C2088317D208331C5234A
:1006A0000800883100208331CA2388310720833134
:1006B000C523883100208331E62388318F208331A0
:1006C000C523883100208331CA2388312320833118
:1006D000C523883100208831A0208831B1208331A2
:1006E000C5230800883100208331CA238831312096
:1006F0008331C523883100208331D8238831C2203B
:100700008331C523883100208331CA2388313F20BB
:100710008331C523883100208831D3208831E420FB
:100720008331C5230800883100208331CA238831F2
:1007300031208331C523883100208331E62388317D
:10074000F5208331C523883100208331CA238831C5
:100750004D208331C523883100208931062189311C
:1007600017218331C523080020000C16080024003F
:100770002830950024008030940024000130FF30A0
:10078000920021008E150E16080024001615161969
:10079000C72B08002400E03091001419CD2B240051
:1007A000161FD22B240016081F39031DD32B080057
:1007B00024006A3091001419DB2B2400161FE02B53
:1007C000240016081F39031DE12B080024006E3099
:1007D00091001419E92B2400161FEE2B2400160893
:1007E0001F39031DEF2B0800230015139513151453
:1007F0001308910A2000080000305A2706262626F2
:1008000020089D252A260E26262621089D2508003B
:1008100040305A271626262622089D252A261E26DF
:10082000262623089D25080020000C08A400251C6E
:100830001D2C2418080025100800241C080025146D
:10084000A00A03112008083A0319A0013023282523
:100850006C24080020000C08A400A51C332CA4184C
:100860000800A5100800A41C0800A514A10A031183
:100870002108083A0319A1015123282580240800E2
:1008800020000C08A400251D492C2419080025115E
:100890000800241D08002515A20A03112208083AA1
:1008A0000319A201722328259424080020000C08B3
:1008B000A400A51D5F2CA4190800A5110800A41D03
:1008C0000800A515A30A03112308083A0319A30178
:1008D00093232825A8240800200020082300930043
:1008E000003091001513951315158B135530960094
:1008F000AA30960095148B17151195187C2C0800BA
:100900002000210823009300013091001513951356
:1009100015158B1355309600AA30960095148B1739
:1009200015119518902C0800200022082300930030
:10093000023091001513951315158B135530960041
:10094000AA30960095148B1715119518A42C080041
:100950002000230823009300033091001513951302
:1009600015158B1355309600AA30960095148B17E9
:1009700015119518B82C08002000FE309B002000AF
:1009800007309C0025008030910025003C3093000A
:1009900021000E11080020001E1021009512951153
:1009A0001514951415152500FF30910020009501B0
:1009B0002000A801AC01AD01AE01AF01080020008C
:1009C0000B1DE42C0B112000AC0A200003112C0895
:1009D000FF3A031DED2CAD0AAC0103112D08013ABD
:1009E000031DF42CAE0AAD0103112E083C3A031D81
:1009F000FB2CAF0AAE01200003112F08013A0319A6
:100A000029170800031120002F08023A031D0C2D9E
:100A1000803025009100272D20002F08033A031D68
:100A2000152D403025009100272D20002F08043A75
:100A3000031D1E2D203025009100272D20002F089A
:100A4000053A031D272D103025009100272D0800A1
:0E0A500020002913AF012500DF3091000800BF
:020A5E00003462
:020A6000003460
:0E0A620085308A0030080B004C340034080048
:100A700085308A0030080B0052340034080085307D
:100A80008A0030080B0041340034080085308A00A9
:100A900030080B004234003408000B0039344D3468
:100AA000413449344E3400340B003934313453343A
:100AB0005534423400340B004B343234203420346B
:100AC000203400340B0037343434363420342034AE
:100AD00000340B0073344D34413449344E34003407
:100AE0000B007334643453345534423400340B00F7
:100AF0005034433420344C34203400340B00503410
:100B0000433420345234203400340B003034003469
:100B10000B00313400340B00323400340B0033341A
:100B200000340B00343400340B00353400340B0037
:100B3000363400340B0037340034B100B0010311F7
:100B40003108003A0319C42D3108013A0319CE2D9A
:100B50003108023A0319D62D3108033A0319DE2D64
:100B60003108043A0319E62D3108053A0319EE2D30
:100B70003108063A0319F62D3108073A0319FE2DFC
:100B8000083A031908000800B001031130084D2588
:100B9000003A031908009027B00AC62D30085425E2
:100BA000003A031908009027B00ACE2D30085B25C3
:100BB000003A031908009027B00AD62D30086225A4
:100BC000003A031908009027B00ADE2D3008692585
:100BD000003A031908009027B00AE62D3008702566
:100BE000003A031908009027B00AEE2D3008772547
:100BF000003A031908009027B00AF62D30087E2528
:100C0000003A031908009027B00AFE2DB0013125E3
:100C1000003A031908009027B00A072EB0013825C2
:100C2000003A031908009027B00A0F2EB0013F25A3
:100C3000003A031908009027B00A172EB001462584
:100C4000003A031908009027B00A1F2E03113A300A
:100C5000902708007C3090277C30902708002000E7
:100C6000111E302E23009A00080020000A302F2683
:100C700020000D302F2608002000B001031131257F
:100C8000003A031908002F262000B00A3E2E20004B
:100C9000B00103113825003A031908002F2620005F
:100CA000B00A492E2000B00103113F25003A031974
:100CB00008002F262000B00A542E2000B001031196
:100CC0004625003A031908002F262000B00A5F2E9F
:100CD00020003A302F26080020007C302F262000EC
:100CE0007C302F26080020002C302F26080008001A
:100CF000B100B00103113108003A03199F2E3108E9
:100D0000013A0319AA2E3108023A0319B32E310809
:100D1000033A0319BC2E3108043A0319C52E3108D1
:100D2000053A0319CE2E3108063A0319D72E310899
:100D3000073A0319E02E083A031908000800B00129
:100D4000031130084D25003A031908002F26200012
:100D5000B00AA12E30085425003A031908002F26A6
:100D60002000B00AAA2E30085B25003A03190800BB
:100D70002F262000B00AB32E30086225003A03194E
:100D800008002F262000B00ABC2E30086925003A42
:100D9000031908002F262000B00AC52E3008702540
:100DA000003A031908002F262000B00ACE2E300882
:100DB0007725003A031908002F262000B00AD72E05
:100DC00030087E25003A031908002F262000B00ABB
:100DD000E02EB100B00103113108003A0319102FC1
:100DE0003108013A03191B2F3108023A0319242F45
:100DF0003108033A03192D2F3108043A0319362F0D
:100E00003108053A03193F2F3108063A0319482FD4
:100E10003108073A0319512F083A0319080008004E
:100E2000B001031130088525003A031908002F2668
:100E30002000B00A122F30088825003A0319080054
:100E40002F262000B00A1B2F30088B25003A0319EB
:100E500008002F262000B00A242F30088E25003AE3
:100E6000031908002F262000B00A2D2F30089125E5
:100E7000003A031908002F262000B00A362F300848
:100E80009425003A031908002F262000B00A3F2FAE
:100E900030089725003A031908002F262000B00AD1
:100EA000482F30089A25003A031908002F26200001
:040EB000B00A512F04
:0C0EB400B700370E0838A2276B2737085C
:100EC000A227632708001830B300B400B40B662FC4
:100ED000B30B652F08000330B500B600B60B6E2FBC
:100EE000B50B6D2F000000000000080080302100CD
:100EF0008D0520002030B7006327B70B7C2F3330DF
:100F00009727323097272C309727083097270130C2
:100F10009727063097270F30972708000F3930386A
:100F2000B700370E9F2737089F276B270800B700A9
:100F3000370EA2276B273708A227632708000F392F
:100F40004038A32F0F398D000D1600000D12000040
:020F5000080097
:10100000240016141618022820009111080024004C
:10101000F830910014190A282400161F0F28240004
:1010200016081F39031D102808002400F93091000C
:10103000141918282400161F1D28240016081F390B
:10104000031D1E2808002400FA30910014192628D8
:101050002400161F2B28240016081F39031D2C28D6
:1010600008002400FB309100141934282400161FB6
:101070003928240016081F39031D3A2808002400C7
:10108000FC309100141942282400161F4728240020
:1010900016081F39031D4828080024000D30910050
:1010A000141950282400161F5528240016081F392B
:1010B000031D56280800200020088931282124001B
:1010C0009100141961282400161F662824001608B0
:1010D0001F39031D672808002000200889314F218F
:1010E00024009100141972282400161F7728240068
:1010F00016081F39031D782808002000200020084A
:101100008931762124009100141984282400161FA7
:101110008928240016081F39031D8A28080020008A
:1011200021088931282124009100141995282400D0
:10113000161F9A28240016081F39031D9B28080033
:101140002000210889314F21240091001419A6287C
:101150002400161FAB28240016081F39031DAC28D5
:1011600008002000210889317621240091001419FB
:10117000B7282400161FBC28240016081F39031D99
:10118000BD28080020002208893128212400910070
:101190001419C8282400161FCD28240016081F394A
:1011A000031DCE2808002000220889314F21240089
:1011B00091001419D9282400161FDE2824001608CF
:1011C0001F39031DDF2808002000220889317621FD
:1011D000240091001419EA282400161FEF28240087
:1011E00016081F39031DF028080020002308893144
:1011F0002821240091001419FB282400161F00291F
:10120000240016081F39031D0129080020002308A7
:1012100089314F212400910014190C292400161F34
:101220001129240016081F39031D12290800200067
:101230002308893176212400910014191D292400E6
:10124000161F2229240016081F39031D2329080010
:10125000A70003112708003A03194B292708013A70
:1012600003194B292708023A03194B292708033A87
:1012700003194B292708043A03194D292708053A71
:1012800003194D292708063A03194D292708073A5B
:1012900003194D2908000130080002300800A7009A
:1012A00003112708003A031972292708013A031984
:1012B00072292708023A031972292708033A0319E9
:1012C00072292708043A031974292708053A0319D3
:1012D00074292708063A031974292708073A0319BD
:1012E000742908006A3008006E300800A700031156
:1012F0002708003A031999292708013A03199B295D
:101300002708023A03199D292708033A03199F2940
:101310002708043A0319A1292708053A0319A32924
:101320002708063A0319A5292708073A0319A72908
:1013300008000130080002300800043008000830BE
:1013400008000130080002300800043008000830AE
:02135000080093
:020000040001F9
:02000E00E40903
:02001000FF1CD3
:08E00000000001000200030012
:00000001FF
