:020000040000FA
:1000000080318A01032821006830990021001A1CE0
:10001000072822009D0120008C0122008C01230072
:100020008C0121000F308C0020008D0122008D01F9
:1000300023008D0121008D0120008E0122008D0101
:100040002100BF308E004D20DB20E1204921A0009F
:100050004921A1004921A2004921A30017245121CF
:100060005D210F30A500D6200E221D223122291B32
:10007000542269217F219421A921200051215D2151
:10008000A8015E20A81891202819AD20A819B82031
:10009000281AC220A81ACC20362821000E138E1749
:1000A00023009F15230019309B0023009E161E126B
:1000B0001E1123009D171D131D16A8012000911E5F
:1000C000080023009D188A2823001D198E2823006C
:1000D0001908A60003112608643A03198028260887
:1000E0006C3A031982282608723A031984282608D4
:1000F000313A031986282608323A0319882808005D
:10010000A814080028150800A815080028160800DB
:10011000A816080023001D121D1608002300190848
:10012000080067236E239A2320002008A6239E231D
:1001300079239A2320002108A623672384239A2366
:1001400020002208A6239E238F239A232000230821
:10015000A62367236723A81008002000A00A031124
:100160002008083A0319A001D620BE212811080052
:100170002000A10A03112108083A0319A101D22184
:10018000A81108002000A20A03112208083A031946
:10019000A201E621281208002000A30A0311230867
:1001A000083A0319A301FA21A8120800EF20F6204B
:1001B00004211121080020000C168C160C178C1736
:1001C000080024002830950024008030940024008A
:1001D0000130FF30920021008E150E160800240019
:1001E00016141618F12820009111080024009830E8
:1001F00091001419F9282400161FFE28240016085F
:100200001F39031DFF2808002000200816212400A4
:10021000910014190929240016081F39031D0C29FF
:10022000080024001615161913290800A700031149
:100230002708003A031939292708013A03193B29ED
:100240002708023A03193D292708033A03193F29D1
:100250002708043A031941292708053A03194329B5
:100260002708063A031945292708073A0319472999
:10027000080001300800023008000430080008308F
:10028000080010300800203008004030080080309E
:10029000080023001513951315141308910A200064
:1002A000080000305224382358232008CF225C2332
:1002B000402358232108CF220800403052244823ED
:1002C00058232208CF225C23502358232308CF220F
:1002D000080020000C08A400251C7229241808001E
:1002E00025100800241C08002514A00A031120086A
:1002F000083A0319A001D6207A22BE210800200066
:100300000C08A400A51C8829A4180800A510080042
:10031000A41C0800A514A10A03112108083A031916
:10032000A1017A22D221080020000C08A400251D7A
:100330009D292419080025110800241D08002515F1
:10034000A20A03112208083A0319A2017A22E6211F
:10035000080020000C08A400A51DB229A41908005B
:10036000A5110800A41D0800A515A30A0311230860
:10037000083A0319A3017A22FA2108002000200874
:1003800023009300003091001513951315158B135E
:1003900055309600AA30960095148B1715119518B4
:1003A000CE2908002000210823009300013091008D
:1003B0001513951315158B1355309600AA3096001A
:1003C00095148B1715119518E229080020002208B2
:1003D00023009300023091001513951315158B130C
:1003E00055309600AA30960095148B171511951864
:1003F000F629080020002308230093000330910011
:100400001513951315158B1355309600AA309600C9
:1004100095148B17151195180A2A08002000FE3034
:100420009B00200007309C002500FF309100250034
:100430003C30930021000E11080020001E10210006
:10044000951295111514951415152500FF3091007E
:10045000200095012000A801AA01AB01AC01AD016B
:10046000080020000B1D362A0B112000AA0A2000CC
:1004700003112A08FF3A031D3F2AAB0AAA01031100
:100480002B08013A031D462AAC0AAB0103112C08C4
:100490003C3A031D4D2AAD0AAC01200003112D0882
:1004A000013A031929170800031120002D08023A08
:1004B000031D5E2ADF3025009100792A20002D08D7
:1004C000033A031D672A803025009100792A200015
:1004D0002D08043A031D702A403025009100792A26
:1004E00020002D08053A031D792A203025009100AF
:1004F000792A080020002913AD012500FF30910062
:020500000800F1
:04050200003400348D
:0A05060082308A002E080B004C34EE
:10051000203420340034080082308A002E080B007A
:100520005234203420340034080082308A002E08EF
:100530000B004F344E3445340034080082308A00BA
:100540002E080B00543457344F34003408000B008D
:100550004F346E34653400340B00543477346F34C8
:1005600000340B0054346834653400340B004634D6
:100570006F34723400340B004634693476340034FE
:100580000B0053346934783400340B005334653431
:10059000763400340B004534693467340034AF00DE
:1005A000AE0103112F08003A0319F62A2F08013A69
:1005B0000319002B2F08023A0319082B2F08033ABE
:1005C0000319102B2F08043A0319182B2F08053A8A
:1005D0000319202B2F08063A0319282B2F08073A56
:1005E0000319302B083A031908000800AE01031163
:1005F0002E08A722003A031908006524AE0AF82A3B
:100600002E08AC22003A031908006524AE0A002B1C
:100610002E08B122003A031908006524AE0A082BFF
:100620002E08B622003A031908006524AE0A102BE2
:100630002E08BB22003A031908006524AE0A182BC5
:100640002E08C022003A031908006524AE0A202BA8
:100650002E08C522003A031908006524AE0A282B8B
:100660002E08CA22003A031908006524AE0A302B6E
:10067000AE018322003A031908006524AE0A392B23
:10068000AE018C22003A031908006524AE0A412B02
:10069000AE019522003A031908006524AE0A492BE1
:1006A000AE019E22003A031908006524AE0A512BC0
:1006B00003113A30652408007C3065247C306524C1
:1006C00008002000111E622B23009A000800200061
:1006D0000A30612320000D30612308002000AE01A4
:1006E00003118322003A0319080061232000AE0A97
:1006F000702B2000AE0103118C22003A0319080070
:1007000061232000AE0A7B2B2000AE01031195224D
:10071000003A0319080061232000AE0A862B20004E
:10072000AE0103119E22003A031908006123200044
:10073000AE0A912B20003A306123080020007C3063
:10074000612320007C30612308000800AF00AE0167
:1007500003112F08003A0319CD2B2F08013A031972
:10076000D82B2F08023A0319E12B2F08033A03195B
:10077000EA2B2F08043A0319F32B2F08053A031923
:10078000FC2B2F08063A0319052C2F08073A0319EA
:100790000E2C083A031908000800AE0103112E08B8
:1007A000A722003A0319080061232000AE0ACF2BCC
:1007B0002E08AC22003A0319080061232000AE0A7B
:1007C000D82B2E08B122003A03190800612320001B
:1007D000AE0AE12B2E08B622003A03190800612365
:1007E0002000AE0AEA2B2E08BB22003A03190800AB
:1007F00061232000AE0AF32B2E08C022003A031911
:10080000080061232000AE0AFC2B2E08C522003A06
:100810000319080061232000AE0A052C2E08CA2205
:0E082000003A0319080061232000AE0A0E2CD6
:02082E00803018
:1008300021008D0520002030B6003B24B60B1D2C76
:1008400033305B2432305B242C305B2408305B2453
:1008500001305B2406305B240C305B2408000F3928
:100860004038332C0F398D000D164E2400000D1228
:100870004E24000008001830B200B300B30B3E2C29
:10088000B20B3D2C08000330B400B500B50B462C6C
:10089000B40B452C00000000000008000000000020
:1008A00000000800B600360E08383224432436080B
:1008B00032243B240800B600360E32244324360886
:0608C00032243B24080075
:0A08C6000F393038B100310E2F2435
:0808D00031082F244324080025
:020000040001F9
:02000E00E4C943
:02001000FFDC13
:08E0000005000400030002000A
:00000001FF
