:020000040000FA
:1000000080318A01032821006830990021001A1CE0
:10001000072822009D0120008C0122008C01230072
:100020008C0121000F308C0020008D0122008D01F9
:1000300023008D0121008D0120008E0122008D0101
:100040002100BF308E0056203E234423FD23A00014
:10005000FD23A100FD23A200FD23A3007F2705248B
:1000600011240F30A5002A232F2334233923C5243C
:10007000D424E824291B0B251D24332449245F2480
:10008000200005241124A8016920A8186122281B3A
:100090007D222A18A022AA1BBB222819FE22A819F9
:1000A0000923281A1423A81A1F23392821000E1304
:1000B0008E1723009F15230019309B0023009E16E6
:1000C0001E121E1123009D171D131D16A801AA0143
:1000D000AB012000911E080023009D185A2A23001E
:1000E0001D195E2A23001908A6002B19BA28AB197E
:1000F000E0282B1A0629AB1A2C29A81BA5280311C6
:100100002608733A031952292608533A0319542929
:100110002608503A031956292608493A031958293E
:1001200026086C3A03195A292608723A03195C29E1
:100130002608613A03195E292608623A03196029E4
:100140002608693A031962290800031126086C3A47
:10015000031964292608723A031966292608613AA8
:10016000031968292608623A03196A292608653A9C
:1001700003196C2903112608303A03196E29260841
:10018000313A031975292608323A03197C292608C1
:10019000333A031983292608343A03198A29260891
:1001A000353A031991292608363A03199829260861
:1001B000373A03199F292608653A0319A62908002A
:1001C00003112608303A0319A9292608313A0319E0
:1001D000B0292608323A0319B7292608333A0319F9
:1001E000BE292608343A0319C5292608353A0319C9
:1001F000CC292608363A0319D3292608373A031999
:10020000DA292608653A0319E129080003112608AE
:10021000303A0319E4292608313A0319EB29260854
:10022000323A0319F2292608333A0319F929260824
:10023000343A0319002A2608353A0319072A2608F2
:10024000363A03190E2A2608373A0319152A2608C2
:10025000653A03191C2A080003112608303A0319CD
:100260001F2A2608313A0319262A2608323A03198A
:100270002D2A2608333A0319342A2608343A03195A
:100280003B2A2608353A0319422A2608363A03192A
:10029000492A2608373A0319502A2608653A0319CD
:1002A000572A0800A8140800281708002A14080074
:1002B000AA17080028150800A81508002816080025
:1002C000A8160800A81708002B150800AB15080091
:1002D0002B160800AB160800A813080020000730F2
:1002E000A000FE22A8132B11080020000030A0005F
:1002F000FE22A8132B11080020000130A000FE22CE
:10030000A8132B11080020000230A000FE22A81321
:100310002B11080020000330A000FE22A8132B118F
:10032000080020000430A000FE22A8132B110800B2
:1003300020000530A000FE22A8132B110800200089
:100340000630A000FE22A8132B110800A8132B11C1
:10035000080020000730A1000923A813AB110800F2
:1003600020000030A1000923A813AB1108002000D1
:100370000130A1000923A813AB11080020000230AE
:10038000A1000923A813AB11080020000330A1002D
:100390000923A813AB11080020000430A100092391
:1003A000A813AB11080020000530A1000923A813F1
:1003B000AB11080020000630A1000923A813AB11DF
:1003C0000800A813AB11080020000730A200142376
:1003D000A8132B12080020000030A2001423A81339
:1003E0002B12080020000130A2001423A8132B12A6
:1003F000080020000230A2001423A8132B120800CA
:1004000020000330A2001423A8132B1208002000A0
:100410000430A2001423A8132B120800200005307A
:10042000A2001423A8132B12080020000630A200FB
:100430001423A8132B120800A8132B120800200065
:100440000730A3001F23A813AB12080020000030C0
:10045000A3001F23A813AB12080020000130A30043
:100460001F23A813AB12080020000230A3001F2393
:10047000A813AB12080020000330A3001F23A81309
:10048000AB12080020000430A3001F23A813AB12F6
:10049000080020000530A3001F23A813AB1208009A
:1004A00020000630A3001F23A813AB120800A813D6
:1004B000AB12080023001D121D16080023001908A6
:1004C00008003E2645267126200020088126752634
:1004D000502671262000210881263E265B267126A3
:1004E0002000220881267526662671262000230812
:1004F00081263E263E26A81008003E262000003019
:10050000F22671262000200881267C26200001305A
:10051000F22671262000210881267C262000023048
:10052000F22671262000220881267C262000033036
:10053000F22671262000230881263E262813080073
:100540003E2620000030F226712645267C2620001B
:100550000130F226712650267C2620000230F22639
:1005600071265B267C2620000330F2267126662643
:100570003E262A1008003E2620000030F226712672
:100580002000003081267C2620000130F2267126D2
:100590002000013081267C2620000230F2267126C0
:1005A0002000023081267C2620000330F2267126AE
:1005B0002000033081267C2620000430F22671269C
:1005C0002000043081267C2620000530F22671268A
:1005D0002000053081267C2620000630F226712678
:1005E0002000063081267C2620000730F226712666
:1005F0002000073081263E26AA1308002000A00A0A
:1006000003112008083A0319A0012A237524281190
:1006100008002000A10A03112108083A0319A101CA
:100620002F238924A81108002000A20A0311220800
:10063000083A0319A20134239D242812080020003F
:10064000A30A03112308083A0319A3013923B1248B
:10065000A8120800522359236723C52308005223F8
:1006600074238223C523080052238F239D23C5238F
:1006700008005223AA23B823C523080020000C1623
:100680008C160C178C1708002400283095002400C5
:100690008030940024000130FF30920021008E153C
:1006A0000E160800240016141618542B2000911161
:1006B000080024009830910014195C2B2400161FA8
:1006C000612B240016081F39031D622B080020002F
:1006D0002008CA232400910014196C2B240016084A
:1006E0001F39031D6F2B080024009C309100141942
:1006F000772B2400161F7C2B240016081F39031D9E
:100700007D2B080020002108CA2324009100141921
:10071000872B240016081F39031D8A2B080024008C
:100720009A3091001419922B2400161F972B240045
:1007300016081F39031D982B080020002208CA2321
:10074000240091001419A22B240016081F39031D40
:10075000A52B080024009E3091001419AD2B240015
:10076000161FB22B240016081F39031DB32B0800D7
:1007700020002308CA23240091001419BD2B240053
:1007800016081F39031DC02B080024001615161962
:10079000C72B0800A70003112708003A0319ED2B07
:1007A0002708013A0319EF2B2708023A0319F12B06
:1007B0002708033A0319F32B2708043A0319F52BEA
:1007C0002708053A0319F72B2708063A0319F92BCE
:1007D0002708073A0319FB2B0800013008000230F4
:1007E00008000430080008300800103008002030ED
:1007F00008004030080080300800230015139513CE
:1008000015141308910A20000800003063270F26F2
:100810002F262008A625332617262F262108A625B1
:100820000800403063271F262F262208A6253326DE
:1008300027262F262308A625080020000C08A40040
:10084000251C262C2418080025100800241C08004C
:100850002514A00A03112008083A0319A0012A232D
:1008600031257524080020000C08A400A51C3C2C90
:10087000A4180800A5100800A41C0800A514A10ACB
:1008800003112108083A0319A1012F2331258924D6
:10089000080020000C08A400251D522C2419080073
:1008A00025110800241D08002515A20A031122089D
:1008B000083A0319A201342331259D2408002000A1
:1008C0000C08A400A51D682CA4190800A511080097
:1008D000A41D0800A515A30A03112308083A03194B
:1008E000A30139233125B12408002000200823006A
:1008F0009300003091001513951315158B13553087
:100900009600AA30960095148B1715119518852C12
:1009100008002000210823009300013091001513E6
:10092000951315158B1355309600AA309600951423
:100930008B1715119518992C080020002208230008
:100940009300023091001513951315158B13553034
:100950009600AA30960095148B1715119518AD2C9A
:100960000800200023082300930003309100151392
:10097000951315158B1355309600AA3096009514D3
:100980008B1715119518C12C08002000FE309B0014
:10099000200007309C002500DF30910025003C300E
:1009A000930021000E11080020001E102100951256
:1009B00095111514951415152500FF309100200090
:1009C00095012000A801AC01AD01AE01AF01080006
:1009D00020000B1DED2C0B112000AC0A2000031190
:1009E0002C08FF3A031DF62CAD0AAC0103112D08AB
:1009F000013A031DFD2CAE0AAD0103112E083C3A4D
:100A0000031D042DAF0AAE01200003112F08013A87
:100A1000031929170800031120002F08023A031DAB
:100A2000152DDF3025009100302D20002F08033ACE
:100A3000031D1E2D803025009100302D20002F0831
:100A4000043A031D272D403025009100302D200051
:100A50002F08053A031D302D203025009100302D40
:100A6000080020002913AF012500DF3091000800A5
:040A7000003400341A
:0C0A740085308A0030080B004C34003440
:100A8000080085308A0030080B005234003408001A
:100A900085308A0030080B0041340034080085306E
:100AA0008A0030080B004234003408000B0039344F
:100AB0004D34413449344E3400340B003934313430
:100AC00053345534423400340B004B343234203428
:100AD0002034203400340B0037343434363420349E
:100AE000203400340B0073344D34413449344E34D7
:100AF00000340B00733464345334553442340034BE
:100B00000B005034433420344C34203400340B0078
:100B10005034433420345234203400340B00303409
:100B200000340B00313400340B00323400340B003D
:100B3000333400340B00343400340B0035340034CB
:100B40000B00363400340B0037340034B100B001F0
:100B500003113108003A0319CD2D3108013A031968
:100B6000D72D3108023A0319DF2D3108033A031952
:100B7000E72D3108043A0319EF2D3108053A03191E
:100B8000F72D3108063A0319FF2D3108073A0319EA
:100B9000072E083A031908000800B00103113008B5
:100BA0005625003A031908009927B00ACF2D3008BE
:100BB0005D25003A031908009927B00AD72D30089F
:100BC0006425003A031908009927B00ADF2D300880
:100BD0006B25003A031908009927B00AE72D300861
:100BE0007225003A031908009927B00AEF2D300842
:100BF0007925003A031908009927B00AF72D300823
:100C00008025003A031908009927B00AFF2D300803
:100C10008725003A031908009927B00A072EB0016A
:100C20003A25003A031908009927B00A102EB0019E
:100C30004125003A031908009927B00A182EB0017F
:100C40004825003A031908009927B00A202EB00160
:100C50004F25003A031908009927B00A282E0311DE
:100C60003A30992708007C3099277C309927080072
:100C70002000111E392E23009A00080020000A309F
:100C8000382620000D30382608002000B00103115E
:100C90003A25003A0319080038262000B00A472EEA
:100CA0002000B00103114125003A0319080038263D
:100CB0002000B00A522E2000B00103114825003A4E
:100CC0000319080038262000B00A5D2E2000B0016C
:100CD00003114F25003A0319080038262000B00AF6
:100CE000682E20003A303826080020007C30382654
:100CF00020007C303826080020002C3038260800E0
:100D00000800B100B00103113108003A0319A82E00
:100D10003108013A0319B32E3108023A0319BC2EE7
:100D20003108033A0319C52E3108043A0319CE2EAF
:100D30003108053A0319D72E3108063A0319E02E77
:100D40003108073A0319E92E083A03190800080088
:100D5000B001031130085625003A0319080038265F
:100D60002000B00AAA2E30085D25003A03190800B9
:100D700038262000B00AB32E30086425003A031943
:100D8000080038262000B00ABC2E30086B25003A37
:100D90000319080038262000B00AC52E3008722535
:100DA000003A0319080038262000B00ACE2E300879
:100DB0007925003A0319080038262000B00AD72EFA
:100DC00030088025003A0319080038262000B00AB0
:100DD000E02E30088725003A031908003826200045
:100DE000B00AE92EB100B00103113108003A03192D
:100DF000192F3108013A0319242F3108023A031937
:100E00002D2F3108033A0319362F3108043A0319FC
:100E10003F2F3108053A0319482F3108063A0319C4
:100E2000512F3108073A03195A2F083A03190800BD
:100E30000800B001031130088E25003A031908009C
:100E400038262000B00A1B2F30089125003A0319DC
:100E5000080038262000B00A242F30089425003AD4
:100E60000319080038262000B00A2D2F30089725D6
:100E7000003A0319080038262000B00A362F30083F
:100E80009A25003A0319080038262000B00A3F2F9F
:100E900030089D25003A0319080038262000B00AC2
:100EA000482F3008A025003A0319080038262000F2
:100EB000B00A512F3008A325003A0319080038263C
:060EC0002000B00A5A2FC9
:0A0EC600B700370E0838AB27742779
:100ED0003708AB276C2708001830B300B400B40BF8
:100EE0006F2FB30B6E2F08000330B500B600B60BA2
:100EF000772FB50B762F000000000000080080302F
:100F000021008D0520002030B7006C27B70B852FFE
:100F10003330A0273230A0272C30A0270830A0275C
:100F20000130A0270630A0270F30A02708000F3976
:100F30003038B700370EA8273708A82774270800CD
:100F4000B700370EAB2774273708AB276C2708008C
:100F50000F394038AC2F0F398D000D1600000D12DF
:040F60000000080085
:020000040001F9
:02000E00E4C943
:02001000FFDC13
:08E00000000001000200030012
:00000001FF
