:020000040000FA
:1000000080318A01032821006830990021001A1CE0
:10001000072822009D0120008C0122008C01230072
:100020008C0121000F308C0020008D0122008D01F9
:1000300023008D0121008D0120008E0122008E0100
:100040002100BF308E008031CF20873105278731D6
:100050000827873130272C00A00030272C00A10072
:1000600030272C00A20030272C00A30030272C00C2
:10007000B00030272C00B10030272C00B200302710
:100080002C00B30030272C00B40030272C00B50022
:1000900030272C00B60030272C00B7002C00003091
:1000A000AF004630A831CB202C000030AF004E30DE
:1000B000A831CB20AD311925B731892787313727B2
:1000C00087314D272C00FF30A5002C00B801853169
:1000D000FC25863109268631162686312326A8314D
:1000E0005020A8315F208031A831732087316327E9
:1000F000752787279927A9316921A931B22187312D
:10010000372787314D278031E32080312C00381B81
:100110008F2880312C00B81BAF28803173288031A4
:10012000A8317320A9318621A9319C21A9316921E7
:10013000AA319E222C00AA3138187022AA31B81890
:100140007022AA3138197022AA31B8197022803170
:10015000E3202C008031381F732880318F288031B4
:10016000A8317320A931D021A931E621A931B221CA
:10017000AA319E222C00AA3138188722AA31B81839
:100180008722AA3138198722AA31B81987228031EB
:10019000E3202C008031B81F73288031AF28210064
:1001A0000E138E1723009F15230019309B00230088
:1001B0009E161E121E1123009D171D131D162C00C6
:1001C000A801AA01B9012000911E08002300853171
:1001D0009D18352D230085311D19382D2300190850
:1001E0002C00A6002C0082312A186B2A8231AA1812
:1001F000952A2A19BF2AAA19E92A82312A1A262AF7
:100200008231AA1A3D2A82312A1B542A2C008331BA
:100210003918132B8331B9182E2B83313919492BF7
:100220008331B919642B8331391A7F2B8331B91A81
:100230009A2B8331391BB52B8331B91BD02B8131DC
:1002400003112C002608733A031997292608533AFC
:1002500003199A2926084F3A03199D292608493A75
:100260000319A0292608633A0319AF292608313A51
:100270000319A3292608323A0319A6292608333A76
:100280000319A9292608343A0319AC292608253A66
:100290000319B2292608353A0319B52926085E3A0A
:1002A0000319B8292608363A0319BB292608263A25
:1002B0000319BE292608373A0319C12926082A3A04
:1002C0000319C4292608383A0319C7292608283AE9
:1002D0000319CA292608393A0319CD292608293ACB
:1002E0000319D0292608303A0319D32926085F3A82
:1002F0000319D62926082D3A0319D92926082B3A9D
:100300000319DC2926083D3A0319DF292608473A54
:100310000319E2292608673A0319E8292608463A0C
:100320000319E5292608663A0319EB2908008531E7
:100330003B25080085315725080085317A250800BE
:100340008531952508008531CC2508008531D825D3
:1003500008008531E42508008531F02508002C00CF
:100360002A160800AB3143230800AB317F23080075
:10037000AB3152230800AB318E230800AB3161232F
:100380000800AB319D230800AB3170230800AB316E
:10039000AC230800AC310B240800AC314724080022
:1003A000AC311A240800AC3156240800AC312924A1
:1003B0000800AC3165240800AC3138240800AC31A9
:1003C00074240800AC31D3240800AC31F6240800B2
:1003D0002C00AA1608002C002A1708002C002A144A
:1003E0002A1208002C00AA142A1208002C002A1530
:1003F0002A1208002C00AA152A1208002C00391411
:100400002C00AA1208002C00B9142C00AA12080013
:100410002C0039152C00AA1208002C00B9152C004C
:10042000AA1208002C0039162C002A1308002C00F0
:10043000B9162C002A1308002C0039172C002A1397
:1004400008002C00B9172C002A130800BC319F2487
:10045000BD31FF2581312C00031126086C3A0319A8
:10046000EE292608723A0319F2292608613A03197F
:10047000F6292608623A0319FA29BC319F24BD31B6
:10048000FF2581312C00031126086C3A0319FE293F
:100490002608723A0319032A2608613A0319082A22
:1004A0002608623A03190D2ABC319F24BD31FF256D
:1004B00082312C00031126086C3A0319122A2608EF
:1004C000723A0319172A2608613A03191C2A2608CA
:1004D000623A0319212ABE312826BC31A624833171
:1004E0002C0003112608303A0319F22B2608313A62
:1004F0000319FB2B2608323A0319042C2608333A39
:1005000003190D2C2608343A0319162C2608353AFF
:1005100003191F2C2608363A0319282C2608373AC7
:100520000319312C8331EB230800BE312826BC315E
:10053000B32484312C0003112608303A0319402CCF
:100540002608313A0319492C2608323A0319522C4D
:100550002608333A03195B2C2608343A0319642C15
:100560002608353A03196D2C2608363A0319762CDD
:100570002608373A03197F2C8331EB230800BE315C
:100580002826BC31C02484312C0003112608303ABF
:1005900003198E2C2608313A0319972C2608323A73
:1005A0000319A02C2608333A0319A92C2608343A3B
:1005B0000319B22C2608353A0319BB2C2608363A03
:1005C0000319C42C2608373A0319CD2C8331EB23A9
:1005D0000800BE312826BC31CD2484312C00031103
:1005E0002608303A0319DC2C2608313A0319E52C89
:1005F0002608323A0319EE2C2608333A0319F72C51
:100600002608343A0319002D2608353A0319092D16
:100610002608363A0319122D2608373A03191B2DDE
:100620008331EB230800B731DF27BC31A624BC316E
:10063000DA242C0026082C00B000B003AB31432391
:100640002030BC3199242C003008BC319924BC31B5
:100650009F242C00A8122C0039100800B731DF2786
:10066000BC31B324BC31DA242C0026082C00B100A4
:10067000B103AB3152232030BC3199242C00310816
:10068000BC319924BC319F242C00A8122C00B91035
:100690000800B731DF27BC31C024BC31DA242C007C
:1006A00026082C00B200B203AB3161232030BC31EC
:1006B00099242C003208BC319924BC319F242C0091
:1006C000A8122C0039110800B731DF27BC31CD2426
:1006D000BC31DA242C0026082C00B300B303AB3164
:1006E00070232030BC3199242C003308BC3199246C
:1006F000BC319F242C00A8122C00B91108008731AE
:10070000AD27BC31A624BC31DA242C0026082C00ED
:10071000B400B403AC310B242030BC3199242C003C
:100720003408BC319924BC319F242C0028132C00A0
:10073000391208008731AD27BC31B324BC31DA242B
:100740002C0026082C00B500B503AC311A2420304B
:10075000BC3199242C003508BC319924BC319F242C
:100760002C0028132C00B91208008731AD27BC31AA
:10077000C024BC31DA242C0026082C00B600B603B5
:10078000AC3129242030BC3199242C003608BC31EE
:100790009924BC319F242C0028132C003913080005
:1007A0008731AD27BC31CD24BC31DA242C0026089A
:1007B0002C00B700B703AC3138242030BC31992469
:1007C0002C003708BC319924BC319F242C002813FD
:1007D0002C00B91308002C00AA01BE317326BC31CD
:1007E0009F240800003085312A252C000730A00006
:1007F00084313A240800013085312A252C0000304C
:10080000A00084313A240800023085312A252C00CA
:100810000130A00084313A240800033085312A25B4
:100820002C000230A00084313A24080004308531C5
:100830002A252C000330A00084313A24080005301A
:1008400085312A252C000430A00084313A24080088
:10085000063085312A252C000530A00084313A2449
:100860000800073085312A252C000630A00084318D
:100870003A2408008531CC252C0028122A100800C3
:10088000003085312A252C000730A10084318824CE
:100890000800013085312A252C000030A100843168
:1008A00088240800023085312A252C000130A1005F
:1008B000843188240800033085312A252C00023039
:1008C000A100843188240800043085312A252C00B9
:1008D0000330A100843188240800053085312A25A1
:1008E0002C000430A10084318824080006308531B2
:1008F0002A252C000530A100843188240800073007
:1009000085312A252C000630A10084318824080076
:100910008531D8252C002812AA1008000030853116
:100920002A252C000730A2008431D624080001308B
:1009300085312A252C000030A2008431D6240800FD
:10094000023085312A252C000130A2008431D624C2
:100950000800033085312A252C000230A2008431A2
:10096000D6240800043085312A252C000330A2004B
:100970008431D6240800053085312A252C00043026
:10098000A2008431D6240800063085312A252C00A7
:100990000530A2008431D6240800073085312A258D
:1009A0002C000630A2008431D62408008531E425CD
:1009B0002C0028122A110800003085312A252C002D
:1009C0000730A300853124250800013085312A2510
:1009D0002C000030A3008531242508000230853129
:1009E0002A252C000130A30085312425080003307E
:1009F00085312A252C000230A300853124250800EA
:100A0000043085312A252C000330A30085312425AC
:100A10000800053085312A252C000430A3008531DB
:100A200024250800063085312A252C000530A30036
:100A3000853124250800073085312A252C00063011
:100A4000A3008531242508008531F0252C002812CB
:100A5000AA1108002C00BA00BE314A262C003A0820
:100A6000BC31E924BC319F2408001D121D1608006A
:100A7000230019080800BC319F24A624DA242C0086
:100A80002008E924DE24B324DA242C002108E924F8
:100A90009F24C024DA242C002208E924DE24CD245B
:100AA000DA242C002308E9249F249F240800BC3169
:100AB0009F2453309924E42400307425DA242C0038
:100AC0002008E924E42401307425DA242C002108CC
:100AD000E924E42402307425DA242C002208E924D5
:100AE000E42403307425DA242C002308E924E424C8
:100AF0009F240800BC319F244F309924E424003007
:100B00007425DA24A624E42401307425DA24B324DD
:100B1000E42402307425DA24C024E424033074254C
:100B2000DA24CD24E4249F240800BC319F244930DA
:100B30009924E42400307425DA240030E924E424E4
:100B400001307425DA240130E924E42402307425CC
:100B5000DA240230E924E42403307425DA24033053
:100B6000E924E42404307425DA240430E924E4245C
:100B700005307425DA240530E924E4240630742590
:100B8000DA240630E924E42407307425DA24073017
:100B9000E924E4249F2408002C00A00A0311200863
:100BA000083A0319A0018531FC25A831002008006E
:100BB0002C00A10A03112108083A0319A10186316A
:100BC0000926A831142008002C00A20A03112208CB
:100BD000083A0319A20186311626A83128200800F8
:100BE0002C00A30A03112308083A0319A301863134
:100BF0002326A8313C200800F8308631302600300A
:100C000086314B26F9308631302600308631A426D5
:100C10000800F83086313026013086314B26FA3014
:100C20008631302601308631A4260800FB3086311B
:100C30003026023086314B26FC3086313026023099
:100C40008631A4260800FB308631302603308631F9
:100C50004B260D308631302603308631A42608001D
:100C60002C00BA0087311627873122272C003A083A
:100C7000000086313E2687311D27080024009100A0
:100C80001419402E2400161F452E240016081F3963
:100C9000031D462E08002C00BD00873116272C00AE
:100CA000BD08863196268631240091001419562EEF
:100CB0002400161F5B2E240016081F39031D5C2E0E
:100CC0002C003D08031186313D08003A0319782EA7
:100CD00086313D08013A03197B2E86313D08023AE0
:100CE00003197E2E86313D08033A0319812E080030
:100CF0002C002008842E2C002108842E2C00220891
:100D0000842E2C002308842E86319B2686312400D5
:100D100091001419892E2400161F8E2E2400160807
:100D20001F39031D8F2E87311D2708000B006A34E1
:100D30006E346A346E340B000134013401340134F2
:100D400002340234023402342C00BD000311863117
:100D50003D08003A0319BC2E86313D08013A0319BB
:100D6000C02E86313D08023A0319C42E86313D0853
:100D7000033A0319C82E08002C002008BD00CC2E11
:100D80002C002108BD00CC2E2C002208BD00CC2E4A
:100D90002C002308BD00CC2E873116272C00BD085F
:100DA0008631F3268631240091001419D52E2400B3
:100DB000161FDA2E240016081F39031DDB2E2C0007
:100DC0003D088631FC268631240091001419E62E58
:100DD0002400161FEB2E240016081F39031DEC2ECD
:100DE00087311D2708000B006A346A346A346A347C
:100DF0006E346E346E346E340B00013402340434BD
:100E00000834013402340434083420000C1608007D
:100E10002400283095002400803094002400013004
:100E2000FF30920021008E150E16080024001614C3
:100E30001618182F200091110800240016151619F5
:100E40001F2F08002400E03091001419252F2400E2
:100E5000161F2A2F240016081F39031D2B2F0800E8
:100E600023001513951315141308910A0800003078
:100E7000B731C427BC316524BC318D242C00200837
:100E8000BB31EC23BC319224BC316F24BC318D24A6
:100E90002C002108BB31EC2308004030B731C427B7
:100EA000BC317924BC318D242C002208BB31EC23C9
:100EB000BC319224BC318324BC318D242C00230806
:100EC000BB31EC23080020000C082C00A400251CDA
:100ED0006D2F2418080025100800241C0800251474
:100EE000A831C4208531CC25080020000C082C0036
:100EF000A400A51C7F2FA4180800A5100800A41C9E
:100F00000800A514A831C4208531D8250800200088
:100F10000C082C00A400251D912F24190800251170
:100F20000800241D08002515A831C4208531E425BA
:100F3000080020000C082C00A400A51DA32FA41954
:100F40000800A5110800A41D0800A515A831C4209B
:060F50008531F0250800C8
:040F5600003400342F
:060F5A002C00C20103118E
:100F60008731BA27003A03190800BC3199242C00B4
:100F7000C20AAD2F42088731C627003A031908007C
:100F8000BC3199242C00C20A8731BA2F0B004C3493
:100F90006F347734203450346134733473342034F4
:100FA000463469346C34743465347234203400341B
:100FB0000F3930382C00BF003F0EB7319D272C0071
:0C0FC0003F08B7319D27B731B427080067
:101000000B003034203420342034203400340B00E2
:101010003134203420342034203400340B00323476
:10102000203420342034203400340B003334203476
:1010300020342034203400340B0034342034203465
:101040002034203400340B00353420342034203454
:10105000203400340B003634203420342034203443
:1010600000340B0037342034203420342034003452
:101070000B003834203420342034203400340B006A
:101080003934203420342034203400340B003134FF
:10109000303420342034203400340B0031343134E7
:1010A00020342034203400340B00313432342034E6
:1010B0002034203400340B003134333420342034D5
:1010C000203400340B0031343434203420342034C4
:1010D00000340B00313435342034203420340034D3
:1010E0000B003134363420342034203400340B00EB
:1010F0003134373420342034203400340B00313480
:10110000383420342034203400340B003134393466
:1011100020342034203400340B0032343034203476
:101120002034203400340B00323431342034203465
:10113000203400340B003234323420342034203454
:1011400000340B0032343334203420342034003463
:101150000B003234343420342034203400340B007B
:101160003234353420342034203400340B0032340F
:10117000363420342034203400340B0032343734F9
:1011800020342034203400340B00323438342034FE
:101190002034203400340B003234393420342034ED
:1011A000203400340B0033343034203420342034E5
:1011B00000340B00333431342034203420340034F4
:1011C0000B003334323420342034203400340B000C
:1011D0003334333420342034203400340B0033349F
:1011E000343420342034203400340B00333435348C
:1011F00020342034203400340B003334363420348F
:101200002034203400340B0033343734203420347D
:10121000203400340B00333438342034203420346C
:1012200000340B003334393420342034203400347B
:101230000B003434303420342034203400340B009C
:101240003434313420342034203400340B0034342E
:10125000323420342034203400340B00343433341E
:1012600020342034203400340B003434343420341F
:101270002034203400340B0034343534203420340E
:10128000203400340B0034343634203420342034FD
:1012900000340B003434373420342034203400340C
:1012A0000B003434383420342034203400340B0024
:1012B0003434393420342034203400340B003534B5
:1012C000303420342034203400340B0035343134B1
:1012D00020342034203400340B00353432342034B0
:1012E0002034203400340B0035343334203420349F
:1012F000203400340B00353434342034203420348E
:1013000000340B003534353420342034203400349C
:101310000B003534363420342034203400340B00B4
:101320003534373420342034203400340B00353445
:10133000383420342034203400340B003534393430
:1013400020342034203400340B0036343034203440
:101350002034203400340B0036343134203420342F
:10136000203400340B00363432342034203420341E
:1013700000340B003634333420342034203400342D
:101380000B003634343420342034203400340B0045
:101390003634353420342034203400340B003634D5
:1013A000363420342034203400340B0036343734C3
:1013B00020342034203400340B00363438342034C8
:1013C0002034203400340B003634393420342034B7
:1013D000203400340B0037343034203420342034AF
:1013E00000340B00373431342034203420340034BE
:1013F0000B003734323420342034203400340B00D6
:101400003734333420342034203400340B00373464
:10141000343420342034203400340B003734353455
:1014200020342034203400340B0037343634203458
:101430002034203400340B00373437342034203447
:10144000203400340B003734383420342034203436
:1014500000340B0037343934203420342034003445
:101460000B003834303420342034203400340B0066
:101470003834313420342034203400340B003834F4
:10148000323420342034203400340B0038343334E8
:1014900020342034203400340B00383434342034E9
:1014A0002034203400340B003834353420342034D8
:1014B000203400340B0038343634203420342034C7
:1014C00000340B00383437342034203420340034D6
:1014D0000B003834383420342034203400340B00EE
:1014E0003834393420342034203400340B0039347B
:1014F000303420342034203400340B00393431347B
:1015000020342034203400340B0039343234203479
:101510002034203400340B00393433342034203468
:10152000203400340B003934343420342034203457
:1015300000340B0039343534203420342034003466
:101540000B003934363420342034203400340B007E
:101550003934373420342034203400340B0039340B
:10156000383420342034203400340B0039343934FA
:1015700020342034203400340B0031343034303403
:101580002034203400340B003134303431342034F2
:10159000203400340B0031343034323420342034E1
:1015A00000340B00313430343334203420340034F0
:1015B0000B003134303434342034203400340B0008
:1015C0003134303435342034203400340B0031349D
:1015D000303436342034203400340B00313430348D
:1015E00037342034203400340B0031343034383474
:1015F0002034203400340B0031343034393420347A
:10160000203400340B003134313430342034203471
:1016100000340B0031343134313420342034003480
:101620000B003134313432342034203400340B0098
:101630003134313433342034203400340B0031342D
:10164000313434342034203400340B00313431341C
:1016500035342034203400340B0031343134363406
:101660002034203400340B0031343134373420340A
:10167000203400340B0031343134383420342034F9
:1016800000340B0031343134393420342034003408
:101690000B003134323430342034203400340B0029
:1016A0003134323431342034203400340B003134BE
:1016B000323432342034203400340B0031343234AC
:1016C00033342034203400340B0031343234343499
:1016D0002034203400340B0031343234353420349B
:1016E000203400340B00313432343634203420348A
:1016F00000340B0031343234373420342034003499
:101700000B003134323438342034203400340B00B0
:101710003134323439342034203400340B00313445
:10172000333430342034203400340B00313433343B
:1017300031342034203400340B003134333432342B
:101740002034203400340B0031343334333420342B
:10175000203400340B00313433343434203420341A
:1017600000340B0031343334353420342034003429
:101770000B003134333436342034203400340B0041
:101780003134333437342034203400340B003134D6
:10179000333438342034203400340B0031343334C3
:1017A00039342034203400340B00313434343034B4
:1017B0002034203400340B003134343431342034BC
:1017C000203400340B0031343434323420342034AB
:1017D00000340B00313434343334203420340034BA
:1017E0000B003134343434342034203400340B00D2
:1017F0003134343435342034203400340B00313467
:10180000343436342034203400340B003134343452
:1018100037342034203400340B003134343438343D
:101820002034203400340B00313434343934203443
:10183000203400340B00313435343034203420343B
:1018400000340B003134353431342034203400344A
:101850000B003134353432342034203400340B0062
:101860003134353433342034203400340B003134F7
:10187000353434342034203400340B0031343534E2
:1018800035342034203400340B00313435343634D0
:101890002034203400340B003134353437342034D4
:1018A000203400340B0031343534383420342034C3
:1018B00000340B00313435343934203420340034D2
:1018C0000B003134363430342034203400340B00F3
:1018D0003134363431342034203400340B00313488
:1018E000363432342034203400340B003134363472
:1018F00033342034203400340B0031343634343463
:101900002034203400340B00313436343534203464
:10191000203400340B003134363436342034203453
:1019200000340B0031343634373420342034003462
:101930000B003134363438342034203400340B007A
:101940003134363439342034203400340B0031340F
:10195000373430342034203400340B003134373401
:1019600031342034203400340B00313437343234F5
:101970002034203400340B003134373433342034F5
:10198000203400340B0031343734343420342034E4
:1019900000340B00313437343534203420340034F3
:1019A0000B003134373436342034203400340B000B
:1019B0003134373437342034203400340B003134A0
:1019C000373438342034203400340B003134373489
:1019D00039342034203400340B003134383430347E
:1019E0002034203400340B00313438343134203486
:1019F000203400340B003134383432342034203475
:101A000000340B0031343834333420342034003483
:101A10000B003134383434342034203400340B009B
:101A20003134383435342034203400340B00313430
:101A3000383436342034203400340B003134383418
:101A400037342034203400340B0031343834383407
:101A50002034203400340B0031343834393420340D
:101A6000203400340B003134393430342034203405
:101A700000340B0031343934313420342034003414
:101A80000B003134393432342034203400340B002C
:101A90003134393433342034203400340B003134C1
:101AA000393434342034203400340B0031343934A8
:101AB00035342034203400340B003134393436349A
:101AC0002034203400340B0031343934373420349E
:101AD000203400340B00313439343834203420348D
:101AE00000340B003134393439342034203400349C
:101AF0000B003234303430342034203400340B00C6
:101B00003234303431342034203400340B00323459
:101B1000303432342034203400340B00323430344A
:101B200033342034203400340B0032343034343435
:101B30002034203400340B00323430343534203437
:101B4000203400340B003234303436342034203426
:101B500000340B0032343034373420342034003435
:101B60000B003234303438342034203400340B004D
:101B70003234303439342034203400340B003234E1
:101B8000313430342034203400340B0032343134DA
:101B900031342034203400340B00323431343234C8
:101BA0002034203400340B003234313433342034C8
:101BB000203400340B0032343134343420342034B7
:101BC00000340B00323431343534203420340034C6
:101BD0000B003234313436342034203400340B00DE
:101BE0003234313437342034203400340B00323472
:101BF000313438342034203400340B003234313462
:101C000039342034203400340B0032343234303450
:101C10002034203400340B00323432343134203458
:101C2000203400340B003234323432342034203447
:101C300000340B0032343234333420342034003456
:101C40000B003234323434342034203400340B006E
:101C50003234323435342034203400340B00323402
:101C6000323436342034203400340B0032343234F1
:101C700037342034203400340B00323432343834DA
:101C80002034203400340B003234323439342034E0
:101C9000203400340B0032343334303420342034D8
:101CA00000340B00323433343134203420340034E7
:101CB0000B003234333432342034203400340B00FF
:101CC0003234333433342034203400340B00323493
:101CD000333434342034203400340B003234333481
:101CE00035342034203400340B003234333436346D
:101CF0002034203400340B00323433343734203471
:101D0000203400340B00323433343834203420345F
:101D100000340B003234333439342034203400346E
:101D20000B003234343430342034203400340B008F
:101D30003234343431342034203400340B00323423
:101D4000343432342034203400340B003234343410
:101D500033342034203400340B00323434343434FF
:101D60002034203400340B00323434343534203401
:101D7000203400340B0032343434363420342034F0
:101D800000340B00323434343734203420340034FF
:101D90000B003234343438342034203400340B0017
:101DA0003234343439342034203400340B003234AB
:101DB000353430342034203400340B0032343534A0
:101DC00031342034203400340B0032343534323492
:101DD0002034203400340B00323435343334203492
:101DE000203400340B003234353434342034203481
:101DF00000340B0032343534353420342034003490
:102000002C0040088B317223003A031908008731F5
:10201000DA272C00C00A9031002840088B31792340
:10202000003A031908008731DA272C00C00A9031E2
:102030000D2840088B318023003A031908008731AE
:10204000DA272C00C00A9031192840088B318723E9
:10205000003A031908008731DA272C00C00A9031B2
:10206000252840088B318E23003A03190800873158
:10207000DA272C00C00A9031312840088B31952393
:10208000003A031908008731DA272C00C00A903182
:102090003D2840088B319C23003A03190800873102
:1020A000DA272C00C00A9031492840088B31A3233D
:1020B000003A031908008731DA272C00C00A903152
:1020C000552840088B31AA23003A031908008731AC
:1020D000DA272C00C00A9031612840088B31B123E7
:1020E000003A031908008731DA272C00C00A903122
:1020F0006D2840088B31B823003A03190800873156
:10210000DA272C00C00A9031792840088B31BF2390
:10211000003A031908008731DA272C00C00A9031F1
:10212000852840088B31C623003A031908008731FF
:10213000DA272C00C00A9031912840088B31CD233A
:10214000003A031908008731DA272C00C00A9031C1
:102150009D2840088B31D423003A031908008731A9
:10216000DA272C00C00A9031A92840088B31DB23E4
:10217000003A031908008731DA272C00C00A903191
:10218000B52840088B31E223003A03190800873153
:10219000DA272C00C00A9031C12840088B31E9238E
:1021A000003A031908008731DA272C00C00A903161
:1021B000CD2840088B31F023003A031908008731FD
:1021C000DA272C00C00A9031D92840088B31F72338
:1021D000003A031908008731DA272C00C00A903131
:1021E000E52840088B31FE23003A031908008731A7
:1021F000DA272C00C00A9031F12840088C310524E0
:10220000003A031908008731DA272C00C00A903100
:10221000FD2840088C310C24003A0319080087314E
:10222000DA272C00C00A9131092940088C31132487
:10223000003A031908008731DA272C00C00A9131CF
:10224000152940088C311A24003A031908008731F7
:10225000DA272C00C00A9131212940088C31212431
:10226000003A031908008731DA272C00C00A91319F
:102270002D2940088C312824003A031908008731A1
:10228000DA272C00C00A9131392940088C312F24DB
:10229000003A031908008731DA272C00C00A91316F
:1022A000452940088C313624003A0319080087314B
:1022B000DA272C00C00A9131512940088C313D2485
:1022C000003A031908008731DA272C00C00A91313F
:1022D0005D2940088C314424003A031908008731F5
:1022E000DA272C00C00A9131692940088C314B242F
:1022F000003A031908008731DA272C00C00A91310F
:10230000752940088C315224003A0319080087319E
:10231000DA272C00C00A9131812940088C315924D8
:10232000003A031908008731DA272C00C00A9131DE
:102330008D2940088C316024003A03190800873148
:10234000DA272C00C00A9131992940088C31672482
:10235000003A031908008731DA272C00C00A9131AE
:10236000A52940088C316E24003A031908008731F2
:10237000DA272C00C00A9131B12940088C3175242C
:10238000003A031908008731DA272C00C00A91317E
:10239000BD2940088C317C24003A0319080087319C
:1023A000DA272C00C00A9131C92940088C318324D6
:1023B000003A031908008731DA272C00C00A91314E
:1023C000D52940088C318A24003A03190800873146
:1023D000DA272C00C00A9131E12940088C31912480
:1023E000003A031908008731DA272C00C00A91311E
:1023F000ED2940088C319824003A031908008731F0
:10240000DA272C00C00A9131F92940088C319F2429
:10241000003A031908008731DA272C00C00A9231EC
:10242000052A40088C31A624003A03190800873198
:10243000DA272C00C00A9231112A40088C31AD24D1
:10244000003A031908008731DA272C00C00A9231BC
:102450001D2A40088C31B424003A03190800873142
:10246000DA272C00C00A9231292A40088C31BB247B
:10247000003A031908008731DA272C00C00A92318C
:10248000352A40088C31C224003A031908008731EC
:10249000DA272C00C00A9231412A40088C31C92425
:1024A000003A031908008731DA272C00C00A92315C
:1024B0004D2A40088C31D024003A03190800873196
:1024C000DA272C00C00A9231592A40088C31D724CF
:1024D000003A031908008731DA272C00C00A92312C
:1024E000652A40088C31DE24003A03190800873140
:1024F000DA272C00C00A9231712A40088C31E52479
:10250000003A031908008731DA272C00C00A9231FB
:102510007D2A40088C31EC24003A031908008731E9
:10252000DA272C00C00A9231892A40088C31F32422
:10253000003A031908008731DA272C00C00A9231CB
:10254000952A40088C31FA24003A03190800873193
:10255000DA272C00C00A9231A12A40088D310125CA
:10256000003A031908008731DA272C00C00A92319B
:10257000AD2A40088D310825003A0319080087313B
:10258000DA272C00C00A9231B92A40088D310F2574
:10259000003A031908008731DA272C00C00A92316B
:1025A000C52A40088D311625003A031908008731E5
:1025B000DA272C00C00A9231D12A40088D311D251E
:1025C000003A031908008731DA272C00C00A92313B
:1025D000DD2A40088D312425003A0319080087318F
:1025E000DA272C00C00A9231E92A40088D312B25C8
:1025F000003A031908008731DA272C00C00A92310B
:10260000F52A40088D313225003A03190800873138
:10261000DA272C00C00A9331012B40088D3139256F
:10262000003A031908008731DA272C00C00A9331D9
:102630000D2B40088D314025003A031908008731E1
:10264000DA272C00C00A9331192B40088D31472519
:10265000003A031908008731DA272C00C00A9331A9
:10266000252B40088D314E25003A0319080087318B
:10267000DA272C00C00A9331312B40088D315525C3
:10268000003A031908008731DA272C00C00A933179
:102690003D2B40088D315C25003A03190800873135
:1026A000DA272C00C00A9331492B40088D3163256D
:1026B000003A031908008731DA272C00C00A933149
:1026C000552B40088D316A25003A031908008731DF
:1026D000DA272C00C00A9331612B40088D31712517
:1026E000003A031908008731DA272C00C00A933119
:1026F0006D2B40088D317825003A03190800873189
:10270000DA272C00C00A9331792B40088D317F25C0
:10271000003A031908008731DA272C00C00A9331E8
:10272000852B40088D318625003A03190800873132
:10273000DA272C00C00A9331912B40088D318D256A
:10274000003A031908008731DA272C00C00A9331B8
:102750009D2B40088D319425003A031908008731DC
:10276000DA272C00C00A9331A92B40088D319B2514
:10277000003A031908008731DA272C00C00A933188
:10278000B52B40088D31A225003A03190800873186
:10279000DA272C00C00A9331C12B40088D31A925BE
:1027A000003A031908008731DA272C00C00A933158
:1027B000CD2B40088D31B025003A03190800873130
:1027C000DA272C00C00A9331D92B40088D31B72568
:1027D000003A031908008731DA272C00C00A933128
:1027E000E52B40088D31BE25003A031908008731DA
:1027F000DA272C00C00A9331F12B40088D31C52512
:10280000003A031908008731DA272C00C00A9331F7
:10281000FD2B40088D31CC25003A03190800873183
:10282000DA272C00C00A9431092C40088D31D325B9
:10283000003A031908008731DA272C00C00A9431C6
:10284000152C40088D31DA25003A0319080087312C
:10285000DA272C00C00A9431212C40088D31E12563
:10286000003A031908008731DA272C00C00A943196
:102870002D2C40088D31E825003A031908008731D6
:10288000DA272C00C00A9431392C40088D31EF250D
:10289000003A031908008731DA272C00C00A943166
:1028A000452C40088D31F625003A03190800873180
:1028B000DA272C00C00A9431512C40088D31FD25B7
:1028C000003A031908008731DA272C00C00A943136
:1028D0005D2C40088E310426003A03190800873128
:1028E000DA272C00C00A9431692C40088E310B265F
:1028F000003A031908008731DA272C00C00A943106
:10290000752C40088E311226003A031908008731D1
:10291000DA272C00C00A9431812C40088E31192608
:10292000003A031908008731DA272C00C00A9431D5
:102930008D2C40088E312026003A0319080087317B
:10294000DA272C00C00A9431992C40088E312726B2
:10295000003A031908008731DA272C00C00A9431A5
:10296000A52C40088E312E26003A03190800873125
:10297000DA272C00C00A9431B12C40088E3135265C
:10298000003A031908008731DA272C00C00A943175
:10299000BD2C40088E313C26003A031908008731CF
:1029A000DA272C00C00A9431C92C40088E31432606
:1029B000003A031908008731DA272C00C00A943145
:1029C000D52C40088E314A26003A03190800873179
:1029D000DA272C00C00A9431E12C40088E315126B0
:1029E000003A031908008731DA272C00C00A943115
:1029F000ED2C40088E315826003A03190800873123
:102A0000DA272C00C00A9431F92C40088E315F2659
:102A1000003A031908008731DA272C00C00A9531E3
:102A2000052D40088E316626003A031908008731CB
:102A3000DA272C00C00A9531112D40088E316D2601
:102A4000003A031908008731DA272C00C00A9531B3
:102A50001D2D40088E317426003A03190800873175
:102A6000DA272C00C00A9531292D40088E317B26AB
:102A7000003A031908008731DA272C00C00A953183
:102A8000352D40088E318226003A0319080087311F
:102A9000DA272C00C00A9531412D40088E31892655
:102AA000003A031908008731DA272C00C00A953153
:102AB0004D2D40088E319026003A031908008731C9
:102AC000DA272C00C00A9531592D40088E319726FF
:102AD000003A031908008731DA272C00C00A953123
:102AE000652D40088E319E26003A03190800873173
:102AF000DA272C00C00A9531712D40088E31A526A9
:102B0000003A031908008731DA272C00C00A9531F2
:102B10007D2D40088E31AC26003A0319080087311C
:102B2000DA272C00C00A9531892D40088E31B32652
:102B3000003A031908008731DA272C00C00A9531C2
:102B4000952D40088E31BA26003A031908008731C6
:102B5000DA272C00C00A9531A12D40088E31C126FC
:102B6000003A031908008731DA272C00C00A953192
:102B7000AD2D40088E31C826003A03190800873170
:102B8000DA272C00C00A9531B92D40088E31CF26A6
:102B9000003A031908008731DA272C00C00A953162
:102BA000C52D40088E31D626003A0319080087311A
:102BB000DA272C00C00A9531D12D40088E31DD2650
:102BC000003A031908008731DA272C00C00A953132
:102BD000DD2D40088E31E426003A031908008731C4
:102BE000DA272C00C00A9531E92D40088E31EB26FA
:102BF000003A031908008731DA272C00C00A953102
:102C0000F52D40088E31F226003A0319080087316D
:102C1000DA272C00C00A9631012E40088E31F926A1
:102C2000003A031908008731DA272C00C00A9631D0
:022C30000D2E67
:10300000C20103114208B8310020003A0319080038
:103010008731DA272C00C20A983102284208B831D9
:103020000720003A031908008731DA272C00C20A6A
:1030300098310E284208B8310E20003A03190800D2
:103040008731DA272C00C20A98311A284208B83191
:103050001520003A031908008731DA272C00C20A2C
:10306000983126284208B8311C20003A031908007C
:103070008731DA272C00C20A983132284208B83149
:103080002320003A031908008731DA272C00C20AEE
:1030900098313E284208B8312A20003A0319080026
:1030A0008731DA272C00C20A98314A284208B83101
:1030B0003120003A031908008731DA272C00C20AB0
:1030C000983156284208B8313820003A03190800D0
:1030D0008731DA272C00C20A983162284208B831B9
:1030E0003F20003A031908008731DA272C00C20A72
:1030F00098316E284208B8314620003A031908007A
:103100008731DA272C00C20A98317A284208B83170
:103110004D20003A031908008731DA272C00C20A33
:10312000983186284208B8315420003A0319080023
:103130008731DA272C00C20A983192284208B83128
:103140005B20003A031908008731DA272C00C20AF5
:1031500098319E284208B8316220003A03190800CD
:103160008731DA272C00C20A9831AA284208B831E0
:103170006920003A031908008731DA272C00C20AB7
:103180009831B6284208B8317020003A0319080077
:103190008731DA272C00C20A9831C2284208B83198
:1031A0007720003A031908008731DA272C00C20A79
:1031B0009831CE284208B8317E20003A0319080021
:1031C0008731DA272C00C20A9831DA284208B83150
:1031D0008520003A031908008731DA272C00C20A3B
:1031E0009831E6284208B8318C20003A03190800CB
:1031F0008731DA272C00C20A9831F2284208B83108
:103200009320003A031908008731DA272C00C20AFC
:103210009831FE284208B8319A20003A0319080074
:103220008731DA272C00C20A99310A294208B831BD
:10323000A120003A031908008731DA272C00C20ABE
:10324000993116294208B831A820003A031908001C
:103250008731DA272C00C20A993122294208B83175
:10326000AF20003A031908008731DA272C00C20A80
:1032700099312E294208B831B620003A03190800C6
:103280008731DA272C00C20A99313A294208B8312D
:10329000BD20003A031908008731DA272C00C20A42
:1032A000993146294208B831C420003A0319080070
:1032B0008731DA272C00C20A993152294208B831E5
:1032C000CB20003A031908008731DA272C00C20A04
:1032D00099315E294208B831D220003A031908001A
:1032E0008731DA272C00C20A99316A294208B8319D
:1032F000D920003A031908008731DA272C00C20AC6
:10330000993176294208B831E020003A03190800C3
:103310008731DA272C00C20A993182294208B83154
:10332000E720003A031908008731DA272C00C20A87
:1033300099318E294208B831EE20003A031908006D
:103340008731DA272C00C20A99319A294208B8310C
:10335000F520003A031908008731DA272C00C20A49
:103360009931A6294208B831FC20003A0319080017
:103370008731DA272C00C20A9931B2294208B931C3
:103380000321003A031908008731DA272C00C20A0A
:103390009931BE294208B9310A21003A03190800BF
:1033A0008731DA272C00C20A9931CA294208B9317B
:1033B0001121003A031908008731DA272C00C20ACC
:1033C0009931D6294208B9311821003A0319080069
:1033D0008731DA272C00C20A9931E2294208B93133
:1033E0001F21003A031908008731DA272C00C20A8E
:1033F0009931EE294208B9312621003A0319080013
:103400008731DA272C00C20A9931FA294208B931EA
:103410002D21003A031908008731DA272C00C20A4F
:103420009A31062A4208B9313421003A03190800BA
:103430008731DA272C00C20A9A31122A4208B931A0
:103440003B21003A031908008731DA272C00C20A11
:103450009A311E2A4208B9314221003A0319080064
:103460008731DA272C00C20A9A312A2A4208B93158
:103470004921003A031908008731DA272C00C20AD3
:103480009A31362A4208B9315021003A031908000E
:103490008731DA272C00C20A9A31422A4208B93110
:1034A0005721003A031908008731DA272C00C20A95
:1034B0009A314E2A4208B9315E21003A03190800B8
:1034C0008731DA272C00C20A9A315A2A4208B931C8
:1034D0006521003A031908008731DA272C00C20A57
:1034E0009A31662A4208B9316C21003A0319080062
:1034F0008731DA272C00C20A9A31722A4208B93180
:103500007321003A031908008731DA272C00C20A18
:103510009A317E2A4208B9317A21003A031908000B
:103520008731DA272C00C20A9A318A2A4208B93137
:103530008121003A031908008731DA272C00C20ADA
:103540009A31962A4208B9318821003A03190800B5
:103550008731DA272C00C20A9A31A22A4208B931EF
:103560008F21003A031908008731DA272C00C20A9C
:103570009A31AE2A4208B9319621003A031908005F
:103580008731DA272C00C20A9A31BA2A4208B931A7
:103590009D21003A031908008731DA272C00C20A5E
:1035A0009A31C62A4208B931A421003A0319080009
:1035B0008731DA272C00C20A9A31D22A4208B9315F
:1035C000AB21003A031908008731DA272C00C20A20
:1035D0009A31DE2A4208B931B221003A03190800B3
:1035E0008731DA272C00C20A9A31EA2A4208B93117
:1035F000B921003A031908008731DA272C00C20AE2
:103600009A31F62A4208B931C021003A031908005C
:103610008731DA272C00C20A9B31022B4208B931CC
:10362000C721003A031908008731DA272C00C20AA3
:103630009B310E2B4208B931CE21003A0319080004
:103640008731DA272C00C20A9B311A2B4208B93184
:10365000D521003A031908008731DA272C00C20A65
:103660009B31262B4208B931DC21003A03190800AE
:103670008731DA272C00C20A9B31322B4208B9313C
:10368000E321003A031908008731DA272C00C20A27
:103690009B313E2B4208B931EA21003A0319080058
:1036A0008731DA272C00C20A9B314A2B4208B931F4
:1036B000F121003A031908008731DA272C00C20AE9
:1036C0009B31562B4208B931F821003A0319080002
:1036D0008731DA272C00C20A9B31622B4208B931AC
:1036E000FF21003A031908008731DA272C00C20AAB
:1036F0009B316E2B4208BA310622003A03190800AA
:103700008731DA272C00C20A9B317A2B4208BA3162
:103710000D22003A031908008731DA272C00C20A6B
:103720009B31862B4208BA311422003A0319080053
:103730008731DA272C00C20A9B31922B4208BA311A
:103740001B22003A031908008731DA272C00C20A2D
:103750009B319E2B4208BA312222003A03190800FD
:103760008731DA272C00C20A9B31AA2B4208BA31D2
:103770002922003A031908008731DA272C00C20AEF
:103780009B31B62B4208BA313022003A03190800A7
:103790008731DA272C00C20A9B31C22B4208BA318A
:1037A0003722003A031908008731DA272C00C20AB1
:1037B0009B31CE2B4208BA313E22003A0319080051
:1037C0008731DA272C00C20A9B31DA2B4208BA3142
:1037D0004522003A031908008731DA272C00C20A73
:1037E0009B31E62B4208BA314C22003A03190800FB
:1037F0008731DA272C00C20A9B31F22B4208BA31FA
:103800005322003A031908008731DA272C00C20A34
:103810009B31FE2B4208BA315A22003A03190800A4
:103820008731DA272C00C20A9C310A2C4208BA31AF
:103830006122003A031908008731DA272C00C20AF6
:103840009C31162C4208BA316822003A031908004C
:103850008731DA272C00C20A9C31222C4208BA3167
:103860006F22003A031908008731DA272C00C20AB8
:103870009C312E2C4208BA317622003A03190800F6
:103880008731DA272C00C20A9C313A2C4208BA311F
:103890007D22003A031908008731DA272C00C20A7A
:1038A0009C31462C4208BA318422003A03190800A0
:1038B0008731DA272C00C20A9C31522C4208BA31D7
:1038C0008B22003A031908008731DA272C00C20A3C
:1038D0009C315E2C4208BA319222003A031908004A
:1038E0008731DA272C00C20A9C316A2C4208BA318F
:1038F0009922003A031908008731DA272C00C20AFE
:103900009C31762C4208BA31A022003A03190800F3
:103910008731DA272C00C20A9C31822C4208BA3146
:10392000A722003A031908008731DA272C00C20ABF
:103930009C318E2C4208BA31AE22003A031908009D
:103940008731DA272C00C20A9C319A2C4208BA31FE
:10395000B522003A031908008731DA272C00C20A81
:103960009C31A62C4208BA31BC22003A0319080047
:103970008731DA272C00C20A9C31B22C4208BA31B6
:10398000C322003A031908008731DA272C00C20A43
:103990009C31BE2C4208BA31CA22003A03190800F1
:1039A0008731DA272C00C20A9C31CA2C4208BA316E
:1039B000D122003A031908008731DA272C00C20A05
:1039C0009C31D62C4208BA31D822003A031908009B
:1039D0008731DA272C00C20A9C31E22C4208BA3126
:1039E000DF22003A031908008731DA272C00C20AC7
:1039F0009C31EE2C4208BA31E622003A0319080045
:103A00008731DA272C00C20A9C31FA2C4208BA31DD
:103A1000ED22003A031908008731DA272C00C20A88
:103A20009D31062D4208BA31F422003A03190800EC
:103A30008731DA272C00C20A9D31122D4208BA3193
:103A4000FB22003A031908008731DA272C00C20A4A
:103A50009D311E2D4208BB310223003A0319080094
:103A60008731DA272C00C20A9D312A2D4208BB314A
:103A70000923003A031908008731DA272C00C20A0B
:103A80009D31362D4208BB311023003A031908003E
:103A90008731DA272C00C20A9D31422D4208BB3102
:103AA0001723003A031908008731DA272C00C20ACD
:103AB0009D314E2D4208BB311E23003A03190800E8
:103AC0008731DA272C00C20A9D315A2D4208BB31BA
:103AD0002523003A031908008731DA272C00C20A8F
:103AE0009D31662D4208BB312C23003A0319080092
:103AF0008731DA272C00C20A9D31722D4208BB3172
:103B00003323003A031908008731DA272C00C20A50
:103B10009D317E2D4208BB313A23003A031908003B
:103B20008731DA272C00C20A9D318A2D4208BB3129
:103B30004123003A031908008731DA272C00C20A12
:103B40009D31962D4208BB314823003A03190800E5
:103B50008731DA272C00C20A9D31A22D4208BB31E1
:103B60004F23003A031908008731DA272C00C20AD4
:103B70009D31AE2D4208BB315623003A031908008F
:103B80008731DA272C00C20A9D31BA2D4208BB3199
:103B90005D23003A031908008731DA272C00C20A96
:103BA0009D31C62D4208BB316423003A0319080039
:103BB0008731DA272C00C20A9D31D22D4208BB3151
:103BC0006B23003A031908008731DA272C00C20A58
:103BD0009D31DE2D4208BB317223003A03190800E3
:103BE0008731DA272C00C20A9D31EA2D4208BB3109
:103BF0007923003A031908008731DA272C00C20A1A
:043C00009D31F62DCF
:10400000C0010311400888310020003A031908005C
:104010008731DA272C00C00AA031022840088831F5
:104020000720003A031908008731DA272C00C00A5C
:10403000A0310E28400888310E20003A03190800EC
:104040008731DA272C00C00AA0311A2840088831AD
:104050001520003A031908008731DA272C00C00A1E
:10406000A0312628400888311C20003A0319080096
:104070008731DA272C00C00AA03132284008883165
:104080002320003A031908008731DA272C00C00AE0
:10409000A0313E28400888312A20003A0319080040
:1040A0008731DA272C00C00AA0314A28400888311D
:1040B0003120003A031908008731DA272C00C00AA2
:1040C000A0315628400888313820003A03190800EA
:1040D0008731DA272C00C00AA031622840088831D5
:1040E0003F20003A031908008731DA272C00C00A64
:1040F000A0316E28400888314620003A0319080094
:104100008731DA272C00C00AA0317A28400888318C
:104110004D20003A031908008731DA272C00C00A25
:10412000A0318628400888315420003A031908003D
:104130008731DA272C00C00AA03192284008883144
:104140005B20003A031908008731DA272C00C00AE7
:10415000A0319E28400888316220003A03190800E7
:104160008731DA272C00C00AA031AA2840088831FC
:104170006920003A031908008731DA272C00C00AA9
:10418000A031B628400888317020003A0319080091
:104190008731DA272C00C00AA031C22840088831B4
:1041A0007720003A031908008731DA272C00C00A6B
:1041B000A031CE28400888317E20003A031908003B
:1041C0008731DA272C00C00AA031DA28400888316C
:1041D0008520003A031908008731DA272C00C00A2D
:1041E000A031E628400888318C20003A03190800E5
:1041F0008731DA272C00C00AA031F2284008883124
:104200009320003A031908008731DA272C00C00AEE
:10421000A031FE28400888319A20003A031908008E
:104220008731DA272C00C00AA1310A2940088831D9
:10423000A120003A031908008731DA272C00C00AB0
:10424000A131162940088831A820003A0319080036
:104250008731DA272C00C00AA13122294008883191
:10426000AF20003A031908008731DA272C00C00A72
:10427000A1312E2940088831B620003A03190800E0
:104280008731DA272C00C00AA1313A294008883149
:10429000BD20003A031908008731DA272C00C00A34
:1042A000A131462940088831C420003A031908008A
:1042B0008731DA272C00C00AA13152294008883101
:1042C000CB20003A031908008731DA272C00C00AF6
:1042D000A1315E2940088831D220003A0319080034
:1042E0008731DA272C00C00AA1316A2940088831B9
:1042F000D920003A031908008731DA272C00C00AB8
:10430000A131762940088831E020003A03190800DD
:104310008731DA272C00C00AA13182294008883170
:10432000E720003A031908008731DA272C00C00A79
:10433000A1318E2940088831EE20003A0319080087
:104340008731DA272C00C00AA1319A294008883128
:10435000F520003A031908008731DA272C00C00A3B
:10436000A131A62940088831FC20003A0319080031
:104370008731DA272C00C00AA131B22940088931DF
:104380000321003A031908008731DA272C00C00AFC
:10439000A131BE29400889310A21003A03190800D9
:1043A0008731DA272C00C00AA131CA294008893197
:1043B0001121003A031908008731DA272C00C00ABE
:1043C000A131D629400889311821003A0319080083
:1043D0008731DA272C00C00AA131E229400889314F
:1043E0001F21003A031908008731DA272C00C00A80
:1043F000A131EE29400889312621003A031908002D
:104400008731DA272C00C00AA131FA294008893106
:104410002D21003A031908008731DA272C00C00A41
:10442000A231062A400889313421003A03190800D4
:104430008731DA272C00C00AA231122A40088931BC
:104440003B21003A031908008731DA272C00C00A03
:10445000A2311E2A400889314221003A031908007E
:104460008731DA272C00C00AA2312A2A4008893174
:104470004921003A031908008731DA272C00C00AC5
:10448000A231362A400889315021003A0319080028
:104490008731DA272C00C00AA231422A400889312C
:1044A0005721003A031908008731DA272C00C00A87
:1044B000A2314E2A400889315E21003A03190800D2
:1044C0008731DA272C00C00AA2315A2A40088931E4
:1044D0006521003A031908008731DA272C00C00A49
:1044E000A231662A400889316C21003A031908007C
:1044F0008731DA272C00C00AA231722A400889319C
:104500007321003A031908008731DA272C00C00A0A
:10451000A2317E2A400889317A21003A0319080025
:104520008731DA272C00C00AA2318A2A4008893153
:104530008121003A031908008731DA272C00C00ACC
:10454000A231962A400889318821003A03190800CF
:104550008731DA272C00C00AA231A22A400889310B
:104560008F21003A031908008731DA272C00C00A8E
:10457000A231AE2A400889319621003A0319080079
:104580008731DA272C00C00AA231BA2A40088931C3
:104590009D21003A031908008731DA272C00C00A50
:1045A000A231C62A40088931A421003A0319080023
:1045B0008731DA272C00C00AA231D22A400889317B
:1045C000AB21003A031908008731DA272C00C00A12
:1045D000A231DE2A40088931B221003A03190800CD
:1045E0008731DA272C00C00AA231EA2A4008893133
:1045F000B921003A031908008731DA272C00C00AD4
:10460000A231F62A40088931C021003A0319080076
:104610008731DA272C00C00AA331022B40088931E8
:10462000C721003A031908008731DA272C00C00A95
:10463000A3310E2B40088931CE21003A031908001E
:104640008731DA272C00C00AA3311A2B40088931A0
:10465000D521003A031908008731DA272C00C00A57
:10466000A331262B40088931DC21003A03190800C8
:104670008731DA272C00C00AA331322B4008893158
:10468000E321003A031908008731DA272C00C00A19
:10469000A3313E2B40088931EA21003A0319080072
:1046A0008731DA272C00C00AA3314A2B4008893110
:1046B000F121003A031908008731DA272C00C00ADB
:1046C000A331562B40088931F821003A031908001C
:1046D0008731DA272C00C00AA331622B40088931C8
:1046E000FF21003A031908008731DA272C00C00A9D
:1046F000A3316E2B40088A310622003A03190800C4
:104700008731DA272C00C00AA3317A2B40088A317E
:104710000D22003A031908008731DA272C00C00A5D
:10472000A331862B40088A311422003A031908006D
:104730008731DA272C00C00AA331922B40088A3136
:104740001B22003A031908008731DA272C00C00A1F
:10475000A3319E2B40088A312222003A0319080017
:104760008731DA272C00C00AA331AA2B40088A31EE
:104770002922003A031908008731DA272C00C00AE1
:10478000A331B62B40088A313022003A03190800C1
:104790008731DA272C00C00AA331C22B40088A31A6
:1047A0003722003A031908008731DA272C00C00AA3
:1047B000A331CE2B40088A313E22003A031908006B
:1047C0008731DA272C00C00AA331DA2B40088A315E
:1047D0004522003A031908008731DA272C00C00A65
:1047E000A331E62B40088A314C22003A0319080015
:1047F0008731DA272C00C00AA331F22B40088A3116
:104800005322003A031908008731DA272C00C00A26
:10481000A331FE2B40088A315A22003A03190800BE
:104820008731DA272C00C00AA4310A2C40088A31CB
:104830006122003A031908008731DA272C00C00AE8
:10484000A431162C40088A316822003A0319080066
:104850008731DA272C00C00AA431222C40088A3183
:104860006F22003A031908008731DA272C00C00AAA
:10487000A4312E2C40088A317622003A0319080010
:104880008731DA272C00C00AA4313A2C40088A313B
:104890007D22003A031908008731DA272C00C00A6C
:1048A000A431462C40088A318422003A03190800BA
:1048B0008731DA272C00C00AA431522C40088A31F3
:1048C0008B22003A031908008731DA272C00C00A2E
:1048D000A4315E2C40088A319222003A0319080064
:1048E0008731DA272C00C00AA4316A2C40088A31AB
:1048F0009922003A031908008731DA272C00C00AF0
:10490000A431762C40088A31A022003A031908000D
:104910008731DA272C00C00AA431822C40088A3162
:10492000A722003A031908008731DA272C00C00AB1
:10493000A4318E2C40088A31AE22003A03190800B7
:104940008731DA272C00C00AA4319A2C40088A311A
:10495000B522003A031908008731DA272C00C00A73
:10496000A431A62C40088A31BC22003A0319080061
:104970008731DA272C00C00AA431B22C40088A31D2
:10498000C322003A031908008731DA272C00C00A35
:10499000A431BE2C40088A31CA22003A031908000B
:1049A0008731DA272C00C00AA431CA2C40088A318A
:1049B000D122003A031908008731DA272C00C00AF7
:1049C000A431D62C40088A31D822003A03190800B5
:1049D0008731DA272C00C00AA431E22C40088A3142
:1049E000DF22003A031908008731DA272C00C00AB9
:1049F000A431EE2C40088A31E622003A031908005F
:104A00008731DA272C00C00AA431FA2C40088A31F9
:104A1000ED22003A031908008731DA272C00C00A7A
:104A2000A531062D40088A31F422003A0319080006
:104A30008731DA272C00C00AA531122D40088A31AF
:104A4000FB22003A031908008731DA272C00C00A3C
:104A5000A5311E2D40088B310223003A03190800AE
:104A60008731DA272C00C00AA5312A2D40088B3166
:104A70000923003A031908008731DA272C00C00AFD
:104A8000A531362D40088B311023003A0319080058
:104A90008731DA272C00C00AA531422D40088B311E
:104AA0001723003A031908008731DA272C00C00ABF
:104AB000A5314E2D40088B311E23003A0319080002
:104AC0008731DA272C00C00AA5315A2D40088B31D6
:104AD0002523003A031908008731DA272C00C00A81
:104AE000A531662D40088B312C23003A03190800AC
:104AF0008731DA272C00C00AA531722D40088B318E
:104B00003323003A031908008731DA272C00C00A42
:104B1000A5317E2D40088B313A23003A0319080055
:104B20008731DA272C00C00AA5318A2D40088B3145
:104B30004123003A031908008731DA272C00C00A04
:104B4000A531962D40088B314823003A03190800FF
:104B50008731DA272C00C00AA531A22D40088B31FD
:104B60004F23003A031908008731DA272C00C00AC6
:104B7000A531AE2D40088B315623003A03190800A9
:104B80008731DA272C00C00AA531BA2D40088B31B5
:104B90005D23003A031908008731DA272C00C00A88
:104BA000A531C62D40088B316423003A0319080053
:104BB0008731DA272C00C00AA531D22D40088B316D
:104BC0006B23003A031908008731DA272C00C00A4A
:044BD000A531DE2D00
:105000002C00200823009300003091001513951305
:1050100015158B1355309600AA30960095148B17F2
:1050200015119518102808002C0021082300930062
:10503000013091001513951315158B1355309600FB
:10504000AA30960095148B1715119518242808007E
:105050002C002208230093000230910015139513B1
:1050600015158B1355309600AA30960095148B17A2
:1050700015119518382808002C00230823009300E8
:10508000033091001513951315158B1355309600A9
:10509000AA30960095148B17151195184C28080006
:1050A0002000FE309B00200007309C00250080304F
:1050B000910025003C30930021000E1108002000D3
:1050C0001E10210095129511151495141515250023
:1050D000FF309100200095012C00A801AB01AC012C
:1050E000AD01AE010800A8317A202C00291BA8319F
:1050F0009E20080020000B1D7E280B112C00AB0AFF
:105100002C0003112B08FF3A031D8828AC0AAB01C1
:1051100003112C08013A031D8F28AD0AAC010311BD
:105120002D083C3A031D9628AE0AAD012C00031150
:105130002E08013A03192C002917080003112C002E
:105140002E08023A031DA828803025009100C328AC
:105150002C002E08033A031DB12840302500910091
:10516000C3282C002E08043A031DBA28203025003D
:105170009100C3282C002E08053A031DC3281030C7
:1051800025009100C32808002C002913AE0125003A
:10519000DF30910008002C00BB0000308631302643
:1051A000A831D520A831E6200800873116272C0029
:1051B0003B08240091001419DB282400161FE02866
:1051C000240016081F39031DE12808002C002F08B1
:1051D000240091001419EA282400161FEF28240047
:1051E00016081F39031DF0282C002F0824009100F9
:1051F0001419F8282400161FFD28240016081F394A
:10520000031DFE2887311D2708002C00BD0000303B
:1052100086313026873116272C003D08A9315F21C1
:1052200024009100141912292400161F17292400A4
:1052300016081F39031D18292C003D08A9316421C7
:1052400024009100141922292400161F2729240064
:1052500016081F39031D28292C003D080311A93108
:105260003D08003A03194429A9313D08013A0319C0
:105270004729A9313D08023A03194A29A9313D08B5
:10528000033A03194D2908002C00300850292C003E
:10529000310850292C00320850292C00330850299D
:1052A00024009100141952292400161F57292400A4
:1052B00016081F39031D582987311D2708000B00C8
:1052C0005E345E345C345E340B00A934AA34A934F5
:1052D000AA3420000E082C00A4002C00251E7629DC
:1052E0002C00241808002C00251208002C00241C77
:1052F00008002C002516A831C4202C00381F822954
:10530000381B84293817080038130800B7310030DB
:10531000C427BC316524BC318D242C003008B03149
:105320000020AA31A722BC316F24BC318D242C006F
:105330003108B03100200800B7314030C427BC31FB
:105340007924BC318D242C003208B0310020AA31E0
:10535000B622BC318324BC318D242C003308B031FB
:105360000020080020000E082C00A4002C00A51E20
:10537000BF292C00A41808002C00A51208002C003E
:10538000A41C08002C00A516A831C4202C00B81FAE
:10539000CB29B81BCD29B8170800B813080008009E
:1053A000B7310030C427BC316524BC318D242C00BA
:1053B0003408B5310525AA31A722BC316F24BC3190
:1053C0008D242C003508B53105250800B731403053
:1053D000C427BC317924BC318D242C003608B5316A
:1053E0000525AA31B622BC318324BC318D242C0082
:1053F0003708B5310525080020000C082C00A40052
:105400002C00251C092A2C00241808002C0025102B
:1054100008002C00241C08002C002514A831C420EE
:105420002C00381C152A3818172A38140800381090
:10543000080020000C082C00A4002C00A51C262A23
:105440002C00A41808002C00A51008002C00A41C97
:1054500008002C00A514A831C4202C00B81C322A46
:10546000B818342AB8140800B810080020000C0836
:105470002C00A4002C00251D432A2C002419080010
:105480002C00251108002C00241D08002C002515D7
:10549000A831C4202C00381D4F2A3819512A38153C
:1054A00008003811080020000C082C00A4002C0073
:1054B000A51D602A2C00A41908002C00A5110800C5
:1054C0002C00A41D08002C00A515A831C4202C0018
:1054D000B81D6C2AB8196E2AB8150800B811080052
:1054E000A8317320A9318621A9319C21AA319E229D
:1054F000AA31C522AB3104238031E3202C003808C7
:105500000F390311003A03190800AA31702AA83193
:105510007320A931D021A931E621AA319E22AA31D6
:10552000C522AB3104238031E3202C0038080F3929
:105530000311003A03190800AA31872AA931FC2176
:10554000AA311922AA313622AA31532208002C008E
:10555000381C7C3038182A308731DA272C00B81CE8
:105560007C30B8182A308731DA2708002C00381D23
:105570007C3038192A308731DA272C00B81D7C306E
:10558000B8192A308731DA27080020000E082C00CD
:10559000A4002C00251FD22A2C00241808002C005F
:1055A000251308002C00241C08002C002517A83106
:1055B000C420AA312C00381BE222AA312C00B81BCF
:1055C000F3220800AB312C0038184323AB312C00F8
:1055D000B8185223AB312C0038196123AB312C00A1
:1055E000B81970230800AC312C0038180B24AC31EA
:1055F0002C00B8181A24AC312C0038192924AC31ED
:105600002C00B8193824080020000E082C00A40033
:105610002C00A51F112B2C00A41808002C00A5138A
:1056200008002C00A41C08002C00A517A831C420D9
:10563000AB312C00381B2123AB312C00B81B32239B
:105640000800AB312C0038187F23AB312C00B81880
:105650008E23AB312C0038199D23AB312C00B819A7
:10566000AC230800AC312C0038184724AC312C0096
:10567000B8185624AC312C0038196524AC312C00F4
:10568000B81974240800A831C4202C000311300874
:10569000FF3A03190800B00A0030A9310521AB31E7
:1056A000BB230800A831C4202C0003113108FF3AA5
:1056B00003190800B10A0130A9310521AB31CF230C
:1056C0000800A831C4202C0003113208FF3A031946
:1056D0000800B20A0230A9310521AB31E3230800EA
:1056E000A831C4202C0003113308FF3A0319080025
:1056F000B30A0330A9310521AB31F7230800A831E3
:10570000C4202C0003113008003A03190800B0032C
:105710000030A9310521AB31BB230800A831C420DA
:105720002C0003113108003A03190800B1030130BD
:10573000A9310521AB31CF230800A831C4202C00AA
:1057400003113208003A03190800B2030230A931EC
:105750000521AB31E3230800A831C4202C0003113C
:105760003308003A03190800B3030330A9310521B7
:10577000AB31F72308002C003008230093000430DD
:1057800091001513951315158B1355309600AA30FB
:10579000960095148B1715119518CB2B08002C002B
:1057A000310823009300053091001513951315154A
:1057B0008B1355309600AA30960095148B1715114F
:1057C0009518DF2B08002C003208230093000630C8
:1057D00091001513951315158B1355309600AA30AB
:1057E000960095148B1715119518F32B08002C00B3
:1057F00033082300930007309100151395131515F6
:105800008B1355309600AA30960095148B171511FE
:105810009518072C0800A831C4202C000311340867
:105820007F3A03190800B40A0030AD312625AC31A7
:1058300083240800A831C4202C00031135087F3AC6
:1058400003190800B50A0130AD312625AC31972483
:105850000800A831C4202C00031136087F3A031930
:105860000800B60A0230AD312625AC31AB24080061
:10587000A831C4202C00031137087F3A031908000F
:10588000B70A0330AD312625AC31BF240800A8315A
:10589000C4202C0003113408003A03190800B40393
:1058A0000030AD312625AC3183240800A831C42056
:1058B0002C0003113508003A03190800B503013024
:1058C000AD312625AC3197240800A831C4202C0026
:1058D00003113608003A03190800B6030230AD314F
:1058E0002625AC31AB240800A831C4202C000311BC
:1058F0003708003A03190800B7030330AD312625F5
:10590000AC31BF2408002C00340823009300083079
:1059100091001513951315158B1355309600AA3069
:10592000960095148B1715119518932C08002C00D0
:1059300035082300930009309100151395131515B0
:105940008B1355309600AA30960095148B171511BD
:105950009518A72C08002C003608230093000A3065
:1059600091001513951315158B1355309600AA3019
:10597000960095148B1715119518BB2C08002C0058
:105980003708230093000B3091001513951315155C
:105990008B1355309600AA30960095148B1715116D
:1059A0009518CF2C0800BC319F2447309924E4245B
:1059B00000307425DA242C0030089924E4240130C6
:1059C0007425DA242C0031089924E424023074254B
:1059D000DA242C0032089924E42403307425DA24D4
:1059E0002C0033089924E4249F240800BC319F2410
:1059F00046309924E42400307425DA242C0034083D
:105A00009924E42401307425DA242C0035089924E3
:105A1000E42402307425DA242C0036089924E42486
:105A200003307425DA242C0037089924E4249F24B9
:105A300008000030AD3126250130AD312625023079
:105A4000AD3126250330AD31262508002C00BD00E0
:105A5000AD3178252C00BC002C00AF004E30A831B1
:105A6000CB20AD312C003D080311AD313D08003A8B
:105A700003194A2DAD313D08013A03194D2DAD31C1
:105A80003D08023A0319502DAD313D08033A031980
:105A9000532D08002C003408562D2C003508562DA7
:105AA0002C003608562D2C003708562D2C00AF0040
:105AB0004630A831CB20AD312C003C082C00AF0083
:105AC0001030AF064E30A831CB20AD312C00103055
:105AD000AF064E30A831CB20AD312C003D08AD31A2
:105AE0007D252C00AF004E30A831CB20AD31080011
:105AF0000B003E341E343D341D340B003F341F3444
:045B00003F341F34DB
:106000002C00C100C0010311A0314108003A03195E
:106010000028A0314108013A03190E28A031410897
:10602000023A03191A28A0314108033A0319262815
:10603000A0314108043A03193228A0314108053A39
:1060400003193E28A0314108063A03194A28A03115
:106050004108073A03195628A0314108083A0319A4
:106060006228A0314108093A03196E28A03141087D
:106070000A3A03197A28A03141080B3A03198628F5
:10608000A03141080C3A03199228A03141080D3A79
:1060900003199E28A03141080E3A0319AA28A031FD
:1060A00041080F3A0319B628A0314108103A0319E4
:1060B000C228A0314108113A0319CE28A031410865
:1060C000123A0319DA28A0314108133A0319E628D5
:1060D000A0314108143A0319F228A0314108153AB9
:1060E0000319FE28A1314108163A03190A29A131E2
:1060F0004108173A03191629A1314108183A031922
:106100002229A1314108193A03192E29A131410848
:106110001A3A03193A29A13141081B3A03194629B1
:10612000A13141081C3A03195229A13141081D3AF5
:1061300003195E29A13141081E3A03196A29A131C8
:1061400041081F3A03197629A1314108203A031961
:106150008229A1314108213A03198E29A131410830
:10616000223A03199A29A1314108233A0319A62991
:10617000A1314108243A0319B229A1314108253A35
:106180000319BE29A1314108263A0319CA29A131B0
:106190004108273A0319D629A1314108283A0319A1
:1061A000E229A1314108293A0319EE29A131410818
:1061B0002A3A0319FA29A23141082B3A0319062A6F
:1061C000A23141082C3A0319122AA23141082D3A72
:1061D00003191E2AA23141082E3A03192A2AA23194
:1061E00041082F3A0319362AA2314108303A0319DF
:1061F000422AA2314108313A03194E2AA2314108FC
:10620000323A03195A2AA2314108333A0319662A4D
:10621000A2314108343A0319722AA2314108353AB1
:1062200003197E2AA2314108363A03198A2AA2317B
:106230004108373A0319962AA2314108383A03191E
:10624000A22AA2314108393A0319AE2AA2314108E3
:106250003A3A0319BA2AA23141083B3A0319C62A2D
:10626000A23141083C3A0319D22AA23141083D3AF1
:106270000319DE2AA23141083E3A0319EA2AA23163
:1062800041083F3A0319F62AA3314108403A03195D
:10629000022BA3314108413A03190E2BA3314108C7
:1062A000423A03191A2BA3314108433A0319262B0A
:1062B000A3314108443A0319322BA3314108453A2E
:1062C00003193E2BA3314108463A03194A2BA33147
:1062D0004108473A0319562BA3314108483A03199C
:1062E000622BA3314108493A03196E2BA3314108AF
:1062F0004A3A03197A2BA33141084B3A0319862BEA
:10630000A33141084C3A0319922BA33141084D3A6D
:1063100003199E2BA33141084E3A0319AA2BA3312E
:1063200041084F3A0319B62BA3314108503A0319DB
:10633000C22BA3314108513A0319CE2BA331410896
:10634000523A0319DA2BA3314108533A0319E62BC9
:10635000A3314108543A0319F22BA3314108553AAD
:106360000319FE2BA4314108563A03190A2CA43113
:106370004108573A0319162CA4314108583A031919
:10638000222CA4314108593A03192E2CA43141087A
:106390005A3A03193A2CA43141085B3A0319462CA6
:1063A000A43141085C3A0319522CA43141085D3AEA
:1063B00003195E2CA43141085E3A03196A2CA431FA
:1063C00041085F3A0319762CA4314108603A031959
:1063D000822CA4314108613A03198E2CA431410862
:1063E000623A03199A2CA4314108633A0319A62C86
:1063F000A4314108643A0319B22CA4314108653A2A
:106400000319BE2CA4314108663A0319CA2CA431E1
:106410004108673A0319D62CA4314108683A031998
:10642000E22CA4314108693A0319EE2CA431410849
:106430006A3A0319FA2CA53141086B3A0319062D63
:10644000A53141086C3A0319122DA53141086D3A66
:1064500003191E2DA53141086E3A03192A2DA531C5
:1064600041086F3A0319362DA5314108703A0319D6
:10647000422DA5314108713A03194E2DA53141082D
:10648000723A03195A2DA5314108733A0319662D42
:10649000A5314108743A0319722DA5314108753AA6
:1064A00003197E2DA5314108763A03198A2DA531AD
:1064B0004108773A0319962DA5314108783A031916
:1064C000A22DA5314108793A0319AE2DA531410815
:1064D0007A3A0319BA2DA53141087B3A0319C62D22
:1064E000A53141087C3A0319D22DA53141087D3AE6
:1064F0000319DE2D903141087E3A031900289031AE
:1065000041087F3A03190D2890314108803A031958
:10651000192890314108813A031925289031410802
:10652000823A0319312890314108833A03193D28F2
:1065300090314108843A0319492890314108853A3D
:106540000319552890314108863A03196128903182
:106550004108873A03196D2890314108883A031998
:10656000792890314108893A0319852890314108EA
:106570008A3A03199128903141088B3A03199D28D2
:10658000903141088C3A0319A928903141088D3A7D
:106590000319B528903141088E3A0319C12890316A
:1065A00041088F3A0319CD2890314108903A0319D8
:1065B000D92890314108913A0319E52890314108D2
:1065C000923A0319F12890314108933A0319FD28B2
:1065D00091314108943A0319092991314108953ABA
:1065E0000319152991314108963A0319212991314E
:1065F0004108973A03192D2991314108983A031916
:10660000392991314108993A0319452991314108B5
:106610009A3A03195129913141089B3A03195D298E
:10662000913141089C3A03196929913141089D3AF9
:1066300003197529913141089E3A03198129913135
:1066400041089F3A03198D2991314108A03A031955
:10665000992991314108A13A0319A529913141089D
:10666000A23A0319B12991314108A33A0319BD296E
:1066700091314108A43A0319C92991314108A53A39
:106680000319D52991314108A63A0319E12991311D
:106690004108A73A0319ED2991314108A83A031995
:1066A000F92992314108A93A0319052A9231410882
:1066B000AA3A0319112A92314108AB3A03191D2A4B
:1066C00092314108AC3A0319292A92314108AD3A76
:1066D0000319352A92314108AE3A0319412A923101
:1066E0004108AF3A03194D2A92314108B03A0319D3
:1066F000592A92314108B13A0319652A9231410869
:10670000B23A0319712A92314108B33A03197D2A2A
:1067100092314108B43A0319892A92314108B53AB5
:106720000319952A92314108B63A0319A12A9231E8
:106730004108B73A0319AD2A92314108B83A031912
:10674000B92A92314108B93A0319C52A9231410850
:10675000BA3A0319D12A92314108BB3A0319DD2A0A
:1067600092314108BC3A0319E92A92314108BD3AF5
:106770000319F52A93314108BE3A0319012B9331CD
:106780004108BF3A03190D2B93314108C03A031950
:10679000192B93314108C13A0319252B9331410834
:1067A000C23A0319312B93314108C33A03193D2BE7
:1067B00093314108C43A0319492B93314108C53A32
:1067C0000319552B93314108C63A0319612B9331B4
:1067D0004108C73A03196D2B93314108C83A031990
:1067E000792B93314108C93A0319852B933141081C
:1067F000CA3A0319912B93314108CB3A03199D2BC7
:1068000093314108CC3A0319A92B93314108CD3A71
:106810000319B52B93314108CE3A0319C12B93319B
:106820004108CF3A0319CD2B93314108D03A0319CF
:10683000D92B93314108D13A0319E52B9331410803
:10684000D23A0319F12B93314108D33A0319FD2BA6
:1068500094314108D43A0319092C94314108D53AAE
:106860000319152C94314108D63A0319212C94317F
:106870004108D73A03192D2C94314108D83A03190D
:10688000392C94314108D93A0319452C94314108E7
:10689000DA3A0319512C94314108DB3A03195D2C83
:1068A00094314108DC3A0319692C94314108DD3AEE
:1068B0000319752C94314108DE3A0319812C943167
:1068C0004108DF3A03198D2C94314108E03A03194D
:1068D000992C94314108E13A0319A52C94314108CF
:1068E000E23A0319B12C94314108E33A0319BD2C63
:1068F00094314108E43A0319C92C94314108E53A2E
:106900000319D52C94314108E63A0319E12C94314E
:106910004108E73A0319ED2C94314108E83A03198C
:10692000F92C95314108E93A0319052D95314108B3
:10693000EA3A0319112D95314108EB3A03191D2D3F
:1069400095314108EC3A0319292D95314108ED3A6A
:106950000319352D95314108EE3A0319412D953132
:106960004108EF3A03194D2D95314108F03A0319CA
:10697000592D95314108F13A0319652D953141089A
:10698000F23A0319712D95314108F33A03197D2D1F
:1069900095314108F43A0319892D95314108F53AAA
:1069A0000319952D95314108F63A0319A12D95311A
:1069B0004108F73A0319AD2D95314108F83A03190A
:1069C000B92D95314108F93A0319C52D9531410882
:1069D000FA3A0319D12D95314108FB3A0319DD2DFF
:1069E00095314108FC3A0319E92D95314108FD3AEA
:1069F0000319F52D96314108FE3A0319012E9631FF
:0A6A00004108FF3A03190D2E0800AB
:066A0A002C00C300C201D4
:106A1000031198314308003A0319022898314308BA
:106A2000013A03190E2898314308023A03191A282B
:106A300098314308033A0319262898314308043A49
:106A40000319322898314308053A03193E28983132
:106A50004308063A03194A2898314308073A0319AC
:106A6000562898314308083A031962289831430898
:106A7000093A03196E28983143080A3A03197A280B
:106A8000983143080B3A03198628983143080C3A89
:106A900003199228983143080D3A03199E2898311A
:106AA00043080E3A0319AA28983143080F3A0319EC
:106AB000B62898314308103A0319C2289831430880
:106AC000113A0319CE2898314308123A0319DA28EB
:106AD00098314308133A0319E62898314308143AC9
:106AE0000319F22898314308153A0319FE28993101
:106AF0004308163A03190A2999314308173A03192A
:106B0000162999314308183A031922299931430863
:106B1000193A03192E29993143081A3A03193A29C7
:106B2000993143081B3A03194629993143081C3A05
:106B300003195229993143081D3A03195E299931E5
:106B400043081E3A03196A29993143081F3A031969
:106B5000762999314308203A03198229993143084B
:106B6000213A03198E2999314308223A03199A29A7
:106B700099314308233A0319A62999314308243A45
:106B80000319B22999314308253A0319BE299931CD
:106B90004308263A0319CA2999314308273A0319A9
:106BA000D62999314308283A0319E2299931430833
:106BB000293A0319EE29993143082A3A0319FA2987
:106BC0009A3143082B3A0319062A9A3143082C3A82
:106BD0000319122A9A3143082D3A03191E2A9A31B1
:106BE00043082E3A03192A2A9A3143082F3A0319E7
:106BF000362A9A314308303A0319422A9A31430817
:106C0000313A03194E2A9A314308323A03195A2A63
:106C10009A314308333A0319662A9A314308343AC1
:106C20000319722A9A314308353A03197E2A9A3198
:106C30004308363A03198A2A9A314308373A031926
:106C4000962A9A314308383A0319A22A9A314308FE
:106C5000393A0319AE2A9A3143083A3A0319BA2A43
:106C60009A3143083B3A0319C62A9A3143083C3A01
:106C70000319D22A9A3143083D3A0319DE2A9A3180
:106C800043083E3A0319EA2A9A3143083F3A031966
:106C9000F62A9B314308403A0319022B9B314308E3
:106CA000413A03190E2B9B314308423A03191A2B20
:106CB0009B314308433A0319262B9B314308443A3E
:106CC0000319322B9B314308453A03193E2B9B3164
:106CD0004308463A03194A2B9B314308473A0319A4
:106CE000562B9B314308483A0319622B9B314308CA
:106CF000493A03196E2B9B3143084A3A03197A2B00
:106D00009B3143084B3A0319862B9B3143084C3A7D
:106D10000319922B9B3143084D3A03199E2B9B314B
:106D200043084E3A0319AA2B9B3143084F3A0319E3
:106D3000B62B9B314308503A0319C22B9B314308B1
:106D4000513A0319CE2B9B314308523A0319DA2BDF
:106D50009B314308533A0319E62B9B314308543ABD
:106D60000319F22B9B314308553A0319FE2B9C3132
:106D70004308563A03190A2C9C314308573A031921
:106D8000162C9C314308583A0319222C9C31430895
:106D9000593A03192E2C9C3143085A3A03193A2CBC
:106DA0009C3143085B3A0319462C9C3143085C3AFA
:106DB0000319522C9C3143085D3A03195E2C9C3117
:106DC00043085E3A03196A2C9C3143085F3A031961
:106DD000762C9C314308603A0319822C9C3143087D
